:100000000C94FC030C942D040C942D040C942D04DE
:100010000C942D040C942D040C942D040C942D049C
:100020000C942D040C942D040C942D040C942D048C
:100030000C942D040C942D040C942D040C942D047C
:100040000C942D040C942D040C942D040C942D046C
:100050000C942D040C942D040C942D040C94F62572
:100060000C942D040C942E0C0C94560B0C942D0413
:100070000C942D040C942D040C942D040C942D043C
:100080000C942D040C942D040C942D040C942D042C
:100090000C94FB0B0C94170B0C942D040C942D0456
:1000A0000C942D040C942D040C942D040C942D040C
:1000B0000C942D040C942D040C942D040C942D04FC
:1000C0000C942D040C942D040C942D040C94C80B4A
:1000D0000C94D80A0C942D040C94950B0C94990A4A
:1000E0000C942D04AE0CB10CA40CA80CE80CB50CAF
:1000F000B90CBF0CC30CC70CCD0CD10CD50CE80C43
:10010000DB0CDF0CE30C0C9450040C94D40F0C9417
:10011000B3040C94C30C0C94E30C0C94A5100C9435
:100120001B130C94D10C0C9425140C94A80C0C9457
:1001300003100C942B2F0C9432100C9412150C9469
:100140007B110C94B6140C94E80C0C94B10C0C9428
:10015000E1090C941E0A0C94D3040C9488220C948C
:1001600047120C94D7210C9466040C9419050C9436
:10017000EF040C94B50C0C94DB0C0C94A8040C94B8
:1001800084100C94140A0C94AE0C0C94A00F0C94D4
:10019000CD0C0C94B90C0C94A40C0C94C70C0C94BE
:1001A000DA110C945D100C94BF0C0C94DF0C0C94C1
:1001B0002F040C949F050C94F5140C9470100C945F
:1001C000A10F0C94D50C00002100240027002A0068
:1001D0002D003000330001010000040107010A0175
:1001E00000000000003E5B4F5B3E3E6B4F6B3E1CD1
:1001F0003E7C3E1C183C7E3C181C577D571C1C5EE8
:100200007F5E1C00183C1800FFE7C3E7FF001824BE
:100210001800FFE7DBE7FF30483A060E2629792968
:1002200026407F050507407F05253F5A3CE73C5A9D
:100230007F3E1C1C08081C1C3E7F14227F22145F7A
:100240005F005F5F06097F017F006689956A6060D5
:1002500060606094A2FFA29408047E040810207ECF
:10026000201008082A1C08081C2A08081E10101054
:10027000100C1E0C1E0C30383E3830060E3E0E069A
:10028000000000000000005F0000000700070014ED
:100290007F147F14242A7F2A1223130864623649AC
:1002A0005620500008070300001C22410000412294
:1002B0001C002A1C7F1C2A08083E08080080703099
:1002C0000008080808080000606000201008040208
:1002D0003E5149453E00427F40007249494946210E
:1002E00041494D331814127F1027454545393C4A82
:1002F0004949314121110907364949493646494999
:10030000291E0000140000004034000000081422E0
:10031000411414141414004122140802015909064E
:100320003E415D594E7C1211127C7F494949363E4F
:10033000414141227F4141413E7F494949417F0935
:100340000909013E414151737F0808087F00417F40
:1003500041002040413F017F081422417F4040403E
:10036000407F021C027F7F0408107F3E4141413ED6
:100370007F090909063E4151215E7F091929462658
:100380004949493203017F01033F4040403F1F205C
:1003900040201F3F4038403F631408146303047833
:1003A00004036159494D43007F4141410204081053
:1003B00020004141417F040201020440404040408E
:1003C000000307080020545478407F2844443838FC
:1003D00044444428384444287F385454541800086E
:1003E0007E090218A4A49C787F0804047800447D48
:1003F00040002040403D007F1028440000417F40E5
:10040000007C047804787C08040478384444443838
:10041000FC1824241818242418FC7C080404084818
:100420005454542404043F44243C4040207C1C2069
:1004300040201C3C4030403C44281028444C9090C4
:10044000907C4464544C440008364100000077001E
:1004500000004136080002010204023C2623263C2B
:100460001EA1A161123A4040207A385454555921B6
:10047000555579412254547842215554784020549E
:100480005579400C1E5272123955555559395454EC
:10049000545939555454580000457C410002457D5B
:1004A000420001457C407D1211127DF0282528F084
:1004B0007C545545002054547C547C0A097F4932B1
:1004C000494949323A4444443A324A4848303A4128
:1004D00041217A3A42402078009DA0A07D3D4242D1
:1004E000423D3D4040403D3C24FF2424487E49435A
:1004F000662B2FFC2F2BFF0929F620C0887E0903CD
:1005000020545479410000447D413048484A3238F3
:100510004040227A007A0A0A727D0D19317D26291F
:10052000292F28262929292630484D402038080817
:10053000080808080808382F10C8ACBA2F1028344B
:10054000FA00007B000008142A142222142A14083E
:100550005500550055AA55AA55AAFF55FF55FF004D
:100560000000FF00101010FF00141414FF00101002
:10057000FF00FF1010F010F0141414FC001414F716
:1005800000FF0000FF00FF1414F404FC1414171003
:100590001F10101F101F1414141F00101010F00053
:1005A0000000001F101010101F10101010F010008D
:1005B0000000FF101010101010101010FF1000009D
:1005C00000FF140000FF00FF00001F10170000FCD8
:1005D00004F414141710171414F404F40000FF00AA
:1005E000F714141414141414F700F7141414171433
:1005F00010101F101F141414F4141010F010F00039
:10060000001F101F0000001F14000000FC14000059
:10061000F010F01010FF10FF141414FF141010103D
:100620001F00000000F010FFFFFFFFFFF0F0F0F0F0
:10063000F0FFFFFF0000000000FFFF0F0F0F0F0F84
:100640003844443844FC4A4A4A347E0202060602D0
:100650007E027E0263554941633844443C04407E37
:10066000201E2006027E020299A5E7A5991C2A49B0
:100670002A1C4C7201724C304A4D4D30304878483B
:1006800030BC625A463D3E494949007E0101017E27
:100690002A2A2A2A2A44445F444440514A4440407A
:1006A000444A51400000FF0103E080FF00000808B9
:1006B0006B6B083612362436060F090F0600001839
:1006C000180000001010003040FF0101001F010160
:1006D0001E00191D1712003C3C3C3C0000000000AD
:1006E000000020002300260029002C002F003200EB
:1006F000000100000301060109010000090A0208C7
:100700000B0C0D07060304010000000000000000B0
:1007100000000000000000000000000000000000D9
:1007200000000000000011100F0000000000000099
:1007300000000000000000000000000000000000B9
:100740007C3C3E5E2B3D3F2F5B5D3B2C2A225C00B8
:1007500001021020200808102040102040800201D3
:1007600002010804020101020408102040808040B8
:1007700020100804020180040201804020100804B7
:100780000201080402010102040810204080010255
:1007900004081020408000002200250028002B00C3
:1007A0002E003100340002010000050108010B0198
:1007B00005050505070508080808020202020A0ADD
:1007C00008080404040401010101010101010303FB
:1007D000030303030303040707070C0C0C0C0C0CA6
:1007E0000C0C0202020206060606060606060B0BA3
:1007F0000B0B0B0B0B0B2B2F11241FBECFEFD1E2DA
:10080000DEBFCDBF00E00CBF13E0A0E0B2E0E4EE3D
:10081000FAE600E00BBF02C007900D92AE35B107BB
:10082000D9F72BE1AEE5B3E001C01D92A038B207C5
:10083000E1F713E0CCEFD3E000E006C02197010917
:10084000802FFE010E944535CB3FD10780E008078D
:10085000A9F70E9440260C941B310C940000DC0187
:100860005996ED91FC915A973097B9F08389948904
:10087000A589B6894285538564857585841B950B4A
:10088000A60BB70B811520E89207A105B10538F03A
:100890008FEF9FE7A0E0B0E0089580E090E008953A
:1008A000CF93DF931F92CDB7DEB76983DC01ED9163
:1008B000FC910280F381E02D41E050E0BE016F5FCA
:1008C0007F4F19950F90DF91CF9108950F931F934C
:1008D000CF93DF93FC01A685B7858D01005C1F4F88
:1008E000E8018881998101968F739927AD014E5B4C
:1008F0005F4FEA012881398128173907D1F3E801D0
:1009000028813981A20FB31F6C93A685B785A05C9F
:10091000BF4F11969C938E93A689B7892C9181E045
:1009200090E0078C02C0880F991F0A94E2F7822B8F
:100930008C9381E081A30488F589E02D8081806417
:10094000808381E090E0DF91CF911F910F91089516
:10095000FC0181A1882329F0A489B5898C9186FFA7
:10096000FBCF11A20895FC01A485B585FD01E05CD3
:10097000FF4F20813181329680819181281739077C
:1009800079F080819181A80FB91F8C9120813181EC
:100990002F5F3F4F2F7333273183208390E00895DB
:1009A0008FEF9FEF0895DC011C96ED91FC911D9750
:1009B000DF01A05CBF4F2D913C91119712968D9154
:1009C0009C9111972817390739F08D919C91E80F68
:1009D000F91F808190E008958FEF9FEF0895FC014B
:1009E00024853585F901E05CFF4F80819181329645
:1009F00020813181821B930B8F7399270895FB010E
:100A0000E05CFF4F20813181DB01AE5BBF4F4D9138
:100A10005C912F5F3F4F2F7333274217530741F0ED
:100A200040815181DB01A40FB51F8C93318320835A
:100A30000895CF92DF92EF92FF920F931F93CF937F
:100A4000DF936C01EB017B01E40EF51E00E010E08A
:100A5000CE15DF0561F06991D601ED91FC91019011
:100A6000F081E02DC6011995080F191FF1CFC801BB
:100A7000DF91CF911F910F91FF90EF90DF90CF907A
:100A800008953FB7F8948091281490912914A0916B
:100A90002A14B0912B1426B5A89B05C02F3F19F03E
:100AA0000196A11DB11D3FBFBA2FA92F982F8827EE
:100AB000820F911DA11DB11DBC01CD0142E0660F49
:100AC000771F881F991F4A95D1F70895CF93DF9319
:100AD000EC018D81882379F18C8187FF28C06E8598
:100AE0007F858889998941E00E948924882319F1AA
:100AF000EA8980E2E89FF0011124ED5CF94E30971D
:100B0000D1F08D81823040F48B899C89AD89BE897A
:100B1000848F958FA68FB78F8F89988DA98DBA8D69
:100B2000938F828FB58BA48B8C818F778C83DF9191
:100B3000CF910C944E2480E0DF91CF910895FC0179
:100B4000818D928D009711F00C94660508958F9217
:100B50009F92AF92BF92CF92DF92EF92FF920F934C
:100B60001F93CF93DF93EC018D81811102C080E050
:100B700078C00B891C892D893E8904171507260723
:100B80003707A8F36A017B01823029F4CA86DB8625
:100B9000EC86FD860DC0C114D104E104F10451F4CA
:100BA0001E821F82188619861A861B861C861D8641
:100BB00081E057C08A849B84AC84BD84EB8DFC8D1E
:100BC000258530E0275F3F4FB501A4014150510911
:100BD00061097109022E04C076956795579547956E
:100BE0000A94D2F7D701C6010197A109B10904C03F
:100BF000B695A795979587952A95D2F78417950767
:100C0000A607B70720F089288A288B2871F44F8916
:100C1000588D698D7A8D4E835F83688779874C0103
:100C20005D018E010A5F1F4F16C0841B950BA60B3A
:100C3000B70BF5CF4E815F816885798598018B8DE3
:100C40009C8D0E94732591E0891A9108A108B10832
:100C5000882309F48CCF81149104A104B10451F7C5
:100C600095CFDF91CF911F910F91FF90EF90DF9083
:100C7000CF90BF90AF909F908F9008952F923F920A
:100C80004F925F926F927F928F929F92AF92BF929C
:100C9000CF92DF92EF92FF920F931F93CF93DF9348
:100CA000EC016B014A018D81811103C08FEF9FEF31
:100CB000D7C08C8180FFFACF4B885C886D887E8896
:100CC0004A855B856C857D85C401A0E0B0E0930119
:100CD0008201041B150B260B370B081719072A076F
:100CE0003B0718F44201841A950A54011E0126E0BC
:100CF000220E311CA114B10409F47EC04A855B8523
:100D00006C857D852A0181E05822ED818B8D9C8D3B
:100D10008A019B01F9E03695279517950795FA9575
:100D2000D1F7E23061F4FC01828D938DA48DB58DF5
:100D3000BC01CD01600F711F821F931F3FC0FC01DA
:100D400074807A94702241145104C9F4711017C050
:100D5000452B462B472B49F48F89988DA98DBA8D49
:100D60008E839F83A887B9870AC04E815F8168857B
:100D7000798591010E947325882309F497CFEB8D23
:100D8000FC8D8E819F81A885B9850297A109B10943
:100D9000058404C0880F991FAA1FBB1F0A94D2F7AD
:100DA0004685578560897189840F951FA61FB71FD7
:100DB000BC01CD01670D711D811D911D20E032E048
:100DC0002419350935012A153B0508F439012C8110
:100DD00026FD04C06114F2E07F0681F40091060252
:100DE00010910702209108023091090260177107E3
:100DF00082079307B1F402C0C40132C040E00E94F0
:100E00008924882309F452CFF201ED5CF94ED60112
:100E1000CF01860D971D8E179F0789F021912D9385
:100E2000FACF760183019201AB01BC0180912C14B1
:100E300090912D140E943623882309F437CFC60CD5
:100E4000D71C8A859B85AC85BD85860D971DA11D08
:100E5000B11D8A879B87AC87BD87A618B7084ACF84
:100E6000DF91CF911F910F91FF90EF90DF90CF9086
:100E7000BF90AF909F908F907F906F905F904F90BA
:100E80003F902F900895CF93DF93EC010E94660569
:100E9000882311F01D8281E0DF91CF9108953F9268
:100EA0004F925F926F927F928F929F92AF92BF927A
:100EB000CF92DF92EF92FF920F931F93CF93DF9326
:100EC000CDB7DEB72C970FB6F894DEBF0FBECDBFFF
:100ED0005C01DC015B968D909C905C971696CD90A2
:100EE000DD90ED90FC901997C114D104E104F10458
:100EF00039F0BFEFCB1ADB0AEB0AFB0A312C07C033
:100F0000F401C080D180E280F38033243394F40173
:100F100081859285A385B4859C01AD012F5F3F4FEC
:100F20004F4F5F4F29873A874B875C8726013701F0
:100F30001D821E821F821886F40181859285A385F9
:100F4000B4852D813E814F815885281739074A077E
:100F50005B0708F063C089859A85AB85BC858C15D5
:100F60009D05AE05BF0550F482E0C82ED12CE12CC2
:100F7000F12C92E0492E512C612C712C9E012F5F97
:100F80003F4FB701A601C4010E947325882309F4CD
:100F900045C089819A81AB81BC81892B8A2B8B2B9F
:100FA00041F0260137019FEF491A590A690A790A67
:100FB00005C0C414D504E604F70491F02D813E81E8
:100FC0004F8158852F5F3F4F4F4F5F4F2D833E839B
:100FD0004F8358873FEFC31AD30AE30AF30AACCF13
:100FE0000FEF1FEF2FEF3FE0B301A201C4010E94FA
:100FF000D224882399F0D50116964D915D916D917B
:101000007C911997411551056105710549F09301CE
:101010008201C4010E94D224811102C080E02AC052
:10102000D50116964D925D926D927C921997332060
:1010300051F0D301C2010196A11DB11DF4018083BD
:101040009183A283B383F5018789908DA18DB28DA1
:10105000892B8A2B8B2B69F4D50157964D925D9283
:101060006D927C925A9714968C911497806814967E
:101070008C9381E02C960FB6F894DEBF0FBECDBFE7
:10108000DF91CF911F910F91FF90EF90DF90CF9064
:10109000BF90AF909F908F907F906F905F904F9098
:1010A0003F9008952F923F924F925F926F927F925E
:1010B0008F929F92AF92BF92CF92DF92EF92FF9268
:1010C0000F931F93CF93DF9300D01F92CDB7DEB75E
:1010D0008C015B011A01DC0115968C91159781300A
:1010E000C9F414968C9181FF15C082FF1DC0F801D0
:1010F000438954896589768982859385A485B585D8
:1011000084179507A607B70779F0C8010E94A705BD
:1011100081110AC081E090E0D80113969C938E93D0
:10112000129780E090E036C1610183C05B968D919B
:101130009C915C97FC0174802FEF270D2A013B01E5
:1011400039E076946794579447943A95D1F7722E84
:1011500074207A01F1E0FF22772009F476C080E064
:1011600092E08E199F0946018C159D0508F44C01EB
:10117000D8015B962D913C915C9716968D919D912F
:101180000D90BC91A02D0297A109B109F901058428
:1011900004C0880F991FAA1FBB1F0A94D2F7468567
:1011A000578560897189840F951FA61FB71F9C0101
:1011B000AD01270D311D411D511D29013A01811439
:1011C00032E0930609F088C08091060290910702F0
:1011D000A0910802B0910902481659066A067B06DA
:1011E00059F48FEF9FEFDC01809306029093070282
:1011F000A0930802B09309029501B301A201809166
:101200002C1490912D140E94DF23882309F482CF9F
:101210009EEFB91AC818D908F80182859385A4856C
:10122000B585880D991DA11DB11D82879387A4875F
:10123000B587D8011A964D915D916D917C911D975E
:10124000C114D10409F072CF87C0E114F10409F090
:1012500086CF16964D915D916D917C9119974115B0
:1012600051056105710559F457968D919D910D9029
:10127000BC91A02D0097A105B10541F521C09E01AB
:101280002F5F3F4F0E947325882309F44BCF89813C
:101290009A81AB81BC81F801238D348DF9012789B6
:1012A000203129F048EF5FEF6FEF7FE004C048EF97
:1012B0005FEF60E070E084179507A607B70730F08E
:1012C000C8010E944F0781114ACF24CFF8018683BD
:1012D0009783A087B18743CFE114F10429F5D801A2
:1012E0001A964D915D916D917C911D9753968D91BC
:1012F0009D910D90BC91A02D481759076A077B0757
:1013000098F00E944E24882309F404CF40920602EC
:101310005092070260920802709209028091321680
:1013200081608093321608C041E0C301B2010E947F
:101330008924882309F4EECED501F701ED5CF94E3E
:101340009F01280D391D2E173F0719F08D918193AC
:10135000FACFA80CB91C5ECFF80183899489A589BE
:10136000B68984179507A607B70738F4438B548BC3
:10137000658B768B848180688483F801848183FD0A
:1013800002C0C10107C0C8010E946605882309F494
:10139000C1CEF7CF0F900F900F900F90DF91CF91AC
:1013A0001F910F91FF90EF90DF90CF90BF90AF9083
:1013B0009F908F907F906F905F904F903F902F9075
:1013C0000895CF93DF93EC01898D9A8D009739F4BE
:1013D00081E090E09B838A8380E090E00BC0FC0179
:1013E000138212820E945208E98DFA8D2281338184
:1013F000232B71F7DF91CF910895CF93DF931F9245
:10140000CDB7DEB741E050E0BE016F5F7F4F0E9475
:101410003E06019719F4898190E002C08FEF9FEF9B
:101420000F90DF91CF910895FC01818D928D0097EF
:1014300011F00C94FD098FEF9FEF08950F931F9308
:10144000CF93DF93FC01818D928D0097B9F0EF016E
:101450000E94FD098C010F3F8FEF180791F0898DD5
:101460009A8DFC01428553856485758541505109EB
:10147000610971090E94A705C80105C080E090E0DC
:1014800002C08FEF9FEFDF91CF911F910F910895D1
:10149000FC01DB0112968D919C91139793838283BB
:1014A00086E292E09183808314968C9114978483D2
:1014B00015968C911597858316964D915D916D913A
:1014C0007C91199746835783608771871A964D914F
:1014D0005D916D917C911D974287538764877587D5
:1014E0001E964D915D916D917C91519746875787DE
:1014F000608B718B52968C915297828B53964D9143
:101500005D916D917C915697438B548B658B768B57
:1015100057964D915D916D917C915A97478B508F65
:10152000618F728F5B968D919C915C97948F838F66
:1015300008951F920F920FB60F9211240BB60F92BF
:101540002F933F938F939F93EF93FF932091BC181A
:101550003091BD188091BE189091BF182817390797
:1015600031F4809131018F7D8093310114C0E0917D
:10157000BE18F091BF18E458F74E20818091BE1834
:101580009091BF1801968F7399279093BF188093FD
:10159000BE1820933601FF91EF919F918F913F915B
:1015A0002F910F900BBE0F900FBE0F901F901895AC
:1015B0001F920F920FB60F9211240BB60F922F931A
:1015C0003F938F939F93EF93FF9320914419309112
:1015D000451980914619909147192817390731F418
:1015E0008091D1008F7D8093D10014C0E091461985
:1015F000F0914719EC5FF64E208180914619909149
:10160000471901968F73992790934719809346192C
:101610002093D600FF91EF919F918F913F912F9151
:101620000F900BBE0F900FBE0F901F9018951F923A
:101630000F920FB60F9211240BB60F922F933F9378
:101640008F939F93EF93FF932091CC193091CD19F5
:101650008091CE199091CF192817390731F48091D4
:10166000C9008F7D8093C90014C0E091CE19F0911C
:10167000CF19E457F64E20818091CE199091CF1961
:1016800001968F7399279093CF198093CE19209349
:10169000CE00FF91EF919F918F913F912F910F90ED
:1016A0000BBE0F900FBE0F901F9018951F920F92B8
:1016B0000FB60F9211240BB60F922F933F938F9377
:1016C0009F93EF93FF932091541A3091551A809174
:1016D000561A9091571A2817390731F48091C10092
:1016E0008F7D8093C10014C0E091561AF091571A73
:1016F000EC5EF54E20818091561A9091571A019612
:101700008F7399279093571A8093561A2093C60087
:10171000FF91EF919F918F913F912F910F900BBE71
:101720000F900FBE0F901F9018951F920F920FB63B
:101730000F9211240BB60F922F933F934F935F9309
:101740006F937F938F939F93AF93BF93EF93FF9389
:101750008091300182FD07C08091360160EC78E114
:101760000E94FF0402C080913601FF91EF91BF916A
:10177000AF919F918F917F916F915F914F913F9129
:101780002F910F900BBE0F900FBE0F901F901895CA
:101790001F920F920FB60F9211240BB60F922F9338
:1017A0003F934F935F936F937F938F939F93AF93E9
:1017B000BF93EF93FF938091D00082FD07C080918B
:1017C000D60068E479E10E94FF0402C08091D6004F
:1017D000FF91EF91BF91AF919F918F917F916F9109
:1017E0005F914F913F912F910F900BBE0F900FBEC5
:1017F0000F901F9018951F920F920FB60F92112401
:101800000BB60F922F933F934F935F936F937F93FA
:101810008F939F93AF93BF93EF93FF938091C800F3
:1018200082FD07C08091CE0060ED79E10E94FF0447
:1018300002C08091CE00FF91EF91BF91AF919F9137
:101840008F917F916F915F914F913F912F910F9069
:101850000BBE0F900FBE0F901F9018951F920F9206
:101860000FB60F9211240BB60F922F933F934F9305
:101870005F936F937F938F939F93AF93BF93EF93F8
:10188000FF938091C00082FD07C08091C60068E58B
:101890007AE10E94FF0402C08091C600FF91EF919F
:1018A000BF91AF919F918F917F916F915F914F9178
:1018B0003F912F910F900BBE0F900FBE0F901F9076
:1018C00018956115710579F0FB0101900020E9F789
:1018D0003197AF01461B570BDC01ED91FC91028063
:1018E000F381E02D199480E090E008950C94610C50
:1018F000863308F0865390917B00282F2870977FBD
:10190000922B90937B008770806480937C00809101
:101910007A00806480937A0080917A0086FDFCCF03
:10192000809178002091790090E0922B089590E0CA
:10193000FC013197E131F10508F04AC08827EE58E3
:10194000FF4F8F4F0C944535809180008F7703C0F7
:10195000809180008F7D80938000089584B58F777B
:1019600002C084B58F7D84BD08958091B0008F77CB
:1019700003C08091B0008F7D8093B0000895809166
:1019800090008F7707C0809190008F7D03C0809179
:101990009000877F8093900008958091A0008F77BA
:1019A00007C08091A0008F7D03C08091A000877F39
:1019B0008093A0000895809120018F7707C08091C7
:1019C00020018F7D03C080912001877F80932001BB
:1019D00008951F93CF93DF93282F30E0F901E6504D
:1019E000F94F8491F901E05BF84FD491F901E0558A
:1019F000F84FC491CC23C1F0162F81110E94970C8F
:101A0000EC2FF0E0EE0FFF1FEA56F84FA591B491CE
:101A10009FB7F894111104C08C91D095D82302C0BF
:101A2000EC91DE2BDC939FBFDF91CF911F91089546
:101A3000CF93DF9390E0FC01E05BF84F2491FC0131
:101A4000E055F84F8491882361F190E0880F991F49
:101A5000FC01EA53FE4FC591D491FC01EA56F84FC0
:101A6000A591B491611109C09FB7F8948881209520
:101A700082238883EC912E230BC0623061F49FB7E0
:101A8000F8948881322F309583238883EC912E2B14
:101A90002C939FBF06C08FB7F894E8812E2B288324
:101AA0008FBFDF91CF910895CF92DF92EF92FF9297
:101AB000CF93DF936B017C010E944105EB01C114C0
:101AC000D104E104F10479F00E9441056C1B7D0B07
:101AD000683E7340A0F381E0C81AD108E108F1081C
:101AE000C851DC4FECCFDF91CF91FF90EF90DF90AA
:101AF000CF9008952FB7F894609124147091251415
:101B000080912614909127142FBF08952F923F9211
:101B10004F925F926F927F928F929F92AF92BF92FD
:101B2000CF92DF92EF92FF920F931F93CF93DF93A9
:101B3000CDB7DEB76B970FB6F894DEBF0FBECDBF43
:101B40009B8F8A8F5B011A01D22E1F830E83370170
:101B5000C982DC0158962D913C9159972115310588
:101B600009F0E6C018968D919C911997681779072E
:101B70000CF0CDC11A968D919C911B97481759076F
:101B80000CF0C5C18C2C912CFB0126E0C29EE00D0F
:101B9000F11D1124FB87EA871E161F060CF0B7C142
:101BA000A40183E0440F551F8A95E1F75D874C87B8
:101BB000CA01820D931D181619060CF0A8C157967C
:101BC0008C91811104C05FEA5D1508F4D394AA8D4D
:101BD000BB8DED91FC9111970680F781E02DCD0131
:101BE0001995B5E0DB9EC0011124F5013596FF87FC
:101BF000EE87BB82AA8225019C012A193B09398BF9
:101C0000288BA101485F5F4F5B8B4A8BE889F9897C
:101C1000E40DF51DE052FE4F5491588761013D825D
:101C20002C82888580FF13C0AA8DBB8DED91FC911D
:101C3000B981B13031F40084F185E02D2E813F81EE
:101C400016C00284F385E02DEE80FF801AC0EE817D
:101C5000FF81E615F705F1F0AA8DBB8DED91FC91A2
:101C6000B981B13051F40084F185E02D9301A601D2
:101C7000B2018A8D9B8D19950DC00284F385E02DEC
:101C80007301840194014C815D816A817B818A8D1D
:101C90009B8D1995E885E695E887FFEFCF1ADF0A57
:101CA0002C813D81280D391D3D832C834A895B8918
:101CB000C416D50609F0B5CF5FEF451A550A8A81DB
:101CC0009B81880D991D9B838A83AE85BF854A16AB
:101CD0005B0609F09BCFEE81FF81E615F70509F45D
:101CE000F4C0EA8DFB8DA081B181F981F13079F4E6
:101CF000B5016B5F7F4F1C96ED91FC911D978301A1
:101D000028E030E0A1018A8D9B8D1995DEC06A859F
:101D10007B85681979091A96ED91FC911B977301DF
:101D20000C851D859401A1018A8D9B8D1995CDC0CF
:101D3000F9013496E491DE1AF90132968591949175
:101D4000B7E0DB9E800D911D1124F901259134919E
:101D50003B8B2A8BFC01259134912901FC013296A1
:101D6000C490319634913E87329614913196D49036
:101D70004981423058F0612E012E000C77088D2DDC
:101D80000D2C000C990B9987888704C0198618863A
:101D9000612C712CAA8DBB8DED91FC911197068061
:101DA000F781E02DCD011995B9818B2E912C689C7E
:101DB000C001699C900D789C900D1124FC01EA0DE6
:101DC000FB1DFD87EC871A82712C612CE12F110F0E
:101DD000FF0B95012E0F3F1F3B872A87AC0CB11CD0
:101DE000A5014E0F5F1F5F8B4E8BC1018D0D911DA5
:101DF000D7FC9A95998F888F9E85691608F065C0E3
:101E0000862D90E048855985480F591F489D9001BF
:101E1000499D300D589D300D1124D101A20FB31FE3
:101E2000B98BA88BEC85FD85FD83EC83AA84BB84EC
:101E3000DA80FA85DF1A288D398D280F391F3D8BFE
:101E40002C8B8D2D8A0D4E895F89A416B506C1F1A4
:101E5000877041F4C2010196EA89FB89E40DF51D02
:101E600074902C0177FE21C0AA8DBB8DED91FC9161
:101E7000B981B13061F40084F185E02D2E813F817C
:101E80004C895D89B5018A8D9B8D19950EC00284A0
:101E9000F385E02DEE80FF80840194014889598903
:101EA0006C817D818A8D9B8D1995770CEFEFAE1A31
:101EB000BE0A2C813D81280D391D3D832C83C1CF65
:101EC0003A813C0D3A83639497CFAA8DBB8DED91F7
:101ED000FC9111970288F389E02DCD016B960FB626
:101EE000F894DEBF0FBECDBFDF91CF911F910F9150
:101EF000FF90EF90DF90CF90BF90AF909F908F902A
:101F00007F906F905F904F903F902F9019946B96B9
:101F10000FB6F894DEBF0FBECDBFDF91CF911F91FA
:101F20000F91FF90EF90DF90CF90BF90AF909F9078
:101F30008F907F906F905F904F903F902F9008957B
:101F400008958F929F92AF92BF92CF92DF92EF92BD
:101F5000FF920F931F93CF93DF93EC016B015A0114
:101F60004901E881F9810680F781E02D1995E88122
:101F7000F9810284F385E02D9401A501B601CE011B
:101F80001995E881F9810288F389E02DCE01DF916E
:101F9000CF911F910F91FF90EF90DF90CF90BF9066
:101FA000AF909F908F901994AF92BF92CF92DF9293
:101FB000EF92FF920F931F93CF93DF93EC017B017E
:101FC0006A015901E881F9810680F781E02D1995B0
:101FD000E881F9810684F785E02D9501A601B70116
:101FE000CE011995E881F9810288F389E02DCE01AF
:101FF000DF91CF911F910F91FF90EF90DF90CF90E5
:10200000BF90AF901994AF92BF92CF92DF92EF92B0
:10201000FF920F931F93CF93DF93EC017B016A0133
:102020005901E881F9810680F781E02D1995E88151
:10203000F9810484F585E02D9501A601B701CE0153
:102040001995E881F9810288F389E02DCE01DF91AD
:10205000CF911F910F91FF90EF90DF90CF90BF90A5
:10206000AF901994CF92DF92EF92FF920F931F934C
:10207000CF93DF93EC018B017A016901E881F9814B
:102080000680F781E02D1995E881F9810084F185BA
:10209000E02D9601A701B801CE011995E881F981DB
:1020A0000288F389E02DCE01DF91CF911F910F912E
:1020B000FF90EF90DF90CF901994EF92FF920F93E3
:1020C0001F93DC01ED91FC910284F385E02D7801F2
:1020D00001E010E019951F910F91FF90EF90089586
:1020E000EF92FF920F931F93DC01ED91FC9102841C
:1020F000F385E02D7801890121E030E019951F91E9
:102100000F91FF90EF900895DC019C96ED91FC916A
:102110009D979081D1968C91892B80830895089505
:10212000FC016370658B84819581268137816130E4
:1021300039F0633029F091878087338722870895AB
:1021400031872087938782870895AF92BF92CF927D
:10215000EF92FF920F931F93CF93DF93EC01262F03
:10216000888D998D009709F040C06A3059F41D861A
:102170001C862C898E859F8538E0239F800D911DBC
:10218000112441C06D3009F4AAC08E898823C1F0A2
:102190003C898C859D8546E0349F800D911D1124DE
:1021A00048855985481759075CF41D861C868E851D
:1021B0009F8548E0349F800D911D11249F878E8755
:1021C000EA88FB88088919894E855F856C857D853D
:1021D000CC88CE010E94860D2C898C859D8536E0A9
:1021E000239F800D911D112442C06A3079F41D8611
:1021F0001C862C89FC013696E4918E859F852E9F46
:10220000800D911D11249F878E8769C06D3009F460
:1022100066C0FC0134963491631708F460C03196AF
:10222000E491E61708F45BC0FC0132966591749165
:10223000422F50E0431B510937E0349F5001359F36
:10224000B00C1124A60EB71EF501329634913196CA
:10225000E491332311F0E1110DC0F5013496E491BE
:102260002C898C859D85E29F800D911D11249D8771
:102270008C8735C0F501359644915E89552311F15F
:102280006C89E32FF0E0E40FF11D47FDFA956E9F96
:10229000D0016F9FB00D11244C855D854A0F5B1FE7
:1022A000E885F985E417F5076CF41D861C86FC01AA
:1022B0003696E4918E859F856E9F800D911D112429
:1022C0009F878E87EA88FB88088919894E855F85F4
:1022D0006C857D85CC88CE010E94860DBECF81E0C5
:1022E00090E0DF91CF911F910F91FF90EF90CF90F1
:1022F000BF90AF9008956F927F928F929F92AF920E
:10230000BF92CF92DF92EF92FF920F931F93CF93E2
:10231000DF93EC014B015A0169013801E881F98131
:102320000680F781E02D1995E881F9810684F7850B
:10233000E02D87019601A501B401CE011995A501F3
:10234000460D571D41505109E881F9810684F785F2
:10235000E02D9601B401CE011995E881F98104843C
:10236000F585E02D9301A501B401CE011995C80CA6
:10237000D91CB60161507109E881F9810484F585A1
:10238000E02D9301A501CE011995E881F98102881C
:10239000F389E02DCE01DF91CF911F910F91FF9036
:1023A000EF90DF90CF90BF90AF909F908F907F90F5
:1023B0006F9019948F929F92AF92BF92CF92DF92BB
:1023C000EF92FF920F931F93CF93DF934C016B011A
:1023D0005A01E901DC01ED91FC916217730781F468
:1023E0000417150724F48B2D5801042F182F0A19F0
:1023F0001B0998012F5F3F4F008CF18DE02D12C01B
:102400004017510709F52617370724F48D2D690168
:10241000C62FD82F9E012C193D092F5F3F4F028CEC
:10242000F38DE02D8701A501B601C4011995DF9157
:10243000CF911F910F91FF90EF90DF90CF90BF90C1
:10244000AF909F908F9008950680F781E02D1995A9
:10245000D401ED91FC910088F189E02D9E01A50148
:10246000B601C4011995D401ED91FC910288F3895C
:10247000E02DC401DF91CF911F910F91FF90EF905C
:10248000DF90CF90BF90AF909F908F901994EF9274
:10249000FF920F931F93DC011A960D911C911B97CD
:1024A00018962D913C911997ED91FC91048CF58D26
:1024B000E02D7B0140E050E060E070E019951F9155
:1024C0000F91FF90EF9008954F925F926F927F92DD
:1024D0008F929F92AF92BF92CF92DF92EF92FF9234
:1024E0000F931F93CF93DF936C012B015A01390196
:1024F0004801DC01ED91FC910680F781E02D1995F2
:10250000E201640C751CD601ED91FC91C615D7054E
:102510005CF40484F585E02D87019401A501BE01DA
:10252000C60119952196EFCF0288F389E02DC601E7
:10253000DF91CF911F910F91FF90EF90DF90CF909F
:10254000BF90AF909F908F907F906F905F904F90D3
:1025500019948F929F92AF92BF92CF92DF92EF9297
:10256000FF920F931F93CF93DF93EC015B014A011E
:102570006901E881F9810680F781E02D19959501BF
:102580002C0D3D1D21503109E881F9810088F18928
:10259000E02D78018401A401B501CE011995E881EF
:1025A000F9810288F389E02DCE01DF91CF911F914F
:1025B0000F91FF90EF90DF90CF90BF90AF909F90E2
:1025C0008F9019948F929F92AF92BF92CF92DF9289
:1025D000EF92FF920F931F93CF93DF93EC015B0178
:1025E0004A0169017801E881F9810680F781E02DCF
:1025F0001995C80CD91C860101501109E881F9818F
:102600000088F189E02D9501A401B501CE0119954D
:10261000E881F9810288F389E02DCE01DF91CF9125
:102620001F910F91FF90EF90DF90CF90BF90AF90F0
:102630009F908F901994FC0181A187FF0CC08CB5ED
:102640008C7F8CBD8DB581608DBD8CB58F7D8CBD33
:102650008CB5837F8CBDA4A5B5A59C9181A98095DF
:1026600089238C930895FC0181A187FF05C06EBD6D
:102670000DB407FEFDCF089528E030E090E8A4A156
:10268000B5A186A5462F492319F04C91842B03C090
:102690004C91809584238C93A0A5B1A54C9180A9E1
:1026A000809584238C93A0A5B1A54C9180A9842BFF
:1026B0008C9396952150310911F70895CF93DF93AC
:1026C000EC01EAA5FBA590818AA9809589238083E6
:1026D000CE010E943313EAA5FBA590818AA9892B1C
:1026E0008083DF91CF9108958F929F92AF92BF9296
:1026F000CF92DF92EF92FF920F931F93CF93DF93CE
:10270000EC01490181E0881A9108860E971EC401E8
:10271000A0E0B0E04B01A12CB12C540199248824F5
:10272000882A992AAA2ABB2A680181E0C81AD108F6
:10273000C40ED51EC601A0E0B0E06A01E12CF12C68
:102740007601DD24CC24C82AD92AEA2AFB2A6AE2A7
:10275000CE010E945E1329A16B2D77278827992728
:1027600027FF18C06EBD0DB407FEFDCFC501AA2717
:10277000BB278EBD0DB407FEFDCFBB27AB2D9A2D19
:10278000892D8EBD0DB407FEFDCF8EBC0DB407FEA6
:10279000FDCF14C0CE010E943313B50188279927BD
:1027A000CE010E94331399278B2D7A2D692DCE01EE
:1027B0000E943313682DCE010E9433136BE2CE01C9
:1027C0000E945E1329A16F2D77278827992727FF5D
:1027D00018C06EBD0DB407FEFDCFC701AA27BB27E9
:1027E0008EBD0DB407FEFDCFBB27AF2D9E2D8D2DC9
:1027F0008EBD0DB407FEFDCFCEBC0DB407FEFDCFE0
:1028000014C0CE010E943313B70188279927CE0147
:102810000E94331399278F2D7E2D6D2DCE010E949E
:1028200033136C2DCE010E9433136CE2CE01DF9185
:10283000CF911F910F91FF90EF90DF90CF90BF90BD
:10284000AF909F908F900C945E134F925F926F9217
:102850007F928F929F92AF92BF92CF92DF92EF9230
:10286000FF920F931F93CF93DF935C01FB01E9016C
:102870004701DC0118962D913C9119976217730757
:102880000CF063C01A968D919C911B9748175907BD
:102890000CF05BC06B01CC0EDD1ED60111977A01E6
:1028A000E00EF11EB70161507109B7FD4EC077FD12
:1028B0004CC0F7FF03C0E601E0E0F0E057FF03C0C3
:1028C000870140E050E0A217B3071CF0E901CE1BDE
:1028D000DF0B681779071CF08C01041B150B9E0198
:1028E000D8010E944D356B017C01BF01C5010E94DA
:1028F000741326013701F50181A187FF13C041142C
:1029000051046104710409F19EBC0DB407FEFDCFB2
:102910008EBC0DB407FEFDCFF1E04F1A51086108DF
:102920007108EDCF411451046104710471F0692DF7
:10293000C5010E943313682DC5010E94331381E045
:10294000481A510861087108EDCFDF91CF911F91AE
:102950000F91FF90EF90DF90CF90BF90AF909F903E
:102960008F907F906F905F904F900895EF92FF92BD
:102970000F931F93CF93DF93EC0177FD2FC08885D2
:1029800099856817790754F557FD28C08A859B8576
:10299000481759071CF5E32EF22E01E010E021E064
:1029A00030E0CE010E94741389A187FF09C0EEBCFC
:1029B0000DB407FEFDCFFEBC0DB407FEFDCF0EC06B
:1029C0006E2DCE010E9433136F2DCE01DF91CF917A
:1029D0001F910F91FF90EF900C943313DF91CF91E3
:1029E0001F910F91FF90EF9008951F93CF93DF9366
:1029F000EC01162FE881F9810680F781E02D199509
:102A0000111102C060E201C061E2CE010E945E13BA
:102A1000E881F9810288F389E02DCE01DF91CF9121
:102A20001F9119941F93CF93DF93EC0163706D8B0B
:102A30006230C1F0633001F1613051F080EF90E01D
:102A40009987888780E491E09B878A8718E41DC076
:102A500080E491E09987888780EF90E09B878A8760
:102A600018E213C080EF90E09987888780E491E0B6
:102A70009B878A8718E809C080E491E09987888756
:102A800080EF90E09B878A8718EEE881F9810680C5
:102A9000F781E02DCE01199566E3CE010E945E1309
:102AA000612FCE010E943313E881F9810288F389F6
:102AB000E02DCE01DF91CF911F9119942F923F927B
:102AC0004F925F926F927F928F929F92AF92BF923E
:102AD000CF92DF92EF92FF920F931F93CF93DF93EA
:102AE000CDB7DEB7C959D1090FB6F894DEBF0FBE16
:102AF000CDBFCE56DF4F99838883C259D0405B014A
:102B0000CA56DF4F59834883C659D0402901C2575E
:102B1000DF4F19830883CE58D04037010DB71EB759
:102B2000C856DF4F19830883C859D040E7961FAEB7
:102B30001EAEE79788EE93E0A0E0B0E0EB968CAF96
:102B40009DAFAEAFBFAFEB9786E192E0E5969FAF4A
:102B50008EAFE597C457DF4F19821882CC58D0400A
:102B6000C158DF4F1882CF57D0408090000290901C
:102B700001028E01025E1F4F6DE578E1C8010E94DF
:102B8000480A1C821B8286E292E09A8389831E8215
:102B900074019E012F5F3F4F6901302E212E6FE29D
:102BA00070E0C7010E94AF32009709F443C0D7011B
:102BB0002C912F3221F4BFEFEB1AFB0AF0CF8E19C4
:102BC0008D3008F08CE0082F10E0A801B701CE018D
:102BD000885A9F4F0E94BA32E8E5F0E0EC0FFD1FE3
:102BE000E00FF11F1082C6010E944307F6018581A4
:102BF000882351F01EAE1DAE86E292E09CAF8BAFF3
:102C000021961FAE219725C0AE01485A5F4F632D14
:102C1000722DC6010E94E61C882361F3E00EF11EAE
:102C2000832D922D0E944307C1013C2C2D2CC92ECF
:102C3000D82EB5CF870108191909C057DF4F19835E
:102C40000883C059D040632D722DCE01CB960E94CF
:102C5000480AC057DF4F28813981C059D040820EC1
:102C6000931ED4018C9181110AC0BE01655C7F4F17
:102C7000CE0101960E94480A4CE053E04AC019A2D6
:102C800018A286E292E09F8F8E8F1BA221968FADB5
:102C9000219781111CC06C961FAE1EAE6C9788EEFA
:102CA00093E0A0E0B0E0A0968CAF9DAFAEAFBFAF19
:102CB000A09786E192E06A969FAF8EAF6A97E396FF
:102CC0001FAE1EAEE397A5961FAEA5972AC08250F1
:102CD000A401823048F46DE578E1CE014E960E9461
:102CE000E61C81110EC0D7CFBE01655C7F4FCE01BF
:102CF0004E960E94E61C882371F2CE01CB960E946C
:102D00004307BE01625E7F4FCE0101960E94480AD2
:102D1000A401BE016F5F7F4FCE01885A9F4F0E9472
:102D2000F61B6C968EAD9FAD6C97E7969FAF8EAFFE
:102D3000E797A0968CAD9DADAEADBFADA097EB96DD
:102D40008CAF9DAFAEAFBFAFEB97A4968CAD9DADF2
:102D5000AEADBFADA497EF968CAF9DAFAEAFBFAF9A
:102D6000EF97A8E5B0E0AC0FBD1F1C96E3E7F0E0DD
:102D7000EC0FFD1F3C9683E790E08C0F9D1F49965A
:102D80002D912193E817F907D9F7E396EEADFFAD42
:102D9000E397C457DF4FF983E883CC58D04030978E
:102DA00019F08581811118C06EE073E08CE99AE119
:102DB0000E94760C60910002709101028CE99AE108
:102DC0000E94760C67E28CE99AE10E9466048CE925
:102DD0009AE10E94D01BF1C0C257DF4F2880398092
:102DE000CE58D040220C331C4501A12CB12CF3014C
:102DF000E40DF51DC057DF4FF983E883C059D0407B
:102E0000CE56DF4F28813981C259D040890120E058
:102E100030E0CE56DF4F088319832A833B83C259A3
:102E2000D040C057DF4F88819981C059D040841568
:102E3000950509F4B3C06DB67EB6ADB7BEB7A2199D
:102E4000B3090FB6F894BEBF0FBEADBFEDB7FEB766
:102E500031966F01A0910202B0910302A501940185
:102E60000E943D31CE56DF4F088119812A813B8176
:102E7000C259D040060F171F281F391FB901A801DA
:102E8000440F551F661F771FC457DF4F08811981F4
:102E9000CC58D0400115110549F0C8010E94A70582
:102EA000A101B601C8010E943E0602C080E090E088
:102EB00028163906A9F06FE173E08CE99AE10E94C7
:102EC000E41B0115110531F0C8010E944307C80138
:102ED0000E9419320FB6F8947EBE0FBE6DBE6DC053
:102EE0008AEC9AE10E941B1301E010E0C257DF4F09
:102EF00028813981CE58D040A201CA56DF4F68815F
:102F00007981C659D0408AEC9AE10E947413E12C71
:102F1000F12CC257DF4F28813981CE58D0402E1571
:102F20003F0551F1D6010D911D916D01102701272B
:102F300010278AEC9AE10E941B138091EB1A87FFFD
:102F400009C01EBD0DB407FEFDCF0EBD0DB407FEBA
:102F5000FDCF0AC0612F8AEC9AE10E943313602FE3
:102F60008AEC9AE10E9433138AEC9AE10E94841061
:102F7000BFEFEB1AFB0ACDCF8AEC9AE10E948410D6
:102F80000FB6F8947EBE0FBE6DBEEFEF4E1A5E0A0E
:102F9000FFEF8F1A9F0AAF0ABF0A43CFC457DF4F14
:102FA00008811981CC58D0400115110531F0C801B4
:102FB0000E944307C8010E941932C856DF4F08819A
:102FC0001981C859D0400FB6F8941EBF0FBE0DBF6F
:102FD000C756DF4F0FB6F894DEBF0FBECDBFDF91EF
:102FE000CF911F910F91FF90EF90DF90CF90BF9006
:102FF000AF909F908F907F906F905F904F903F9099
:103000002F9008958F929F92AF92BF92CF92DF92AE
:10301000EF92FF920F931F93CF93DF936C01EB011D
:103020004B0177FF03C087E0880E911C23E0959445
:1030300087942A95E1F7092C000CAA08BB0889E0BF
:10304000980E8DE3A81EB11C80912E1490912F1420
:10305000A0913014B091311488169906AA06BB06C7
:10306000F9F092E3E92E94E1F92E00E012E020E07D
:1030700030E0B501A4018EEB9AE10E943623811164
:1030800007C063E373E08CE99AE10E94760CE9CF14
:1030900080922E1490922F14A0923014B09231147A
:1030A000CE0168E070E00E943135FC0186E0EE0F51
:1030B000FF1F8A95E1F7EE5CFB4E80E4D60101909C
:1030C0000D928A95E1F7DF91CF911F910F91FF90BB
:1030D000EF90DF90CF90BF90AF909F908F9008952A
:1030E0004F925F926F927F928F929F92AF92BF9218
:1030F000CF92DF92EF92FF920F931F93CF93DF93C4
:10310000CDB7DEB7A1970FB6F894DEBF0FBECDBF27
:103110005C016B01770FEE08FF08F7FE3CC0DC0195
:10312000ED91FC910190F081E02D6DE219958C01FB
:10313000F094E094D094C094C11CD11CE11CF11C0B
:1031400019A2FE01B1964F013AE0432E512C612C99
:10315000712CC701B601A30192010E9450318C2D40
:10316000FAE02F9F8019112491E0891A91088A3082
:1031700014F4805D01C0895CD4018C9369017A01EB
:10318000232B242B252B29F7B401C5010E94610CA8
:10319000800F911F2AC09C2C7D2DC70119A28E0182
:1031A0000F5D1F4F2AE0C22ED12CE12CF12C692D8E
:1031B000A70196010E945031692DBAE02B9F60193A
:1031C0001124015011096A3014F4605D01C0695C7A
:1031D000F8016083922E732FCA01232B242B252BF9
:1031E00031F7B801C5010E94610CA1960FB6F894A1
:1031F000DEBF0FBECDBFDF91CF911F910F91FF902A
:10320000EF90DF90CF90BF90AF909F908F907F9086
:103210006F905F904F9008952F923F924F925F92E0
:103220006F927F928F929F92AF92BF92CF92DF92D6
:10323000EF92FF920F931F93CF93DF9300D000D0B4
:10324000CDB7DEB73C015B018AEC9AE10E941B130B
:10325000A30144515109850129E230E068E271E09F
:103260008AEC9AE10E947010E12CF12CCC24C394DA
:10327000D12C44E150E05E834D8328ED222E33248F
:103280003A943DEE832E99249A944FEFE41AF40A6F
:1032900052E0C50ED11C8C0C9D1C4D805E80440CF0
:1032A000551C8FEF481A580AB701685D7E4F85019B
:1032B0009201A3018D819E81481B590B5A8349833A
:1032C0008AEC9AE10E947010A3014E195F095C8399
:1032D0004B8396016D817E81685D7E4F8AEC9AE119
:1032E0000E94701068E271E06E197F0992014981B5
:1032F0005A818AEC9AE10E94701096014B815C81A0
:1033000068E271E08D819E81681B790B8AEC9AE1FD
:103310000E9470104D815E81E416F5066CF497FCF6
:10332000B4CF8D819E8101979E838D8392E0290E7B
:10333000311C820C931CA9CF8AEC9AE126960FB619
:10334000F894DEBF0FBECDBFDF91CF911F910F91DB
:10335000FF90EF90DF90CF90BF90AF909F908F90B5
:103360007F906F905F904F903F902F900C948410BF
:103370008F929F92AF92BF92EF92FF920F931F9303
:10338000CF93DF93EC011B8619861E821D8286E097
:103390008C830E947A0D7B0161E08C810E94180D64
:1033A000CE010E94992260E082E30E94180D61E044
:1033B00083E30E94180D61E084E30E94180D61E030
:1033C00085E30E94180D61E085E30E94E90C83E526
:1033D0008CBD8DB58E7F8DBD1AE08FEF0E94BD2212
:1033E0001150D9F760E08C810E94E90C20E030E0B8
:1033F000A90160E0CE010E94E222182F8A87813065
:1034000049F00E947A0D6E197F09613D774070F393
:1034100081E04AC02AEA31E040E050E068E0CE01B5
:103420000E94E22282FF02C01B870CC004E00E94BF
:10343000C2228A870150D9F78A3A11F082E034C05B
:1034400082E08B878B85823021F0812C912C540176
:1034500005C0812C912CA12C80E4B82E20E030E016
:10346000A90167E3CE010E94E222A501940169E26D
:10347000CE010E94E2228A87882349F00E947A0DB9
:103480006E197F09613D774048F388E00DC08B8558
:103490008230E9F420E030E0A9016AE3CE010E9425
:1034A000E222882339F086E08D83CE010E949922A2
:1034B00010E018C00E94C222807C803C11F483E09E
:1034C0008B870E94C2220E94C2220E94C222CE0189
:1034D0000E9499228DB58E7F8DBD8CB58C7F8CBD61
:1034E0008CB58CBD812FDF91CF911F910F91FF90F3
:1034F000EF90BF90AF909F908F9008958F929F9282
:10350000AF92BF92CF92DF92EF92FF92CF93DF9371
:10351000C82F83E398E190932D1480932C14CC232F
:1035200069F1C53010F080E00CC140E060E070E06F
:10353000CB010E9489248823B1F320E1C29FC001FE
:1035400011248D5D994EFC01E254FE4F20812F77AE
:1035500051F73C9640815181628173814436510517
:103560006105710500F33497C080D180E280F3805B
:10357000C114D104E104F10421F4D5CFC12CD12C24
:10358000760140E0C701B6010E948924882359F2E0
:1035900080913E1690913F168115924021F6A091A0
:1035A0004316AA2309F4BFCF6091411670914216C9
:1035B0006115710509F4B7CF20914016222309F453
:1035C000B2CFA09351182093431880E030E041E03F
:1035D00050E0C82FFA01082E02C0EE0FFF1F0A9418
:1035E000E2F72E173F0739F08F5FC83091F789E077
:1035F00080934C1898CF80934C18209149163091A5
:103600004A162115310519F040E050E008C020911C
:103610005716309158164091591650915A162093CA
:103620004418309345184093461850934718460164
:103630005701860E971EA11CB11C809252189092C1
:103640005318A0925418B0925518E0914416F09176
:103650004516F0935818E0935718B0E00E943D319A
:10366000860E971EA81EB91E8092591890925A185D
:10367000A0925B18B0925C1885E0EE0FFF1F8A9550
:10368000E1F7E150FE4FEF2FFF27E6958E0E9F1ECC
:10369000A11CB11C80924D1890924E18A0924F1808
:1036A000B0925018209146163091471621153105D9
:1036B00021F0A90160E070E008C0409153165091DC
:1036C00054166091551670915616D701C601881987
:1036D0009909AA09BB09840F951FA61FB71F04C02B
:1036E000B695A79597958795CA95D2F78093481870
:1036F00090934918A0934A18B0934B18853F2FE038
:103700009207A105B10510F48CE018C0853F9F4FCA
:10371000A105B10510F480E111C080915F16909170
:103720006016A0916116B09162168093591890931B
:103730005A18A0935B18B0935C1880E280935618D7
:1037400081E0DF91CF91FF90EF90DF90CF90BF901D
:10375000AF909F908F900895CF93DF93ECEFF6E0BA
:103760008491E2E5F7E0D491E2EBF7E0C491CC2359
:1037700091F081110E94970CEC2FF0E0EE0FFF1FEB
:10378000E052F94FA591B491EC91ED2381E090E0E6
:1037900021F480E002C080E090E0DF91CF910895B5
:1037A0000F931F93CF93DF93EC016DE00E946604AB
:1037B0008C016AE0CE010E946604800F911FDF91A8
:1037C000CF911F910F9108950F931F93CF93DF9384
:1037D000EC010E94610C8C01CE010E94D01B800F75
:1037E000911FDF91CF911F910F910895EF92FF925A
:1037F0000F931F93CF93DF93EC017B018A011B8210
:103800001A8288EE93E0A0E0B0E08C839D83AE83C3
:10381000BF8386E192E0998388838DE190E00E94E6
:1038200081319A8F898F009779F02DE1F701DC01C2
:1038300001900D922A95E1F74CE050E0B801CE01DD
:103840000C960E94BA32188EDF91CF911F910F9182
:10385000FF90EF9008954F925F926F927F92AF9298
:10386000BF92CF92DF92EF92FF920F931F93CF936D
:10387000DF9300D01F92CDB7DEB78C0149835A8306
:103880006B837C835901C12CD12C7601412C82E0C1
:10389000582E612C712C49815A816B817C819E014B
:1038A0002F5F3F4FC8010E947325882351F1D30138
:1038B000C201F801058404C0880F991FAA1FBB1F0D
:1038C0000A94D2F7C80ED91EEA1EFB1E49815A81FE
:1038D0006B817C818789803129F088EF9FEFAFEF82
:1038E000BFE004C088EF9FEFA0E0B0E048175907A1
:1038F0006A077B0780F2F501C082D182E282F382FF
:1039000081E00F900F900F900F90DF91CF911F915A
:103910000F91FF90EF90DF90CF90BF90AF907F908E
:103920006F905F904F900895CF93DF93EC0180E20A
:10393000689FF0011124ED5CF94E6A8B80910602BC
:1039400090910702A0910802B09109028E879F878B
:10395000A88BB98B4489558960E070E0BA0155277E
:103960004427828D938DA0E0B0E0482B592B6A2B21
:103970007B2B4F8B588F698F7A8F8385887151F499
:10398000848D958DA68DB78D8B8B9C8BAD8BBE8BCF
:1039900081E00EC0803111F080E015C09E012D5EE7
:1039A0003F4F8B8D9C8D0E942B1C8823A9F384E0B4
:1039B0008D8381E08C831E821F82188619861A8669
:1039C0001B861C861D86DF91CF910895AF92BF9212
:1039D000CF92DF92EF92FF920F931F93CF93DF93DB
:1039E000CDB7DEB72B970FB6F894DEBF0FBECDBFB5
:1039F0006C01FE013196CE010C967F0120E22193ED
:103A0000E817F907E1F7DA0120E037E09D91992303
:103A100031F19E3231F43A3009F4AAC028E03AE09C
:103A2000F5CFE0E4F7E08491882321F031969813F4
:103A3000FACF9EC0321708F49BC08FED890F8E35E8
:103A400008F096C081E0820FF701E20FF11D2FE927
:103A5000290F2A3108F490529083282FD7CF8981DB
:103A6000803209F485C08B01FB01838D948DF601B2
:103A7000948F838FFB01168217821086118612861F
:103A8000138614861586B12CF80182859385A4854A
:103A9000B585438954896589768984179507A60772
:103AA000B70708F065C025E0B695A7959795879567
:103AB0002A95D1F7F82FFF70AF2EF801858182305B
:103AC00008F456C0C8010E94FD0997FD51C0F801D5
:103AD00082859385A485B5854F96A11DB11D8287EA
:103AE0009387A487B587F0E2AF9EB00111246D5C87
:103AF000794E61157105E1F1FB0180818823F1F0B8
:103B0000853E99F14BE050E0C7010E94A232892B1B
:103B100009F0BACF6A2DC6012B960FB6F894DEBF16
:103B20000FBECDBFDF91CF911F910F91FF90EF900E
:103B3000DF90CF90BF90AF900C94941CB11018C040
:103B4000F601A28A8091060290910702A0910802D4
:103B5000B091090286879787A08BB18BFB0180818A
:103B6000882331F0BB24B3948FCFB110FBCFE8CFC3
:103B700080E02B960FB6F894DEBF0FBECDBFDF916D
:103B8000CF911F910F91FF90EF90DF90CF90BF905A
:103B9000AF900895CF92DF92EF92FF920F931F9311
:103BA000FC010081118122813381FB01C080D18021
:103BB000E280F380FC01C082D182E282F382FB01C9
:103BC00000831183228333831F910F91FF90EF9025
:103BD000DF90CF900895CF93DF931092DD1A10926B
:103BE000DC1A1092DB1A1092DA1A84E08093DE1A43
:103BF00080911E1490911F148330910509F4CEC05A
:103C00000CF04EC08130910509F4F9C0029709F01B
:103C100068C160EE7FEF8AE190E00E940C19CEE16E
:103C2000D1E0D093D71AC093D61A8BE090E090934E
:103C3000D91A8093D81A65E070E08AEC9AE10E9464
:103C4000701860EE7FEF88E490E00E940C19D0932A
:103C5000D71AC093D61A89E390E09093D91A80932B
:103C6000D81A64E070E08AEC9AE10E94701860EE65
:103C70007FEF86E790E00E940C19D093D71AC0938B
:103C8000D61A87E690E09093D91A8093D81A63E009
:103C900070E08AEC9AE10E94701860EE7FEF67C0D6
:103CA00084309105F1F0059709F01BC160EE7FEFBC
:103CB0008AE190E00E940C19CEE1D1E0D093D71AAE
:103CC000C093D61A8BE090E09093D91A8093D81ABB
:103CD00065E070E08AEC9AE10E9470186FEF7FEF68
:103CE0001AC060EE7FEF8AE190E00E940C19CEE1ED
:103CF000D1E0D093D71AC093D61A8BE090E090937E
:103D0000D91A8093D81A65E070E08AEC9AE10E9493
:103D1000701860EE7FEF88E490E00E940C19D09359
:103D2000D71AC093D61A89E390E09093D91A80935A
:103D3000D81A64E070E08AEC9AE10E9470186FEF84
:103D40007FEF86E790E00E940C19D093D71AC093BA
:103D5000D61A87E690E09093D91A8093D81A63E038
:103D600070E08AEC9AE10E9470186FEF7FEF84EAAE
:103D700090E00E940C19D093D71AC093D61A85E907
:103D800090E09093D91A8093D81A62E070E08AECA0
:103D90009AE10E9470186FEF7FEF8DC060EE7FEFA9
:103DA0008AE190E00E940C19CEE1D1E0D093D71ABD
:103DB000C093D61A8BE090E09093D91A8093D81ACA
:103DC00065E070E08AEC9AE10E94701860EE7FEF87
:103DD00088E490E00E940C19D093D71AC093D61AA9
:103DE00089E390E09093D91A8093D81A64E070E048
:103DF0008AEC9AE10E94701860EE7FEFA2CF60EE2D
:103E00007FEF8AE190E00E940C19CEE1D1E0D093DF
:103E1000D71AC093D61A8BE090E09093D91A80936A
:103E2000D81A65E070E08AEC9AE10E94701860EEA2
:103E30007FEF88E490E00E940C19D093D71AC093CA
:103E4000D61A89E390E09093D91A8093D81A64E047
:103E500070E08AEC9AE10E94701860EE7FEF86E7CE
:103E600090E00E940C19D093D71AC093D61A87E617
:103E700090E09093D91A8093D81A63E070E08AECAE
:103E80009AE10E94701860EE7FEF84EA90E00E9451
:103E90000C19D093D71AC093D61A85E990E0909365
:103EA000D91A8093D81A62E070E08AEC9AE10E94F5
:103EB000701860EE7FEF82ED90E00E940C19D093B5
:103EC000D71AC093D61A83EC90E09093D91A8093B6
:103ED000D81A61E070E08AEC9AE1DF91CF910C94FE
:103EE0007018DF91CF9108958F929F92AF92BF92F9
:103EF000CF92DF92EF92FF920F931F93CF93DF93B6
:103F0000CDB7DEB7C054D1090FB6F894DEBF0FBEEF
:103F1000CDBF6C0160E070E08AEC9AE10E9447122C
:103F20001092D71A1092D61A1092D91A1092D81A43
:103F30001092E01A4601880C991C880C991C760195
:103F400000E010E0AA24AA94BA2C80915E0390911C
:103F50005F038C0D9D1DE816F90634F5F801E80D98
:103F6000F91DE059FC4F60817181CE0101960E94DC
:103F70000218B092DB1AA092DA1A1092DD1A10928F
:103F8000DC1ABE01665F7F4F8AEC9AE10E94760CD4
:103F90006BE573E08AEC9AE10E94760C8FEFE81AE9
:103FA000F80A0C5F1F4FD1CF6BE573E08AEC9AE102
:103FB0000E94760CC05CDF4F0FB6F894DEBF0FBED8
:103FC000CDBFDF91CF911F910F91FF90EF90DF90C8
:103FD000CF90BF90AF909F908F9008958F929F92B7
:103FE000AF92BF92CF92DF92EF92FF920F931F9307
:103FF000CF93DF93CDB7DEB7C054D1090FB6F89495
:10400000DEBF0FBECDBF8C0160E070E08AEC9AE1AC
:104010000E9447121092D71A1092D61A1092D91AEB
:104020001092D81A1092E01A5801AA0CBB1CAA0CC4
:10403000BB1CE12CF12C48018DE1880E911CCC2495
:10404000CA94DC2C8016910634F1F701EA0DFB1DB1
:10405000E059FC4F60817181CE0101960E940218E7
:10406000D092DB1AC092DA1A1092DD1A1092DC1A82
:10407000BE01665F7F4F8AEC9AE10E94760C6BE589
:1040800073E08AEC9AE10E94760C0F5F1F4F84E088
:10409000E80EF11CD7CF6BE573E08AEC9AE10E9441
:1040A000760CC05CDF4F0FB6F894DEBF0FBECDBFFD
:1040B000DF91CF911F910F91FF90EF90DF90CF9004
:1040C000BF90AF909F908F9008950F931F93CF93C1
:1040D000DF93CDB7DEB7C054D1090FB6F894DEBF79
:1040E0000FBECDBF8C0181E08093DE1AE0911814E1
:1040F000F0911914E00FF11FEE0FFF1FEE0FFF1FDD
:10410000E059FC4F60817181CE0101960E94021836
:1041100080911A1490911B140817190759F08FEF0A
:104120009FEF9093DB1A8093DA1A1092DD1A1092A7
:10413000DC1A0AC01092DB1A1092DA1A8FEF9FEF86
:104140009093DD1A8093DC1A1092D71A1092D61A27
:1041500083E0000F111F8A95E1F71093D91A00939D
:10416000D81ABE01665F7F4F8AEC9AE10E94760CF6
:10417000C05CDF4F0FB6F894DEBF0FBECDBFDF913E
:10418000CF911F910F910895EF92FF920F931F937C
:10419000E0E6F3E082819381A081B1819C0124500B
:1041A0003109AD014450510966817781680F791F4B
:1041B00064507109848195818A0F9B1FE9E0EE2E7E
:1041C000F12C09E010E004970E945E15E8E6F3E0A8
:1041D0004281538144505109608171816450710959
:1041E000E12CF8EFFF2E29E030E08AEC9AE10E9402
:1041F000A10F1F910F91FF90EF900895EF92FF9202
:104200000F931F93E12CF12C00EF10E020E330E03E
:1042100040E050E060E171E08AEC9AE10E94A10F79
:10422000E8E6F3E06681778180EFE82EF12C00E18B
:1042300011E020E030E040E050E0848195810E9470
:104240005E150E94C42010921D1410921C141F9120
:104250000F91FF90EF900895AF92BF92CF92DF92AF
:10426000EF92FF920F931F93CF93DF93EC018B019B
:10427000023011050CF460C0580182E0A81AB108A0
:104280006801E1E0CE1AE0ECDE0ACC0CDD1CCC0CBF
:10429000DD1CCC0EDD1EC80195958795880F991FF2
:1042A000880F991FB6018C0F9D1F0E94CA1DE12C1B
:1042B000F12CC701880F991F880F991F8C0F9D1F24
:1042C000F60122813381FC01428153812417350795
:1042D000F8F0FFEFEF1AFF0AAE14BF0454F75701CE
:1042E000AA0CBB1CAA0CBB1CB601CE018A0D9B1DDF
:1042F0000E94CA1DB701CE010E942C210150110954
:104300000E191F0984E0A80EB11CCA0DDB1DB0CF29
:10431000B501660F771F660F771F6C0F7D1FFB01BE
:10432000428153812417350720F4F1E0AF1AB10818
:10433000D3CF0E94CA1DD0CFDF91CF911F910F9193
:10434000FF90EF90DF90CF90BF90AF9008950895C9
:10435000EF92FF920F931F93DC01ED91FC91048C7F
:10436000F58DE02D19951F910F91FF90EF90089515
:104370000F931F93DC01ED91FC91028CF38DE02DE6
:1043800019951F910F9108950F931F93DC01ED91E3
:10439000FC91008CF18DE02D19951F910F910895DE
:1043A000DC01ED91FC910480F581E02D19942F92B0
:1043B0003F924F925F926F927F928F929F92AF92B5
:1043C000BF92CF92DF92EF92FF920F931F93CF9302
:1043D000DF9300D000D0CDB7DEB72C017E836D8394
:1043E0006A015901C801FC82EB824801841A950ACE
:1043F00097FE03C091948194910835012D813E81EF
:10440000621A730A77FE03C071946194710868148C
:1044100079045CF43A2D2B2D5C01832F922F3D8182
:104420002E81DE82CD82C32ED22EAD81BE81AA1610
:10443000BB065CF43C2D2D2D6C01832F922F3D810A
:104440002E81BE82AD82A32EB22E85012D813E81AA
:10445000021B130B1C012C183D0837FE03C03194BE
:1044600021943108780117FF03C03FEFE31AF30AE4
:10447000F594E794C816D9062CF08FEF9FEF9A8336
:10448000898304C0A1E0B0E0BA83A9832D813E8175
:10449000A216B30624F1D201ED91FC910084F185BE
:1044A000E02D2B813C816814790424F44D815E81D8
:1044B000B60103C0A6016D817E81C2011995E21883
:1044C000F308F7FE06C029813A81C20ED31EE00E22
:1044D000F11E8D819E8101969E838D83D7CF269676
:1044E0000FB6F894DEBF0FBECDBFDF91CF911F9105
:1044F0000F91FF90EF90DF90CF90BF90AF909F9083
:104500008F907F906F905F904F903F902F90089585
:10451000CF93DF931F92CDB7DEB7698341E050E0C0
:10452000BE016F5F7F4F0E9452080F90DF91CF91C5
:10453000089561E0FC0184810C94E90CCF93DF9332
:10454000EC018FEF8EBD2FEF8F819885AC014F5F0F
:104550005F4F58874F838130924028F40DB407FE97
:10456000FDCF2EBDF1CF0DB407FEFDCFCE010E94D1
:1045700099221E82DF91CF9108958EBD0DB407FE62
:10458000FDCF08958FEF0E94BD228EB508950F9341
:104590001F93CF93DF93EB010E947A0D8B010E9452
:1045A000C2228F3F49F00E947A0D601B710B6C177D
:1045B0007D07A8F380E001C081E0DF91CF911F91DA
:1045C0000F9108958F929F92AF92BF92FF920F9397
:1045D0001F93CF93DF93EC01F62E49015A018E8190
:1045E000882319F0CE010E949E2260E08C810E94F7
:1045F000E90C6CE271E0CE010E94C7228F2D80642D
:104600000E94BD2208E110E0D501C401002E04C0C3
:10461000B695A795979587950A94D2F70E94BD22E3
:1046200008501109083F8FEF180771F7FF2029F094
:1046300088E0F81204C087E803C085E901C08FEF65
:104640000E94BD2210E00E94C2228A8787FF04C018
:104650001F3F11F01F5FF7CFDF91CF911F910F9197
:10466000FF90BF90AF909F908F900895AF92BF92B0
:10467000CF92DF92EF92FF920F931F93CF93DF932E
:10468000EC016901C801820F931F8130924008F04C
:1046900085C08E81882371F088819981AA81BB8130
:1046A00084179507A607B70729F48F819885C81640
:1046B000D906B0F5488359836A837B838B85833021
:1046C00039F089E0440F551F661F771F8A95D1F78F
:1046D0009A01AB0161E1CE010E94E222882319F028
:1046E00083E08D835BC00E947A0D5B010E94C22231
:1046F0008A878F3F49F40E947A0D6A197B096D32CF
:104700007140A0F38FE003C08E3F31F08DE08D83C8
:10471000CE010E94992242C018861F8281E08E83BA
:104720008FEF8EBD2FEF8F8198858C159D0550F4EE
:104730000DB407FEFDCF2EBD8F8198850196988719
:104740008F83F1CFC8010197F7012FEFAF014E1909
:104750005F094817590738F40DB407FEFDCF3EB581
:1047600031932EBDF3CF0DB407FEFDCF2EB5F7016B
:10477000E80FF91F20838F819885080F191F18876C
:104780000F838985882319F00115124060F08E810E
:10479000882349F0CE010E949E2205C0CE010E94CE
:1047A000992280E001C081E0DF91CF911F910F91AC
:1047B000FF90EF90DF90CF90BF90AF9008950F9350
:1047C0001F93CF93DF93EC018901411551056105DA
:1047D000710511F482E144C08B85833039F089E0A2
:1047E000440F551F661F771F8A95D1F79A01AB01B9
:1047F00068E1CE010E94E222882311F084E030C0FB
:104800008EEF8EBDF801C8019E5F0DB407FEFDCF8F
:1048100020812EBD0DB407FEFDCF21812EBD329625
:104820008E179F0791F70DB407FEFDCF8FEF0E9403
:10483000BD228FEF0E94BD220E94C2228A878F7103
:10484000853031F081E18D83CE010E94992209C02B
:1048500068E572E0CE010E94C722811107C085E1A0
:104860008D83CE010E94992280E013C020E030E0C9
:10487000A9016DE0CE010E94E222811104C00E94D4
:10488000C222882311F084E1EBCFCE010E9499224D
:1048900081E0DF91CF911F910F91089580913216A1
:1048A0008823A9F140910602509107026091080205
:1048B0007091090223E336E180912C1490912D141C
:1048C0000E94DF23811102C080E008954091771B90
:1048D0005091781B6091791B70917A1B411551059D
:1048E0006105710591F023E336E180912C149091DC
:1048F0002D140E94DF23882339F31092771B109226
:10490000781B1092791B10927A1B1092321681E05C
:1049100008958F929F92AF92BF92EF92FF920F9362
:104920001F93CF934B015C01C42F8091060290919D
:104930000702A0910802B091090288159905AA05FD
:10494000BB0501F10E944E24811102C080E020C00D
:1049500083E3E82E86E1F82E00E012E020E030E06C
:10496000B501A40180912C1490912D140E9436233E
:10497000882361F38092060290920702A0920802B7
:10498000B092090280913216C82BC093321681E092
:10499000CF911F910F91FF90EF90BF90AF909F909C
:1049A0008F9008954F925F926F927F928F929F9215
:1049B000AF92BF92CF92DF92EF92FF920F931F932D
:1049C000CF93DF93EC01423051056105710510F47E
:1049D00080E078C089859A85AB85BC850196A11D4C
:1049E000B11D84179507A607B70790F3CB88DC881D
:1049F000ED88FE888F89803129F4BB27A72F962F59
:104A0000852F09C0DB01CA01E7E0B695A795979508
:104A10008795EA95D1F7480159012A013B01C80E53
:104A2000D91EEA1EFB1E8091060290910702A091FA
:104A30000802B0910902C816D906EA06FB0681F4FD
:104A40008F898031A9F4B301A20155276627772702
:104A5000440F551FFA01ED5CF94E9182808219C016
:104A600040E0C701B6010E9489248111E9CFB0CF8F
:104A7000B301A2014F77552766277727440F551FAB
:104A8000440F551FFA01ED5CF94E80829182A2829B
:104A9000B382809132168160809332168A89823087
:104AA00080F08D819E81AF81B885C80ED91EEA1E27
:104AB000FB1EC092771BD092781BE092791BF0927C
:104AC0007A1B81E0DF91CF911F910F91FF90EF90C2
:104AD000DF90CF90BF90AF909F908F907F906F901E
:104AE0005F904F9008958F929F92AF92BF92CF9216
:104AF000DF92EF92FF920F931F93CF93DF93FC010E
:104B000081859285A385B4850196A11DB11D841769
:104B10009507A607B70710F480E05BC083889488E8
:104B2000A588B6888789803129F4BB27A72F962FBF
:104B3000852F09C0DB01CA01C7E0B695A7959795F7
:104B40008795CA95D1F7E9016A017B018F01BC0104
:104B5000CD01680D791D8A1D9B1D809006029090E5
:104B60000702A0900802B0900902681579058A052D
:104B70009B0591F4F80187898031A1F4DD24EE24AE
:104B8000FF24C601880F991FFC01ED5CF94E80815E
:104B90009181A0E0B0E018C040E00E94892481111A
:104BA000E9CFBACFE894C7F8DD24EE24FF24C6018C
:104BB000880F991F880F991FFC01ED5CF94E8081C9
:104BC0009181A281B381BF7088839983AA83BB83BB
:104BD00081E0DF91CF911F910F91FF90EF90DF90D7
:104BE000CF90BF90AF909F908F9008951F920F929B
:104BF0000FB60F9211242F933F938F939F93AF93F0
:104C0000BF938091241490912514A0912614B09103
:104C1000271430917B1B23E0230F2D3720F40196BE
:104C2000A11DB11D05C026E8230F0296A11DB11DCF
:104C300020937B1B8093241490932514A093261417
:104C4000B09327148091281490912914A0912A14CC
:104C5000B0912B140196A11DB11D8093281490933F
:104C60002914A0932A14B0932B14BF91AF919F9154
:104C70008F913F912F910F900FBE0F901F9018951D
:104C8000CF93DF93CDB7DEB7C454D1090FB6F894F4
:104C9000DEBF0FBECDBF789484B5826084BD84B57D
:104CA000816084BD85B5826085BD85B5816085BD27
:104CB00080916E00816080936E00109281008091DF
:104CC0008100826080938100809181008160809367
:104CD0008100809180008160809380008091B1008C
:104CE00084608093B1008091B00081608093B000B7
:104CF0008091910082608093910080919100816009
:104D000080939100809190008160809390008091C9
:104D1000A10082608093A1008091A10081608093B6
:104D2000A1008091A00081608093A000809121016A
:104D30008260809321018091210181608093210113
:104D40008091200181608093200180917A008460AD
:104D500080937A0080917A00826080937A008091BB
:104D60007A00816080937A0080917A0080688093D5
:104D70007A001092C10062E082E00E94180DE0917A
:104D8000B01AF091B11A81E090E09C010090BC1A39
:104D900002C0220F331F0A94E2F72083E091AC1A7D
:104DA000F091AD1A1082E091AE1AF091AF1A2FEC8B
:104DB00020831092BD1AE091B21AF091B31A40818B
:104DC0009C010090B81A02C0220F331F0A94E2F728
:104DD000242B2083E091B21AF091B31A40819C01F8
:104DE0000090B91A02C0220F331F0A94E2F7242B55
:104DF0002083E091B21AF091B31A40819C01009097
:104E0000BA1A02C0220F331F0A94E2F7242B208320
:104E1000E091B21AF091B31A20810090BB1A02C03F
:104E2000880F991F0A94E2F780958223808380E09F
:104E300092E1AAE7B0E08093E41A9093E51AA09378
:104E4000E61AB093E71A61E08091E91A0E94180D02
:104E500060E08091E91A0E94E90C61E08091E81A13
:104E60000E94180D61E08091E81A0E94E90C80917F
:104E7000EB1A87FD1FC061E08091EC1A0E94180DAB
:104E800060E08091EC1A0E94E90C61E08091EB1ADD
:104E90000E94180D61E08091EB1A0E94E90C80914C
:104EA000ED1A87FD03C060E00E94180D8091EB1A97
:104EB00087FF16C061E085E30E94E90C61E085E3AD
:104EC0000E94180D8CB580618CBD8CB580648CBD42
:104ED00061E084E30E94180D61E083E30E94180DF5
:104EE0008091EA1A87FD24C061E00E94180D61E0FC
:104EF0008091EA1A0E94E90C64E670E080E090E09C
:104F00000E94540D60E08091EA1A0E94E90C64E668
:104F100070E080E090E00E94540D61E08091EA1A18
:104F20000E94E90C68EC70E080E090E00E94540D73
:104F30008AEC9AE10E941B136FEE8AEC9AE10E94C0
:104F40005E1363E08AEC9AE10E94331360E88AEC16
:104F50009AE10E94331362E08AEC9AE10E943313D3
:104F60006FEC8AEC9AE10E945E1360E08AEC9AE1B1
:104F70000E94331361EC8AEC9AE10E94331360E3E0
:104F80008AEC9AE10E9433136DEE8AEC9AE10E945A
:104F90005E1364E68AEC9AE10E94331363E08AECC4
:104FA0009AE10E94331362E18AEC9AE10E94331382
:104FB00061E88AEC9AE10E94331368EE8AEC9AE188
:104FC0000E945E1365E88AEC9AE10E94331360E068
:104FD0008AEC9AE10E94331368E78AEC9AE10E9416
:104FE00033136BEC8AEC9AE10E945E1369E38AEC5E
:104FF0009AE10E9433136CE28AEC9AE10E94331327
:1050000060E08AEC9AE10E94331364E38AEC9AE14F
:105010000E94331362E08AEC9AE10E94331367EF37
:105020008AEC9AE10E945E1360E28AEC9AE10E94A7
:1050300033136AEE8AEC9AE10E945E1360E08AEC18
:105040009AE10E94331360E08AEC9AE10E943313E4
:1050500060EC8AEC9AE10E945E1363E28AEC9AE1CA
:105060000E94331361EC8AEC9AE10E945E1360E1C6
:105070008AEC9AE10E94331365EC8AEC9AE10E9473
:105080005E136EE38AEC9AE10E94331368E28AECC5
:105090009AE10E94331367EC8AEC9AE10E945E1356
:1050A00066E88AEC9AE10E94331366E38AEC9AE19F
:1050B0000E945E1368E48AEC9AE10E94331367E36E
:1050C0008AEC9AE10E945E138091EB1A87FF09C077
:1050D0001EBC0DB407FEFDCF1EBC0DB407FEFDCFF8
:1050E0000AC060E08AEC9AE10E94331360E08AEC27
:1050F0009AE10E9433136AE38AEC9AE10E945E13FC
:1051000065E58AEC9AE10E94331361EB8AEC9AE13F
:105110000E945E1360E08AEC9AE10E94331368E11A
:105120008AEC9AE10E94331366EB8AEC9AE10E94C2
:105130005E1368E08AEC9AE10E94331362E88AEC1D
:105140009AE10E94331367E28AEC9AE10E943313DA
:1051500062EF8AEC9AE10E945E1360E08AEC9AE1C9
:105160000E94331366E28AEC9AE10E945E1361E0CA
:105170008AEC9AE10E94331360EE8AEC9AE10E9475
:105180005E136FE08AEC9AE10E94331361E38AECCC
:105190009AE10E9433136BE28AEC9AE10E94331386
:1051A0006CE08AEC9AE10E9433136EE08AEC9AE19B
:1051B0000E94331368E08AEC9AE10E9433136EE494
:1051C0008AEC9AE10E94331361EF8AEC9AE10E9423
:1051D000331367E38AEC9AE10E94331367E08AECA9
:1051E0009AE10E94331360E18AEC9AE10E94331342
:1051F00063E08AEC9AE10E9433136EE08AEC9AE154
:105200000E94331369E08AEC9AE10E94331360E054
:105210008AEC9AE10E94331361EE8AEC9AE10E94D3
:105220005E1360E08AEC9AE10E9433136EE08AEC30
:105230009AE10E94331364E18AEC9AE10E943313ED
:1052400063E08AEC9AE10E94331361E18AEC9AE10F
:105250000E94331367E08AEC9AE10E94331361E302
:105260008AEC9AE10E94331361EC8AEC9AE10E9485
:10527000331368E48AEC9AE10E94331368E08AEC05
:105280009AE10E9433136FE08AEC9AE10E94331393
:105290006CE08AEC9AE10E94331361E38AEC9AE1B4
:1052A0000E94331366E38AEC9AE10E9433136FE0A5
:1052B0008AEC9AE10E94331361E18AEC9AE10E9440
:1052C0005E1368E770E080E090E00E94540D69E2B0
:1052D0008AEC9AE10E945E1368E770E080E090E05B
:1052E0000E94540D8AEC9AE10E94841080EF90E0B5
:1052F0009093D31A8093D21A80E491E09093D51AB8
:105300008093D41A6AE772E08CE99AE10E94760CE5
:1053100083E398E10E94B819882309F45FC581E00E
:105320000E947E1A882329F080916218882341F018
:1053300055C580E00E947E1A882309F44FC5F4CF3A
:1053400080915618803109F582E08093621810929E
:105350007418109275181092761810927718809120
:10536000571890915818A0E0B0E0F5E0880F991F09
:10537000AA1FBB1FFA95D1F78093701890937118EC
:10538000A0937218B09373181FC0803209F026C51D
:1053900083E0809362184091591850915A18609197
:1053A0005B1870915C184093741850937518609353
:1053B00076187093771820E738E18FE398E10E9420
:1053C0002B1C882309F40AC58FE398E19093791880
:1053D0008093781881E0809361181092631810927E
:1053E000641810926518109266181092671810923F
:1053F00068181092691810926A1810926B1810921F
:105400006C1810926D1810926E1810926F1862E955
:1054100072E08CE99AE10E94760C8EEB9AE10E9490
:10542000B819811107C062EC72E08CE99AE10E9420
:10543000E41BFFCF6AEC72E08CE99AE10E94E41B66
:105440006FEF8AEC9AE10E9412151092E01A88E838
:1054500090E0909369038093680388E790E09093CD
:105460006B0380936A0380E393E090936D038093D2
:105470006C0380EC93E090936F0380936E03109223
:105480002E1410922F1410923014109231140E9486
:10549000FE2081E090E090931F1480931E140E94E0
:1054A000EB1D77E5472E7EEA572E66246A94762C0C
:1054B000E4E02E2E312C80911C1490911D14892B28
:1054C00009F068C387E30E94780C8C0186E30E9490
:1054D000780C7C010E94AC1B6C01013022E01207A9
:1054E0002CF0013432E0130744F42EC080E092E047
:1054F000801B910B813491053CF1125017FF02C0C3
:10550000015C1F4F66E0159507956A95E1F780915C
:105510006A0390916B03080F191F0430110534F0D2
:105520000C3E11052CF00BEE10E002C004E010E080
:1055300010936B0300936A0341E0809162039091A2
:1055400063038017910709F440E061E0E61662E02A
:10555000F60634F081E4E81682E0F80644F432C03E
:1055600080E092E08E199F09813491055CF180E022
:1055700092E08E199F0997FDCF9656E095958795F5
:105580005A95E1F72091680330916903820F931FC8
:10559000843091053CF08C30E1E09E072CF08BE0EC
:1055A00091E002C084E090E09093690380936803E7
:1055B00021E060916003709161036817790709F435
:1055C00020E0422B442309F45FC02091680330910E
:1055D000690380916C0390916D032B30F1E03F07DC
:1055E00039F4803F26E09207B1F0805F9E4F07C0FC
:1055F0002430310581F4009771F0805191409093EF
:105600006D0380936C0388E890E090936903809326
:10561000680321E001C020E040916A0350916B03D0
:1056200080916E0390916F034B3E510539F48031A8
:1056300037E09307A9F080519F4F07C044305105D0
:1056400079F4009769F0805F910990936F038093DC
:105650006E0388E790E090936B0380936A03CBC35B
:105660002111C9C380916C0390916D0390936503E0
:105670008093640380916E0390916F03909367030E
:10568000809366030E94C42088E0E8E6F3E0A0E689
:10569000B3E001900D928A95E1F7CD2809F005C19C
:1056A0001092D71A1092D61A1092D91A1092D81AAC
:1056B00060E070E08AEC9AE10E9447126EEC72E0C2
:1056C0008CE99AE10E94760C60911E1470911F146F
:1056D0008CE99AE10E9470188CE99AE10E94D01B33
:1056E00000E010E0C12CD12CB601CE0101960E9441
:1056F0000218698570E06F5F7F4F75956795072E7B
:10570000000C880B990B0E94E0330E941B340E940E
:10571000A8331616170614F061E070E080911E148D
:1057200090911F14681779070CF461C0C801880FA5
:10573000991F880F991FFC01E059FC4F5F01D1822E
:10574000C08289819A81AB81BC81825C904DA145E8
:10575000B109BC01CD013BE0660F771F881F991F7F
:105760003A95D1F7A30192010E941E3160916E0318
:1057700070916F0380916A0390916B03860F971F5E
:105780007901E81AF90AF7FE03C0F194E194F108EF
:105790008D819E81AF81B88584539748A245BF4FC4
:1057A000BC01CD01BBE0660F771F881F991FBA951A
:1057B000D1F724E539E840E050E00E941E316091C5
:1057C0006C0370916D038091680390916903860F5B
:1057D000971F281B390B37FF03C0319521953109DD
:1057E0002E0D3F1DF501338322830F5F1F4FFFEF07
:1057F000CF1ADF0A2AE2C21624E0D20609F074CFDB
:105800001093211400932014B80180E793E00E94C4
:105810002C2110921B1410921A1410921914109229
:105820001814C8016EE170E00E94313590935F0357
:1058300080935E03081B190B10932314009322140A
:1058400081E08093DE1A012B29F480E090E00E9431
:10585000741F0AC000E010E0C8010E9465200F5FBD
:105860001F4F0E311105C1F781E090E090931D1498
:1058700080931C1461E070E08CE99AE10E9470183A
:105880008CE99AE10E94D01B6FED72E08CE99AE1FD
:105890000E94E41B0E94AC1B892B39F46AE070E083
:1058A00080E090E00E94540DF5CF60E08091FF1AF7
:1058B0000E94180D60E08091001B0E94180D61E0AD
:1058C0008091021B0E94180D61E08091011B0E94D3
:1058D000180D90910D1BE091051BF091061B808126
:1058E000892B808380910E1BE091091BF0910A1B8C
:1058F00090818095892380838091FF1A0E94780C83
:105900008C018091FF1A0E94780C9801281B390B9A
:105910002C5F3F4F2930310538F4800F911F95954A
:105920008795BB24B39401C0B12C2FEF33E049011C
:10593000881A990A60E08091021B0E94180D60E0AD
:105940008091011B0E94180D61E08091FF1A0E9456
:10595000180D61E08091001B0E94180D8091101BB2
:10596000E0910B1BF0910C1B908180958923808323
:1059700090910F1BE091071BF091081B8081892BF0
:1059800080838091011B0E94780C8C018091011B07
:105990000E94780C7C01C8018E199F090496099712
:1059A00028F4E00EF11EF594E79401C0B12C61E0FB
:1059B0008091021B0E94180D60E08091FF1A0E94E6
:1059C000180D80910D1BE091051BF091061B908135
:1059D0008095892380839091101BE0910B1BF0919F
:1059E0000C1B8081892B80838091011B0E94780C85
:1059F0008C018091FF1A0E94780CC090031BD090FC
:105A0000041BC114D10409F453C0BC01990F880BC5
:105A1000990B0E94E03325966CAF7DAF8EAF9FAFA0
:105A20002597B801110F880B990B0E94E0339B0159
:105A3000AC0125966CAD7DAD8EAD9FAD25970E94D6
:105A4000363320E030E040E85FE30E94C93225961B
:105A50006CAF7DAF8EAF9FAF2597B401092C000CC2
:105A6000880B990B0E94E03325962CAD3DAD4EADD1
:105A70005FAD25970E94C43425966CAF7DAF8EAF85
:105A80009FAF2597B60180E090E00E94DE33259617
:105A90002CAD3DAD4EAD5FAD25970E94C43420E0E6
:105AA00030E040E85AE30E94C4340E94A83305C0A5
:105AB000B801681B790B61507C4FB11002C060E0E7
:105AC00070E06A5071096F3D734008F0F4CC2FEF1D
:105AD00033E02E193F09C901330FAA0BBB0B9C0100
