:100000000C94FC030C942D040C942D040C942D04DE
:100010000C942D040C942D040C942D040C942D049C
:100020000C942D040C942D040C942D040C942D048C
:100030000C942D040C942D040C942D040C942D047C
:100040000C942D040C942D040C942D040C942D046C
:100050000C942D040C942D040C942D040C94D62295
:100060000C942D040C942E0C0C94560B0C942D0413
:100070000C942D040C942D040C942D040C942D043C
:100080000C942D040C942D040C942D040C942D042C
:100090000C94FB0B0C94170B0C942D040C942D0456
:1000A0000C942D040C942D040C942D040C942D040C
:1000B0000C942D040C942D040C942D040C942D04FC
:1000C0000C942D040C942D040C942D040C94C80B4A
:1000D0000C94D80A0C942D040C94950B0C94990A4A
:1000E0000C942D04AC0CAF0CA20CA60CE60CB30CBB
:1000F000B70CBD0CC10CC50CCB0CCF0CD30CE60C53
:10010000D90CDD0CE10C0C9466040C94CF0C0C940F
:10011000BD0C0C94CB0C0C9419130C9410150C946E
:1001200030100C9401100C94F3140C94A3100C9444
:10013000B30C0C94B70C0C9423140C942F040C9453
:10014000A8040C94E1090C94C10C0C94B3040C9415
:10015000B4140C94D30C0C941E0A0C94EF040C945D
:100160009F0F0C94AF0C0C94F81D0C94A60C0C94DF
:10017000612D0C945B100C949F050C94E10C0C9475
:1001800079110C9419050C94AC0C0C94A91E0C94C8
:10019000D3040C94E60C0C94A20C0C94140A0C944A
:1001A000C50C0C94D8110C949E0F0C9445120C9411
:1001B000D20F0C94DD0C0C94D90C0C946E100C9492
:1001C00050040C94821000002100240027002A0013
:1001D0002D003000330001010000040107010A0175
:1001E00000000000003E5B4F5B3E3E6B4F6B3E1CD1
:1001F0003E7C3E1C183C7E3C181C577D571C1C5EE8
:100200007F5E1C00183C1800FFE7C3E7FF001824BE
:100210001800FFE7DBE7FF30483A060E2629792968
:1002200026407F050507407F05253F5A3CE73C5A9D
:100230007F3E1C1C08081C1C3E7F14227F22145F7A
:100240005F005F5F06097F017F006689956A6060D5
:1002500060606094A2FFA29408047E040810207ECF
:10026000201008082A1C08081C2A08081E10101054
:10027000100C1E0C1E0C30383E3830060E3E0E069A
:10028000000000000000005F0000000700070014ED
:100290007F147F14242A7F2A1223130864623649AC
:1002A0005620500008070300001C22410000412294
:1002B0001C002A1C7F1C2A08083E08080080703099
:1002C0000008080808080000606000201008040208
:1002D0003E5149453E00427F40007249494946210E
:1002E00041494D331814127F1027454545393C4A82
:1002F0004949314121110907364949493646494999
:10030000291E0000140000004034000000081422E0
:10031000411414141414004122140802015909064E
:100320003E415D594E7C1211127C7F494949363E4F
:10033000414141227F4141413E7F494949417F0935
:100340000909013E414151737F0808087F00417F40
:1003500041002040413F017F081422417F4040403E
:10036000407F021C027F7F0408107F3E4141413ED6
:100370007F090909063E4151215E7F091929462658
:100380004949493203017F01033F4040403F1F205C
:1003900040201F3F4038403F631408146303047833
:1003A00004036159494D43007F4141410204081053
:1003B00020004141417F040201020440404040408E
:1003C000000307080020545478407F2844443838FC
:1003D00044444428384444287F385454541800086E
:1003E0007E090218A4A49C787F0804047800447D48
:1003F00040002040403D007F1028440000417F40E5
:10040000007C047804787C08040478384444443838
:10041000FC1824241818242418FC7C080404084818
:100420005454542404043F44243C4040207C1C2069
:1004300040201C3C4030403C44281028444C9090C4
:10044000907C4464544C440008364100000077001E
:1004500000004136080002010204023C2623263C2B
:100460001EA1A161123A4040207A385454555921B6
:10047000555579412254547842215554784020549E
:100480005579400C1E5272123955555559395454EC
:10049000545939555454580000457C410002457D5B
:1004A000420001457C407D1211127DF0282528F084
:1004B0007C545545002054547C547C0A097F4932B1
:1004C000494949323A4444443A324A4848303A4128
:1004D00041217A3A42402078009DA0A07D3D4242D1
:1004E000423D3D4040403D3C24FF2424487E49435A
:1004F000662B2FFC2F2BFF0929F620C0887E0903CD
:1005000020545479410000447D413048484A3238F3
:100510004040227A007A0A0A727D0D19317D26291F
:10052000292F28262929292630484D402038080817
:10053000080808080808382F10C8ACBA2F1028344B
:10054000FA00007B000008142A142222142A14083E
:100550005500550055AA55AA55AAFF55FF55FF004D
:100560000000FF00101010FF00141414FF00101002
:10057000FF00FF1010F010F0141414FC001414F716
:1005800000FF0000FF00FF1414F404FC1414171003
:100590001F10101F101F1414141F00101010F00053
:1005A0000000001F101010101F10101010F010008D
:1005B0000000FF101010101010101010FF1000009D
:1005C00000FF140000FF00FF00001F10170000FCD8
:1005D00004F414141710171414F404F40000FF00AA
:1005E000F714141414141414F700F7141414171433
:1005F00010101F101F141414F4141010F010F00039
:10060000001F101F0000001F14000000FC14000059
:10061000F010F01010FF10FF141414FF141010103D
:100620001F00000000F010FFFFFFFFFFF0F0F0F0F0
:10063000F0FFFFFF0000000000FFFF0F0F0F0F0F84
:100640003844443844FC4A4A4A347E0202060602D0
:100650007E027E0263554941633844443C04407E37
:10066000201E2006027E020299A5E7A5991C2A49B0
:100670002A1C4C7201724C304A4D4D30304878483B
:1006800030BC625A463D3E494949007E0101017E27
:100690002A2A2A2A2A44445F444440514A4440407A
:1006A000444A51400000FF0103E080FF00000808B9
:1006B0006B6B083612362436060F090F0600001839
:1006C000180000001010003040FF0101001F010160
:1006D0001E00191D1712003C3C3C3C0000000000AD
:1006E000000020002300260029002C002F003200EB
:1006F000000100000301060109010000090A0208C7
:100700000B0C0D07060304010000000000000000B0
:1007100000000000000000000000000000000000D9
:1007200000000000000011100F0000000000000099
:1007300000000000000000000000000000000000B9
:100740007C3C3E5E2B3D3F2F5B5D3B2C2A225C00B8
:1007500001021020200808102040102040800201D3
:1007600002010804020101020408102040808040B8
:1007700020100804020180040201804020100804B7
:100780000201080402010102040810204080010255
:1007900004081020408000002200250028002B00C3
:1007A0002E003100340002010000050108010B0198
:1007B00005050505070508080808020202020A0ADD
:1007C00008080404040401010101010101010303FB
:1007D000030303030303040707070C0C0C0C0C0CA6
:1007E0000C0C0202020206060606060606060B0BA3
:1007F0000B0B0B0B0B0B612D11241FBECFEFD1E2A6
:10080000DEBFCDBF00E00CBF13E0A0E0B2E0E0EA45
:10081000F6E600E00BBF02C007900D92AA34B107C4
:10082000D9F72BE1AAE4B3E001C01D92A236B207CA
:10083000E1F713E0CCEFD3E000E006C02197010917
:10084000802FFE010E942333CB3FD10780E00807B1
:10085000A9F70E9420230C94512F0C940000DC0176
:100860005996ED91FC915A973097B9F08389948904
:10087000A589B6894285538564857585841B950B4A
:10088000A60BB70B811520E89207A105B10538F03A
:100890008FEF9FE7A0E0B0E0089580E090E008953A
:1008A000CF93DF931F92CDB7DEB76983DC01ED9163
:1008B000FC910280F381E02D41E050E0BE016F5FCA
:1008C0007F4F19950F90DF91CF9108950F931F934C
:1008D000CF93DF93FC01A685B7858D01005C1F4F88
:1008E000E8018881998101968F739927AD014E5B4C
:1008F0005F4FEA012881398128173907D1F3E801D0
:1009000028813981A20FB31F6C93A685B785A05C9F
:10091000BF4F11969C938E93A689B7892C9181E045
:1009200090E0078C02C0880F991F0A94E2F7822B8F
:100930008C9381E081A30488F589E02D8081806417
:10094000808381E090E0DF91CF911F910F91089516
:10095000FC0181A1882329F0A489B5898C9186FFA7
:10096000FBCF11A20895FC01A485B585FD01E05CD3
:10097000FF4F20813181329680819181281739077C
:1009800079F080819181A80FB91F8C9120813181EC
:100990002F5F3F4F2F7333273183208390E00895DB
:1009A0008FEF9FEF0895DC011C96ED91FC911D9750
:1009B000DF01A05CBF4F2D913C91119712968D9154
:1009C0009C9111972817390739F08D919C91E80F68
:1009D000F91F808190E008958FEF9FEF0895FC014B
:1009E00024853585F901E05CFF4F80819181329645
:1009F00020813181821B930B8F7399270895FB010E
:100A0000E05CFF4F20813181DB01AE5BBF4F4D9138
:100A10005C912F5F3F4F2F7333274217530741F0ED
:100A200040815181DB01A40FB51F8C93318320835A
:100A30000895CF92DF92EF92FF920F931F93CF937F
:100A4000DF936C01EB017B01E40EF51E00E010E08A
:100A5000CE15DF0561F06991D601ED91FC91019011
:100A6000F081E02DC6011995080F191FF1CFC801BB
:100A7000DF91CF911F910F91FF90EF90DF90CF907A
:100A800008953FB7F89480910A1490910B14A091A7
:100A90000C14B0910D1426B5A89B05C02F3F19F07A
:100AA0000196A11DB11D3FBFBA2FA92F982F8827EE
:100AB000820F911DA11DB11DBC01CD0142E0660F49
:100AC000771F881F991F4A95D1F70895CF93DF9319
:100AD000EC018D81882379F18C8187FF28C06E8598
:100AE0007F858889998941E00E94AA20882319F18D
:100AF000EA8980E2E89FF0011124EB5EF94E30971D
:100B0000D1F08D81823040F48B899C89AD89BE897A
:100B1000848F958FA68FB78F8F89988DA98DBA8D69
:100B2000938F828FB58BA48B8C818F778C83DF9191
:100B3000CF910C946F2080E0DF91CF910895FC015C
:100B4000818D928D009711F00C94660508958F9217
:100B50009F92AF92BF92CF92DF92EF92FF920F934C
:100B60001F93CF93DF93EC018D81811102C080E050
:100B700078C00B891C892D893E8904171507260723
:100B80003707A8F36A017B01823029F4CA86DB8625
:100B9000EC86FD860DC0C114D104E104F10451F4CA
:100BA0001E821F82188619861A861B861C861D8641
:100BB00081E057C08A849B84AC84BD84EB8DFC8D1E
:100BC000258530E0275F3F4FB501A4014150510911
:100BD00061097109022E04C076956795579547956E
:100BE0000A94D2F7D701C6010197A109B10904C03F
:100BF000B695A795979587952A95D2F78417950767
:100C0000A607B70720F089288A288B2871F44F8916
:100C1000588D698D7A8D4E835F83688779874C0103
:100C20005D018E010A5F1F4F16C0841B950BA60B3A
:100C3000B70BF5CF4E815F816885798598018B8DE3
:100C40009C8D0E94942191E0891A9108A108B10815
:100C5000882309F48CCF81149104A104B10451F7C5
:100C600095CFDF91CF911F910F91FF90EF90DF9083
:100C7000CF90BF90AF909F908F9008952F923F920A
:100C80004F925F926F927F928F929F92AF92BF929C
:100C9000CF92DF92EF92FF920F931F93CF93DF9348
:100CA000EC016B014A018D81811103C08FEF9FEF31
:100CB000D7C08C8180FFFACF4B885C886D887E8896
:100CC0004A855B856C857D85C401A0E0B0E0930119
:100CD0008201041B150B260B370B081719072A076F
:100CE0003B0718F44201841A950A54011E0126E0BC
:100CF000220E311CA114B10409F47EC04A855B8523
:100D00006C857D852A0181E05822ED818B8D9C8D3B
:100D10008A019B01F9E03695279517950795FA9575
:100D2000D1F7E23061F4FC01828D938DA48DB58DF5
:100D3000BC01CD01600F711F821F931F3FC0FC01DA
:100D400074807A94702241145104C9F4711017C050
:100D5000452B462B472B49F48F89988DA98DBA8D49
:100D60008E839F83A887B9870AC04E815F8168857B
:100D7000798591010E949421882309F497CFEB8D06
:100D8000FC8D8E819F81A885B9850297A109B10943
:100D9000058404C0880F991FAA1FBB1F0A94D2F7AD
:100DA0004685578560897189840F951FA61FB71FD7
:100DB000BC01CD01670D711D811D911D20E032E048
:100DC0002419350935012A153B0508F439012C8110
:100DD00026FD04C06114F2E07F0681F40091060252
:100DE00010910702209108023091090260177107E3
:100DF00082079307B1F402C0C40132C040E00E94F0
:100E0000AA20882309F452CFF201EB5EF94ED601F5
:100E1000CF01860D971D8E179F0789F021912D9385
:100E2000FACF760183019201AB01BC0180910E14CF
:100E300090910F140E94571F882309F437CFC60CD6
:100E4000D71C8A859B85AC85BD85860D971DA11D08
:100E5000B11D8A879B87AC87BD87A618B7084ACF84
:100E6000DF91CF911F910F91FF90EF90DF90CF9086
:100E7000BF90AF909F908F907F906F905F904F90BA
:100E80003F902F900895CF93DF93EC010E94660569
:100E9000882311F01D8281E0DF91CF9108953F9268
:100EA0004F925F926F927F928F929F92AF92BF927A
:100EB000CF92DF92EF92FF920F931F93CF93DF9326
:100EC000CDB7DEB72C970FB6F894DEBF0FBECDBFFF
:100ED0005C01DC015B968D909C905C971696CD90A2
:100EE000DD90ED90FC901997C114D104E104F10458
:100EF00039F0BFEFCB1ADB0AEB0AFB0A312C07C033
:100F0000F401C080D180E280F38033243394F40173
:100F100081859285A385B4859C01AD012F5F3F4FEC
:100F20004F4F5F4F29873A874B875C8726013701F0
:100F30001D821E821F821886F40181859285A385F9
:100F4000B4852D813E814F815885281739074A077E
:100F50005B0708F063C089859A85AB85BC858C15D5
:100F60009D05AE05BF0550F482E0C82ED12CE12CC2
:100F7000F12C92E0492E512C612C712C9E012F5F97
:100F80003F4FB701A601C4010E949421882309F4B0
:100F900045C089819A81AB81BC81892B8A2B8B2B9F
:100FA00041F0260137019FEF491A590A690A790A67
:100FB00005C0C414D504E604F70491F02D813E81E8
:100FC0004F8158852F5F3F4F4F4F5F4F2D833E839B
:100FD0004F8358873FEFC31AD30AE30AF30AACCF13
:100FE0000FEF1FEF2FEF3FE0B301A201C4010E94FA
:100FF000F320882399F0D50116964D915D916D915E
:101000007C911997411551056105710549F09301CE
:101010008201C4010E94F320811102C080E02AC035
:10102000D50116964D925D926D927C921997332060
:1010300051F0D301C2010196A11DB11DF4018083BD
:101040009183A283B383F5018789908DA18DB28DA1
:10105000892B8A2B8B2B69F4D50157964D925D9283
:101060006D927C925A9714968C911497806814967E
:101070008C9381E02C960FB6F894DEBF0FBECDBFE7
:10108000DF91CF911F910F91FF90EF90DF90CF9064
:10109000BF90AF909F908F907F906F905F904F9098
:1010A0003F9008952F923F924F925F926F927F925E
:1010B0008F929F92AF92BF92CF92DF92EF92FF9268
:1010C0000F931F93CF93DF9300D01F92CDB7DEB75E
:1010D0008C015B011A01DC0115968C91159781300A
:1010E000C9F414968C9181FF15C082FF1DC0F801D0
:1010F000438954896589768982859385A485B585D8
:1011000084179507A607B70779F0C8010E94A705BD
:1011100081110AC081E090E0D80113969C938E93D0
:10112000129780E090E036C1610183C05B968D919B
:101130009C915C97FC0174802FEF270D2A013B01E5
:1011400039E076946794579447943A95D1F7722E84
:1011500074207A01F1E0FF22772009F476C080E064
:1011600092E08E199F0946018C159D0508F44C01EB
:10117000D8015B962D913C915C9716968D919D912F
:101180000D90BC91A02D0297A109B109F901058428
:1011900004C0880F991FAA1FBB1F0A94D2F7468567
:1011A000578560897189840F951FA61FB71F9C0101
:1011B000AD01270D311D411D511D29013A01811439
:1011C00032E0930609F088C08091060290910702F0
:1011D000A0910802B0910902481659066A067B06DA
:1011E00059F48FEF9FEFDC01809306029093070282
:1011F000A0930802B09309029501B301A201809166
:101200000E1490910F140E940020882309F482CFBD
:101210009EEFB91AC818D908F80182859385A4856C
:10122000B585880D991DA11DB11D82879387A4875F
:10123000B587D8011A964D915D916D917C911D975E
:10124000C114D10409F072CF87C0E114F10409F090
:1012500086CF16964D915D916D917C9119974115B0
:1012600051056105710559F457968D919D910D9029
:10127000BC91A02D0097A105B10541F521C09E01AB
:101280002F5F3F4F0E949421882309F44BCF89811F
:101290009A81AB81BC81F801238D348DF9012789B6
:1012A000203129F048EF5FEF6FEF7FE004C048EF97
:1012B0005FEF60E070E084179507A607B70730F08E
:1012C000C8010E944F0781114ACF24CFF8018683BD
:1012D0009783A087B18743CFE114F10429F5D801A2
:1012E0001A964D915D916D917C911D9753968D91BC
:1012F0009D910D90BC91A02D481759076A077B0757
:1013000098F00E946F20882309F404CF40920602CF
:10131000509207026092080270920902809114169E
:1013200081608093141608C041E0C301B2010E949D
:10133000AA20882309F4EECED501F701EB5EF94E21
:101340009F01280D391D2E173F0719F08D918193AC
:10135000FACFA80CB91C5ECFF80183899489A589BE
:10136000B68984179507A607B70738F4438B548BC3
:10137000658B768B848180688483F801848183FD0A
:1013800002C0C10107C0C8010E946605882309F494
:10139000C1CEF7CF0F900F900F900F90DF91CF91AC
:1013A0001F910F91FF90EF90DF90CF90BF90AF9083
:1013B0009F908F907F906F905F904F903F902F9075
:1013C0000895CF93DF93EC01898D9A8D009739F4BE
:1013D00081E090E09B838A8380E090E00BC0FC0179
:1013E000138212820E945208E98DFA8D2281338184
:1013F000232B71F7DF91CF910895CF93DF931F9245
:10140000CDB7DEB741E050E0BE016F5F7F4F0E9475
:101410003E06019719F4898190E002C08FEF9FEF9B
:101420000F90DF91CF910895FC01818D928D0097EF
:1014300011F00C94FD098FEF9FEF08950F931F9308
:10144000CF93DF93FC01818D928D0097B9F0EF016E
:101450000E94FD098C010F3F8FEF180791F0898DD5
:101460009A8DFC01428553856485758541505109EB
:10147000610971090E94A705C80105C080E090E0DC
:1014800002C08FEF9FEFDF91CF911F910F910895D1
:10149000FC01DB0112968D919C91139793838283BB
:1014A00086E292E09183808314968C9114978483D2
:1014B00015968C911597858316964D915D916D913A
:1014C0007C91199746835783608771871A964D914F
:1014D0005D916D917C911D974287538764877587D5
:1014E0001E964D915D916D917C91519746875787DE
:1014F000608B718B52968C915297828B53964D9143
:101500005D916D917C915697438B548B658B768B57
:1015100057964D915D916D917C915A97478B508F65
:10152000618F728F5B968D919C915C97948F838F66
:1015300008951F920F920FB60F9211240BB60F92BF
:101540002F933F938F939F93EF93FF9320919E1838
:1015500030919F188091A0189091A11828173907F1
:1015600031F4809131018F7D8093310114C0E0917D
:10157000A018F091A118E25AF74E20818091A0188E
:101580009091A11801968F7399279093A118809339
:10159000A01820933601FF91EF919F918F913F9179
:1015A0002F910F900BBE0F900FBE0F901F901895AC
:1015B0001F920F920FB60F9211240BB60F922F931A
:1015C0003F938F939F93EF93FF9320912619309130
:1015D000271980912819909129192817390731F472
:1015E0008091D1008F7D8093D10014C0E0912819A3
:1015F000F0912919EA51F74E208180912819909194
:10160000291901968F739927909329198093281986
:101610002093D600FF91EF919F918F913F912F9151
:101620000F900BBE0F900FBE0F901F9018951F923A
:101630000F920FB60F9211240BB60F922F933F9378
:101640008F939F93EF93FF932091AE193091AF1931
:101650008091B0199091B1192817390731F4809110
:10166000C9008F7D8093C90014C0E091B019F0913A
:10167000B119E259F64E20818091B0199091B119BB
:1016800001968F7399279093B1198093B019209385
:10169000CE00FF91EF919F918F913F912F910F90ED
:1016A0000BBE0F900FBE0F901F9018951F920F92B8
:1016B0000FB60F9211240BB60F922F933F938F9377
:1016C0009F93EF93FF932091361A3091371A8091B0
:1016D000381A9091391A2817390731F48091C100CE
:1016E0008F7D8093C10014C0E091381AF091391AAF
:1016F000EA50F64E20818091381A9091391A01965D
:101700008F7399279093391A8093381A2093C600C3
:10171000FF91EF919F918F913F912F910F900BBE71
:101720000F900FBE0F901F9018951F920F920FB63B
:101730000F9211240BB60F922F933F934F935F9309
:101740006F937F938F939F93AF93BF93EF93FF9389
:101750008091300182FD07C08091360162EA78E114
:101760000E94FF0402C080913601FF91EF91BF916A
:10177000AF919F918F917F916F915F914F913F9129
:101780002F910F900BBE0F900FBE0F901F901895CA
:101790001F920F920FB60F9211240BB60F922F9338
:1017A0003F934F935F936F937F938F939F93AF93E9
:1017B000BF93EF93FF938091D00082FD07C080918B
:1017C000D6006AE279E10E94FF0402C08091D6004F
:1017D000FF91EF91BF91AF919F918F917F916F9109
:1017E0005F914F913F912F910F900BBE0F900FBEC5
:1017F0000F901F9018951F920F920FB60F92112401
:101800000BB60F922F933F934F935F936F937F93FA
:101810008F939F93AF93BF93EF93FF938091C800F3
:1018200082FD07C08091CE0062EB79E10E94FF0447
:1018300002C08091CE00FF91EF91BF91AF919F9137
:101840008F917F916F915F914F913F912F910F9069
:101850000BBE0F900FBE0F901F9018951F920F9206
:101860000FB60F9211240BB60F922F933F934F9305
:101870005F936F937F938F939F93AF93BF93EF93F8
:10188000FF938091C00082FD07C08091C6006AE38B
:101890007AE10E94FF0402C08091C600FF91EF919F
:1018A000BF91AF919F918F917F916F915F914F9178
:1018B0003F912F910F900BBE0F900FBE0F901F9076
:1018C00018956115710579F0FB0101900020E9F789
:1018D0003197AF01461B570BDC01ED91FC91028063
:1018E000F381E02D199480E090E00895863308F0AC
:1018F000865390917B00282F2870977F922B90938E
:101900007B008770806480937C0080917A00806483
:1019100080937A0080917A0086FDFCCF80917800D8
:101920002091790090E0922B089590E0FC0131978E
:10193000E131F10508F04AC08827EE58FF4F8F4F7C
:101940000C942333809180008F7703C080918000B6
:101950008F7D80938000089584B58F7702C084B511
:101960008F7D84BD08958091B0008F7703C08091F2
:10197000B0008F7D8093B0000895809190008F77A4
:1019800007C0809190008F7D03C080919000877F79
:101990008093900008958091A0008F7707C0809178
:1019A000A0008F7D03C08091A000877F8093A0005E
:1019B0000895809120018F7707C0809120018F7D4D
:1019C00003C080912001877F8093200108951F9399
:1019D000CF93DF93282F30E0F901E650F94F84913F
:1019E000F901E05BF84FD491F901E055F84FC4914B
:1019F000CC23C1F0162F81110E94950CEC2FF0E042
:101A0000EE0FFF1FEA56F84FA591B4919FB7F894D7
:101A1000111104C08C91D095D82302C0EC91DE2B1B
:101A2000DC939FBFDF91CF911F910895CF93DF93F8
:101A300090E0FC01E05BF84F2491FC01E055F84F89
:101A40008491882361F190E0880F991FFC01EA538B
:101A5000FE4FC591D491FC01EA56F84FA591B4917F
:101A6000611109C09FB7F8948881209582238883EB
:101A7000EC912E230BC0623061F49FB7F8948881FB
:101A8000322F309583238883EC912E2B2C939FBF8C
:101A900006C08FB7F894E8812E2B28838FBFDF9183
:101AA000CF910895CF92DF92EF92FF92CF93DF9381
:101AB0006B017C010E944105EB01C114D104E104DA
:101AC000F10479F00E9441056C1B7D0B683E734068
:101AD000A0F381E0C81AD108E108F108C851DC4F31
:101AE000ECCFDF91CF91FF90EF90DF90CF900895F2
:101AF0002FB7F89460910614709107148091081420
:101B0000909109142FBF08952F923F924F925F92A8
:101B10006F927F928F929F92AF92BF92CF92DF92FD
:101B2000EF92FF920F931F93CF93DF93CDB7DEB762
:101B30006B970FB6F894DEBF0FBECDBF9B8F8A8F19
:101B40005B011A01D22E1F830E833701C982DC018B
:101B500058962D913C9159972115310509F0E6C011
:101B600018968D919C911997681779070CF0CDC143
:101B70001A968D919C911B97481759070CF0C5C177
:101B80008C2C912CFB0126E0C29EE00DF11D11244E
:101B9000FB87EA871E161F060CF0B7C1A40183E07D
:101BA000440F551F8A95E1F75D874C87CA01820D66
:101BB000931D181619060CF0A8C157968C91811127
:101BC00004C05FEA5D1508F4D394AA8DBB8DED9136
:101BD000FC9111970680F781E02DCD011995B5E0B4
:101BE000DB9EC0011124F5013596FF87EE87BB828D
:101BF000AA8225019C012A193B09398B288BA10156
:101C0000485F5F4F5B8B4A8BE889F989E40DF51DCE
:101C1000E052FE4F5491588761013D822C828885A5
:101C200080FF13C0AA8DBB8DED91FC91B981B130BD
:101C300031F40084F185E02D2E813F8116C00284AD
:101C4000F385E02DEE80FF801AC0EE81FF81E6155E
:101C5000F705F1F0AA8DBB8DED91FC91B981B13002
:101C600051F40084F185E02D9301A601B2018A8D23
:101C70009B8D19950DC00284F385E02D73018401BD
:101C800094014C815D816A817B818A8D9B8D199540
:101C9000E885E695E887FFEFCF1ADF0A2C813D81C2
:101CA000280D391D3D832C834A895B89C416D506CE
:101CB00009F0B5CF5FEF451A550A8A819B81880DDF
:101CC000991D9B838A83AE85BF854A165B0609F002
:101CD0009BCFEE81FF81E615F70509F4F4C0EA8D8C
:101CE000FB8DA081B181F981F13079F4B5016B5F91
:101CF0007F4F1C96ED91FC911D97830128E030E009
:101D0000A1018A8D9B8D1995DEC06A857B85681936
:101D100079091A96ED91FC911B9773010C851D852D
:101D20009401A1018A8D9B8D1995CDC0F90134963E
:101D3000E491DE1AF901329685919491B7E0DB9E29
:101D4000800D911D1124F901259134913B8B2A8B33
:101D5000FC01259134912901FC013296C490319601
:101D600034913E87329614913196D4904981423015
:101D700058F0612E012E000C77088D2D0D2C000CD3
:101D8000990B9987888704C019861886612C712C55
:101D9000AA8DBB8DED91FC9111970680F781E02D06
:101DA000CD011995B9818B2E912C689CC001699C3D
:101DB000900D789C900D1124FC01EA0DFB1DFD8710
:101DC000EC871A82712C612CE12F110FFF0B95010A
:101DD0002E0F3F1F3B872A87AC0CB11CA5014E0F6D
:101DE0005F1F5F8B4E8BC1018D0D911DD7FC9A95A6
:101DF000998F888F9E85691608F065C0862D90E0C2
:101E000048855985480F591F489D9001499D300DBF
:101E1000589D300D1124D101A20FB31FB98BA88B8F
:101E2000EC85FD85FD83EC83AA84BB84DA80FA858A
:101E3000DF1A288D398D280F391F3D8B2C8B8D2D66
:101E40008A0D4E895F89A416B506C1F1877041F4E9
:101E5000C2010196EA89FB89E40DF51D74902C01FD
:101E600077FE21C0AA8DBB8DED91FC91B981B13077
:101E700061F40084F185E02D2E813F814C895D89DC
:101E8000B5018A8D9B8D19950EC00284F385E02DD6
:101E9000EE80FF8084019401488959896C817D819D
:101EA0008A8D9B8D1995770CEFEFAE1ABE0A2C81A7
:101EB0003D81280D391D3D832C83C1CF3A813C0DD6
:101EC0003A83639497CFAA8DBB8DED91FC911197C6
:101ED0000288F389E02DCD016B960FB6F894DEBF32
:101EE0000FBECDBFDF91CF911F910F91FF90EF906B
:101EF000DF90CF90BF90AF909F908F907F906F902A
:101F00005F904F903F902F9019946B960FB6F89476
:101F1000DEBF0FBECDBFDF91CF911F910F91FF901C
:101F2000EF90DF90CF90BF90AF909F908F907F9079
:101F30006F905F904F903F902F90089508958F92EB
:101F40009F92AF92BF92CF92DF92EF92FF920F9348
:101F50001F93CF93DF93EC016B015A014901E88194
:101F6000F9810680F781E02D1995E881F9810284D5
:101F7000F385E02D9401A501B601CE011995E88104
:101F8000F9810288F389E02DCE01DF91CF911F9175
:101F90000F91FF90EF90DF90CF90BF90AF909F9008
:101FA0008F901994AF92BF92CF92DF92EF92FF92EF
:101FB0000F931F93CF93DF93EC017B016A015901CB
:101FC000E881F9810680F781E02D1995E881F98192
:101FD0000684F785E02D9501A601B701CE0119957C
:101FE000E881F9810288F389E02DCE01DF91CF915C
:101FF0001F910F91FF90EF90DF90CF90BF90AF9027
:102000001994AF92BF92CF92DF92EF92FF920F930B
:102010001F93CF93DF93EC017B016A015901E881A3
:10202000F9810680F781E02D1995E881F981048412
:10203000F585E02D9501A601B701CE011995E8813E
:10204000F9810288F389E02DCE01DF91CF911F91B4
:102050000F91FF90EF90DF90CF90BF90AF901994C9
:10206000CF92DF92EF92FF920F931F93CF93DF9364
:10207000EC018B017A016901E881F9810680F78121
:10208000E02D1995E881F9810084F185E02D960114
:10209000A701B801CE011995E881F9810288F38979
:1020A000E02DCE01DF91CF911F910F91FF90EF9026
:1020B000DF90CF901994EF92FF920F931F93DC0162
:1020C000ED91FC910284F385E02D780101E010E0B0
:1020D00019951F910F91FF90EF900895EF92FF9245
:1020E0000F931F93DC01ED91FC910284F385E02DA9
:1020F0007801890121E030E019951F910F91FF903F
:10210000EF900895DC019C96ED91FC919D97908154
:10211000D1968C91892B808308950895FC0163707A
:10212000658B8481958126813781613039F06330F8
:1021300029F0918780873387228708953187208708
:10214000938782870895AF92BF92CF92EF92FF92CA
:102150000F931F93CF93DF93EC01262F888D998DDA
:10216000009709F040C06A3059F41D861C862C89FE
:102170008E859F8538E0239F800D911D112441C0DD
:102180006D3009F4AAC08E898823C1F03C898C8502
:102190009D8546E0349F800D911D11244885598509
:1021A000481759075CF41D861C868E859F8548E07C
:1021B000349F800D911D11249F878E87EA88FB88AC
:1021C000088919894E855F856C857D85CC88CE010F
:1021D0000E94840D2C898C859D8536E0239F800D7F
:1021E000911D112442C06A3079F41D861C862C8909
:1021F000FC013696E4918E859F852E9F800D911D62
:1022000011249F878E8769C06D3009F466C0FC0178
:1022100034963491631708F460C03196E491E61760
:1022200008F45BC0FC01329665917491422F50E036
:10223000431B510937E0349F5001359FB00C1124E6
:10224000A60EB71EF501329634913196E4913323F0
:1022500011F0E1110DC0F5013496E4912C898C85C3
:102260009D85E29F800D911D11249D878C8735C02F
:10227000F501359644915E89552311F16C89E32F60
:10228000F0E0E40FF11D47FDFA956E9FD0016F9FBE
:10229000B00D11244C855D854A0F5B1FE885F985DB
:1022A000E417F5076CF41D861C86FC013696E49154
:1022B0008E859F856E9F800D911D11249F878E872F
:1022C000EA88FB88088919894E855F856C857D853C
:1022D000CC88CE010E94840DBECF81E090E0DF91DA
:1022E000CF911F910F91FF90EF90CF90BF90AF9043
:1022F00008956F927F928F929F92AF92BF92CF92EA
:10230000DF92EF92FF920F931F93CF93DF93EC0135
:102310004B015A0169013801E881F9810680F78192
:10232000E02D1995E881F9810684F785E02D870174
:102330009601A501B401CE011995A501460D571DC1
:1023400041505109E881F9810684F785E02D960115
:10235000B401CE011995E881F9810484F585E02D59
:102360009301A501B401CE011995C80CD91CB60181
:1023700061507109E881F9810484F585E02D9301AC
:10238000A501CE011995E881F9810288F389E02D34
:10239000CE01DF91CF911F910F91FF90EF90DF90D1
:1023A000CF90BF90AF909F908F907F906F90199437
:1023B0008F929F92AF92BF92CF92DF92EF92FF9255
:1023C0000F931F93CF93DF934C016B015A01E901E7
:1023D000DC01ED91FC916217730781F40417150776
:1023E00024F48B2D5801042F182F0A191B0998016A
:1023F0002F5F3F4F008CF18DE02D12C04017510729
:1024000009F52617370724F48D2D6901C62FD82F1B
:102410009E012C193D092F5F3F4F028CF38DE02D5B
:102420008701A501B601C4011995DF91CF911F91D4
:102430000F91FF90EF90DF90CF90BF90AF909F9063
:102440008F9008950680F781E02D1995D401ED91C4
:10245000FC910088F189E02D9E01A501B601C4011F
:102460001995D401ED91FC910288F389E02DC40106
:10247000DF91CF911F910F91FF90EF90DF90CF9060
:10248000BF90AF909F908F901994EF92FF920F930F
:102490001F93DC011A960D911C911B9718962D9194
:1024A0003C911997ED91FC91048CF58DE02D7B0109
:1024B00040E050E060E070E019951F910F91FF90AF
:1024C000EF9008954F925F926F927F928F929F92BA
:1024D000AF92BF92CF92DF92EF92FF920F931F9332
:1024E000CF93DF936C012B015A0139014801DC01C4
:1024F000ED91FC910680F781E02D1995E201640CC5
:10250000751CD601ED91FC91C615D7055CF40484C9
:10251000F585E02D87019401A501BE01C60119953D
:102520002196EFCF0288F389E02DC601DF91CF918C
:102530001F910F91FF90EF90DF90CF90BF90AF90E1
:102540009F908F907F906F905F904F9019948F9293
:102550009F92AF92BF92CF92DF92EF92FF920F9332
:102560001F93CF93DF93EC015B014A016901E8817E
:10257000F9810680F781E02D199595012C0D3D1DFF
:1025800021503109E881F9810088F189E02D780135
:102590008401A401B501CE011995E881F981028871
:1025A000F389E02DCE01DF91CF911F910F91FF9024
:1025B000EF90DF90CF90BF90AF909F908F90199445
:1025C0008F929F92AF92BF92CF92DF92EF92FF9243
:1025D0000F931F93CF93DF93EC015B014A016901D5
:1025E0007801E881F9810680F781E02D1995C80C02
:1025F000D91C860101501109E881F9810088F1890F
:10260000E02D9501A401B501CE011995E881F9816C
:102610000288F389E02DCE01DF91CF911F910F91B8
:10262000FF90EF90DF90CF90BF90AF909F908F90F2
:102630001994FC0181A187FF0CC08CB58C7F8CBDE7
:102640008DB581608DBD8CB58F7D8CBD8CB5837F44
:102650008CBDA4A5B5A59C9181A9809589238C9357
:102660000895FC0181A187FF05C06EBD0DB407FE72
:10267000FDCF089528E030E090E8A4A1B5A186A59B
:10268000462F492319F04C91842B03C04C9180951F
:1026900084238C93A0A5B1A54C9180A98095842317
:1026A0008C93A0A5B1A54C9180A9842B8C93969571
:1026B0002150310911F70895CF93DF93EC01EAA57A
:1026C000FBA590818AA9809589238083CE010E94F1
:1026D0003113EAA5FBA590818AA9892B8083DF911C
:1026E000CF9108958F929F92AF92BF92CF92DF9237
:1026F000EF92FF920F931F93CF93DF93EC01490169
:1027000081E0881A9108860E971EC401A0E0B0E00F
:102710004B01A12CB12C540199248824882A992A90
:10272000AA2ABB2A680181E0C81AD108C40ED51EA6
:10273000C601A0E0B0E06A01E12CF12C7601DD24B5
:10274000CC24C82AD92AEA2AFB2A6AE2CE010E94AE
:102750005C1329A16B2D77278827992727FF18C09D
:102760006EBD0DB407FEFDCFC501AA27BB278EBDE8
:102770000DB407FEFDCFBB27AB2D9A2D892D8EBD45
:102780000DB407FEFDCF8EBC0DB407FEFDCF14C007
:10279000CE010E943113B50188279927CE010E94EE
:1027A000311399278B2D7A2D692DCE010E9431137B
:1027B000682DCE010E9431136BE2CE010E945C13A2
:1027C00029A16F2D77278827992727FF18C06EBD6D
:1027D0000DB407FEFDCFC701AA27BB278EBD0DB4E0
:1027E00007FEFDCFBB27AF2D9E2D8D2D8EBD0DB4C9
:1027F00007FEFDCFCEBC0DB407FEFDCF14C0CE0149
:102800000E943113B70188279927CE010E94311306
:1028100099278F2D7E2D6D2DCE010E9431136C2DA9
:10282000CE010E9431136CE2CE01DF91CF911F9156
:102830000F91FF90EF90DF90CF90BF90AF909F905F
:102840008F900C945C134F925F926F927F928F9255
:102850009F92AF92BF92CF92DF92EF92FF920F932F
:102860001F93CF93DF935C01FB01E9014701DC017A
:1028700018962D913C911997621773070CF063C05D
:102880001A968D919C911B97481759070CF05BC0C5
:102890006B01CC0EDD1ED60111977A01E00EF11E00
:1028A000B70161507109B7FD4EC077FD4CC0F7FF0D
:1028B00003C0E601E0E0F0E057FF03C0870140E01D
:1028C00050E0A217B3071CF0E901CE1BDF0B68171D
:1028D00079071CF08C01041B150B9E01D8010E9486
:1028E0002B336B017C01BF01C5010E9472132601CD
:1028F0003701F50181A187FF13C041145104610420
:10290000710409F19EBC0DB407FEFDCF8EBC0DB461
:1029100007FEFDCFF1E04F1A510861087108EDCFB5
:10292000411451046104710471F0692DC5010E94C4
:102930003113682DC5010E94311381E0481A5108F6
:1029400061087108EDCFDF91CF911F910F91FF903A
:10295000EF90DF90CF90BF90AF909F908F907F903F
:102960006F905F904F900895EF92FF920F931F9397
:10297000CF93DF93EC0177FD2FC088859985681789
:10298000790754F557FD28C08A859B854817590754
:102990001CF5E32EF22E01E010E021E030E0CE0144
:1029A0000E94721389A187FF09C0EEBC0DB407FE17
:1029B000FDCFFEBC0DB407FEFDCF0EC06E2DCE01C7
:1029C0000E9431136F2DCE01DF91CF911F910F9196
:1029D000FF90EF900C943113DF91CF911F910F91E5
:1029E000FF90EF9008951F93CF93DF93EC01162F84
:1029F000E881F9810680F781E02D1995111102C057
:102A000060E201C061E2CE010E945C13E881F981BD
:102A10000288F389E02DCE01DF91CF911F911994A7
:102A20001F93CF93DF93EC0163706D8B6230C1F025
:102A3000633001F1613051F080EF90E09987888731
:102A400080E491E09B878A8718E41DC080E491E0D0
:102A50009987888780EF90E09B878A8718E213C068
:102A600080EF90E09987888780E491E09B878A8750
:102A700018E809C080E491E09987888780EF90E0AA
:102A80009B878A8718EEE881F9810680F781E02D1F
:102A9000CE01199566E3CE010E945C13612FCE0131
:102AA0000E943113E881F9810288F389E02DCE017B
:102AB000DF91CF911F9119942F923F924F925F9285
:102AC0006F927F928F929F92AF92BF92CF92DF923E
:102AD000EF92FF920F931F93CF93DF93CDB7DEB7A3
:102AE000C959D1090FB6F894DEBF0FBECDBFCE567F
:102AF000DF4F99838883C259D0405B01CA56DF4FAC
:102B000059834883C659D0402901C257DF4F1983E2
:102B10000883CE58D04037010DB71EB7C856DF4FD7
:102B200019830883C859D040E7961FAE1EAEE797B9
:102B300088EE93E0A0E0B0E0EB968CAF9DAFAEAF37
:102B4000BFAFEB9786E192E0E5969FAF8EAFE5973A
:102B5000C457DF4F19821882CC58D040C158DF4F7C
:102B60001882CF57D04080900002909001028E01D1
:102B7000025E1F4F6FE378E1C8010E94480A1C8281
:102B80001B8286E292E09A8389831E8274019E01F1
:102B90002F5F3F4F6901302E212E6FE270E0C70199
:102BA0000E94E530009709F443C0D7012C912F32E1
:102BB00021F4BFEFEB1AFB0AF0CF8E198D3008F02D
:102BC0008CE0082F10E0A801B701CE01885A9F4F72
:102BD0000E94F030E8E5F0E0EC0FFD1FE00FF11F80
:102BE0001082C6010E944307F6018581882351F0B7
:102BF0001EAE1DAE86E292E09CAF8BAF21961FAE5B
:102C0000219725C0AE01485A5F4F632D722DC60132
:102C10000E94E41C882361F3E00EF11E832D922DA7
:102C20000E944307C1013C2C2D2CC92ED82EB5CFB4
:102C3000870108191909C057DF4F19830883C05944
:102C4000D040632D722DCE01CB960E94480AC0570A
:102C5000DF4F28813981C059D040820E931ED401A4
:102C60008C9181110AC0BE01655C7F4FCE01019637
:102C70000E94480A4BEF52E04AC019A218A286E20D
:102C800092E09F8F8E8F1BA221968FAD219781118D
:102C90001CC06C961FAE1EAE6C9788EE93E0A0E051
:102CA000B0E0A0968CAF9DAFAEAFBFAFA09786E16E
:102CB00092E06A969FAF8EAF6A97E3961FAE1EAE04
:102CC000E397A5961FAEA5972AC08250A401823033
:102CD00048F46FE378E1CE014E960E94E41C811126
:102CE0000EC0D7CFBE01655C7F4FCE014E960E94CD
:102CF000E41C882371F2CE01CB960E944307BE01EB
:102D0000625E7F4FCE0101960E94480AA401BE0177
:102D10006F5F7F4FCE01885A9F4F0E94F41B6C96C5
:102D20008EAD9FAD6C97E7969FAF8EAFE797A0965D
:102D30008CAD9DADAEADBFADA097EB968CAF9DAF0A
:102D4000AEAFBFAFEB97A4968CAD9DADAEADBFADB2
:102D5000A497EF968CAF9DAFAEAFBFAFEF97A8E54E
:102D6000B0E0AC0FBD1F1C96E3E7F0E0EC0FFD1FD9
:102D70003C9683E790E08C0F9D1F49962D912193FF
:102D8000E817F907D9F7E396EEADFFADE397C4571F
:102D9000DF4FF983E883CC58D040309719F0858114
:102DA000811118C06DEF72E08EE79AE10E94610C0C
:102DB00060910002709101028EE79AE10E94610C1D
:102DC00067E28EE79AE10E9466048EE79AE10E942C
:102DD000CE1BF1C0C257DF4F28803980CE58D0407B
:102DE000220C331C4501A12CB12CF301E40DF51D7F
:102DF000C057DF4FF983E883C059D040CE56DF4F2C
:102E000028813981C259D040890120E030E0CE5676
:102E1000DF4F088319832A833B83C259D040C057B0
:102E2000DF4F88819981C059D0408415950509F4F8
:102E3000B3C06DB67EB6ADB7BEB7A219B3090FB6B3
:102E4000F894BEBF0FBEADBFEDB7FEB731966F01B0
:102E5000A0910202B0910302A50194010E94732F78
:102E6000CE56DF4F088119812A813B81C259D0405B
:102E7000060F171F281F391FB901A801440F551F3E
:102E8000661F771FC457DF4F08811981CC58D04087
:102E90000115110549F0C8010E94A705A101B6015D
:102EA000C8010E943E0602C080E090E02816390664
:102EB000A9F06EE073E08EE79AE10E94E21B011533
:102EC000110531F0C8010E944307C8010E944F302C
:102ED0000FB6F8947EBE0FBE6DBE6DC08CEA9AE14F
:102EE0000E94191301E010E0C257DF4F2881398199
:102EF000CE58D040A201CA56DF4F68817981C659A9
:102F0000D0408CEA9AE10E947213E12CF12CC25756
:102F1000DF4F28813981CE58D0402E153F0551F121
:102F2000D6010D911D916D011027012710278CEA04
:102F30009AE10E9419138091CD1A87FF09C01EBD26
:102F40000DB407FEFDCF0EBD0DB407FEFDCF0AC0C8
:102F5000612F8CEA9AE10E943113602F8CEA9AE18A
:102F60000E9431138CEA9AE10E948210BFEFEB1AA3
:102F7000FB0ACDCF8CEA9AE10E9482100FB6F8943A
:102F80007EBE0FBE6DBEEFEF4E1A5E0AFFEF8F1AC8
:102F90009F0AAF0ABF0A43CFC457DF4F0881198188
:102FA000CC58D0400115110531F0C8010E944307EB
:102FB000C8010E944F30C856DF4F08811981C85997
:102FC000D0400FB6F8941EBF0FBE0DBFC756DF4FDF
:102FD0000FB6F894DEBF0FBECDBFDF91CF911F912A
:102FE0000F91FF90EF90DF90CF90BF90AF909F90A8
:102FF0008F907F906F905F904F903F902F900895AB
:103000008F929F92AF92BF92CF92DF92EF92FF92F8
:103010000F931F93CF93DF936C01EB014B0177FF6D
:1030200003C087E0880E911C23E0959487942A952D
:10303000E1F7092C000CAA08BB0889E0980E8DE383
:10304000A81EB11C8091101490911114A09112141B
:10305000B091131488169906AA06BB06F9F094E1FC
:10306000E92E94E1F92E00E012E020E030E0B50115
:10307000A40180EA9AE10E94571F811107C062E211
:1030800073E08EE79AE10E94610CE9CF8092101400
:1030900090921114A0921214B0921314CE0168E011
:1030A00070E00E940F33FC0186E0EE0FFF1F8A954F
:1030B000E1F7EC5EFB4E80E4D60101900D928A951B
:1030C000E1F7DF91CF911F910F91FF90EF90DF908B
:1030D000CF90BF90AF909F908F9008954F925F9246
:1030E0006F927F928F929F92AF92BF92CF92DF9218
:1030F000EF92FF920F931F93CF93DF93CDB7DEB77D
:10310000A1970FB6F894DEBF0FBECDBF5C016B0177
:10311000770FEE08FF08F7FE3CC0DC01ED91FC9153
:103120000190F081E02D6DE219958C01F094E0940E
:10313000D094C094C11CD11CE11CF11C19A2FE0149
:10314000B1964F013AE0432E512C612C712CC701EE
:10315000B601A30192010E94862F8C2DFAE02F9FC9
:103160008019112491E0891A91088A3014F4805D45
:1031700001C0895CD4018C9369017A01232B242B33
:10318000252B29F7B401C5010E94610C800F911F06
:103190002AC09C2C7D2DC70119A28E010F5D1F4FE7
:1031A0002AE0C22ED12CE12CF12C692DA701960129
:1031B0000E94862F692DBAE02B9F601911240150BF
:1031C00011096A3014F4605D01C0695CF801608324
:1031D000922E732FCA01232B242B252B31F7B801F4
:1031E000C5010E94610CA1960FB6F894DEBF0FBE18
:1031F000CDBFDF91CF911F910F91FF90EF90DF90A6
:10320000CF90BF90AF909F908F907F906F905F9086
:103210004F9008952F923F924F925F926F927F92BC
:103220008F929F92AF92BF92CF92DF92EF92FF92D6
:103230000F931F93CF93DF9300D000D0CDB7DEB7AD
:103240003C015B018CEA9AE10E941913A3014451ED
:103250005109850129E230E068E271E08CEA9AE1E7
:103260000E946E10E12CF12CCC24C394D12C44E1AB
:1032700050E05E834D8328ED222E33243A943DEEB8
:10328000832E99249A944FEFE41AF40A52E0C50E63
:10329000D11C8C0C9D1C4D805E80440C551C8FEF06
:1032A000481A580AB701685D7E4F85019201A30153
:1032B0008D819E81481B590B5A8349838CEA9AE180
:1032C0000E946E10A3014E195F095C834B83960127
:1032D0006D817E81685D7E4F8CEA9AE10E946E105E
:1032E00068E271E06E197F09920149815A818CEA86
:1032F0009AE10E946E1096014B815C8168E271E058
:103300008D819E81681B790B8CEA9AE10E946E1078
:103310004D815E81E416F5066CF497FCB4CF8D8187
:103320009E8101979E838D8392E0290E311C820C31
:10333000931CA9CF8CEA9AE126960FB6F894DEBFCB
:103340000FBECDBFDF91CF911F910F91FF90EF90F6
:10335000DF90CF90BF90AF909F908F907F906F90B5
:103360005F904F903F902F900C9482108F929F927D
:10337000AF92BF92EF92FF920F931F93CF93DF9381
:10338000EC011B8619861E821D8286E08C830E94BA
:10339000780D7B0161E08C810E94160DCE010E94A8
:1033A000BA1E60E082E30E94160D61E083E30E9492
:1033B000160D61E084E30E94160D61E085E30E9432
:1033C000160D61E085E30E94E70C83E58CBD8DB5A9
:1033D0008E7F8DBD1AE08FEF0E94DE1E1150D9F74F
:1033E00060E08C810E94E70C20E030E0A90160E001
:1033F000CE010E94031F182F8A87813049F00E9456
:10340000780D6E197F09613D774070F381E04AC005
:103410002AEA31E040E050E068E0CE010E94031F5C
:1034200082FF02C01B870CC004E00E94E31E8A8753
:103430000150D9F78A3A11F082E034C082E08B87DC
:103440008B85823021F0812C912C540105C0812C78
:10345000912CA12C80E4B82E20E030E0A90167E394
:10346000CE010E94031FA501940169E2CE010E94D2
:10347000031F8A87882349F00E94780D6E197F09FF
:10348000613D774048F388E00DC08B858230E9F4D8
:1034900020E030E0A9016AE3CE010E94031F8823E7
:1034A00039F086E08D83CE010E94BA1E10E018C06C
:1034B0000E94E31E807C803C11F483E08B870E9495
:1034C000E31E0E94E31E0E94E31ECE010E94BA1E6C
:1034D0008DB58E7F8DBD8CB58C7F8CBD8CB58CBD34
:1034E000812FDF91CF911F910F91FF90EF90BF90AF
:1034F000AF909F908F9008958F929F92AF92BF92BE
:10350000CF92DF92EF92FF92CF93DF93C82F85E1A6
:1035100098E190930F1480930E14CC2369F1C53079
:1035200010F080E00CC140E060E070E0CB010E9450
:10353000AA208823B1F320E1C29FC00111248B5F30
:10354000994EFC01E254FE4F20812F7751F73C96B3
:103550004081518162817381443651056105710555
:1035600000F33497C080D180E280F380C114D1048D
:10357000E104F10421F4D5CFC12CD12C760140E037
:10358000C701B6010E94AA20882359F28091201613
:10359000909121168115924021F6A0912516AA231B
:1035A00009F4BFCF6091231670912416611571053F
:1035B00009F4B7CF20912216222309F4B2CFA093A9
:1035C00033182093251880E030E041E050E0C82F08
:1035D000FA01082E02C0EE0FFF1F0A94E2F72E1721
:1035E0003F0739F08F5FC83091F789E080932E183C
:1035F00098CF80932E1820912B1630912C162115E0
:10360000310519F040E050E008C0209139163091A2
:103610003A1640913B1650913C1620932618309351
:103620002718409328185093291846015701860EF1
:10363000971EA11CB11C8092341890923518A0924C
:103640003618B0923718E0912616F0912716F093AD
:103650003A18E0933918B0E00E94732F860E971E37
:10366000A81EB91E80923B1890923C18A0923D185B
:10367000B0923E1885E0EE0FFF1F8A95E1F7E1500A
:10368000FE4FEF2FFF27E6958E0E9F1EA11CB11C4B
:1036900080922F1890923018A0923118B092321860
:1036A00020912816309129162115310521F0A90104
:1036B00060E070E008C04091351650913616609178
:1036C000371670913816D701C60188199909AA09C9
:1036D000BB09840F951FA61FB71F04C0B695A795F9
:1036E00097958795CA95D2F780932A1890932B18AF
:1036F000A0932C18B0932D18853F2FE09207A105B9
:10370000B10510F48CE018C0853F9F4FA105B105AD
:1037100010F480E111C08091411690914216A09161
:103720004316B091441680933B1890933C18A09395
:103730003D18B0933E1880E28093381881E0DF9105
:10374000CF91FF90EF90DF90CF90BF90AF909F9080
:103750008F900895CF93DF93ECEFF6E08491E2E54C
:10376000F7E0D491E2EBF7E0C491CC2391F0811122
:103770000E94950CEC2FF0E0EE0FFF1FE052F94F86
:10378000A591B491EC91ED2381E090E021F480E0EB
:1037900002C080E090E0DF91CF9108950F931F93D6
:1037A000CF93DF93EC016DE00E9466048C016AE028
:1037B000CE010E946604800F911FDF91CF911F916F
:1037C0000F9108950F931F93CF93DF93EC010E9405
:1037D000610C8C01CE010E94CE1B800F911FDF91E6
:1037E000CF911F910F910895EF92FF920F931F9326
:1037F000CF93DF93EC017B018A011B821A8288EE52
:1038000093E0A0E0B0E08C839D83AE83BF8386E12C
:1038100092E0998388838DE190E00E94B72F9A8F80
:10382000898F009779F02DE1F701DC0101900D926D
:103830002A95E1F74CE050E0B801CE010C960E94C9
:10384000F030188EDF91CF911F910F91FF90EF9084
:1038500008954F925F926F927F92AF92BF92CF92F4
:10386000DF92EF92FF920F931F93CF93DF9300D0DD
:103870001F92CDB7DEB78C0149835A836B837C835B
:103880005901C12CD12C7601412C82E0582E612C9B
:10389000712C49815A816B817C819E012F5F3F4F42
:1038A000C8010E949421882351F1D301C201F8017B
:1038B000058404C0880F991FAA1FBB1F0A94D2F762
:1038C000C80ED91EEA1EFB1E49815A816B817C817C
:1038D0008789803129F088EF9FEFAFEFBFE004C008
:1038E00088EF9FEFA0E0B0E0481759076A077B0711
:1038F00080F2F501C082D182E282F38281E00F90F2
:103900000F900F900F90DF91CF911F910F91FF902B
:10391000EF90DF90CF90BF90AF907F906F905F90CF
:103920004F900895CF93DF93EC0180E2689FF00100
:103930001124EB5EF94E6A8B80910602909107028A
:10394000A0910802B09109028E879F87A88BB98B3E
:103950004489558960E070E0BA0155274427828D7B
:10396000938DA0E0B0E0482B592B6A2B7B2B4F8B1B
:10397000588F698F7A8F8385887151F4848D958DE6
:10398000A68DB78D8B8B9C8BAD8BBE8B81E00EC0D3
:10399000803111F080E015C09E012D5E3F4F8B8D70
:1039A0009C8D0E94291C8823A9F384E08D8381E0EB
:1039B0008C831E821F82188619861A861B861C8697
:1039C0001D86DF91CF910895AF92BF92CF92DF9283
:1039D000EF92FF920F931F93CF93DF93CDB7DEB794
:1039E0002B970FB6F894DEBF0FBECDBF6C01FE0162
:1039F0003196CE010C967F0120E22193E817F9075A
:103A0000E1F7DA0120E037E09D91992331F19E3210
:103A100031F43A3009F4AAC028E03AE0F5CFE0E406
:103A2000F7E08491882321F031969813FACF9EC055
:103A3000321708F49BC08FED890F8E3508F096C0C1
:103A400081E0820FF701E20FF11D2FE9290F2A31E2
:103A500008F490529083282FD7CF8981803209F4BF
:103A600085C08B01FB01838D948DF601948F838F2C
:103A7000FB01168217821086118612861386148621
:103A80001586B12CF80182859385A485B585438977
:103A900054896589768984179507A607B70708F0C2
:103AA00065C025E0B695A795979587952A95D1F796
:103AB000F82FFF70AF2EF8018581823008F456C0D0
:103AC000C8010E94FD0997FD51C0F80182859385C8
:103AD000A485B5854F96A11DB11D82879387A487C4
:103AE000B587F0E2AF9EB00111246B5E794E61158F
:103AF0007105E1F1FB0180818823F1F0853E99F1A8
:103B00004BE050E0C7010E94D830892B09F0BACFB2
:103B10006A2DC6012B960FB6F894DEBF0FBECDBF3F
:103B2000DF91CF911F910F91FF90EF90DF90CF9099
:103B3000BF90AF900C94921CB11018C0F601A28AED
:103B40008091060290910702A0910802B0910902AB
:103B500086879787A08BB18BFB018081882331F00A
:103B6000BB24B3948FCFB110FBCFE8CF80E02B966E
:103B70000FB6F894DEBF0FBECDBFDF91CF911F917E
:103B80000F91FF90EF90DF90CF90BF90AF9008958E
:103B90000895EF92FF920F931F93DC01ED91FC913A
:103BA000048CF58DE02D19951F910F91FF90EF90EA
:103BB00008950F931F93DC01ED91FC91028CF38D1E
:103BC000E02D19951F910F9108950F931F93DC011C
:103BD000ED91FC91008CF18DE02D19951F910F91C5
:103BE0000895DC01ED91FC910480F581E02D19949C
:103BF0002F923F924F925F926F927F928F929F92FD
:103C0000AF92BF92CF92DF92EF92FF920F931F93EA
:103C1000CF93DF9300D000D0CDB7DEB72C017E83E9
:103C20006D836A015901C801FC82EB824801841A44
:103C3000950A97FE03C091948194910835012D81D6
:103C40003E81621A730A77FE03C071946194710811
:103C5000681479045CF43A2D2B2D5C01832F922F8C
:103C60003D812E81DE82CD82C32ED22EAD81BE81DA
:103C7000AA16BB065CF43C2D2D2D6C01832F922FD0
:103C80003D812E81BE82AD82A32EB22E85012D8173
:103C90003E81021B130B1C012C183D0837FE03C08C
:103CA000319421943108780117FF03C03FEFE31AE4
:103CB000F30AF594E794C816D9062CF08FEF9FEF1E
:103CC0009A83898304C0A1E0B0E0BA83A9832D81DF
:103CD0003E81A216B30624F1D201ED91FC9100843D
:103CE000F185E02D2B813C816814790424F44D8109
:103CF0005E81B60103C0A6016D817E81C201199566
:103D0000E218F308F7FE06C029813A81C20ED31EDD
:103D1000E00EF11E8D819E8101969E838D83D7CF0B
:103D200026960FB6F894DEBF0FBECDBFDF91CF91C0
:103D30001F910F91FF90EF90DF90CF90BF90AF90C9
:103D40009F908F907F906F905F904F903F902F90BB
:103D50000895CF93DF931F92CDB7DEB7698341E01B
:103D600050E0BE016F5F7F4F0E9452080F90DF91BD
:103D7000CF91089561E0FC0184810C94E70CCF930E
:103D8000DF93EC018FEF8EBD2FEF8F819885AC0113
:103D90004F5F5F4F58874F838130924028F40DB4B6
:103DA00007FEFDCF2EBDF1CF0DB407FEFDCFCE0136
:103DB0000E94BA1E1E82DF91CF9108958EBD0DB470
:103DC00007FEFDCF08958FEF0E94DE1E8EB5089589
:103DD0000F931F93CF93DF93EB010E94780D8B011C
:103DE0000E94E31E8F3F49F00E94780D601B710B0B
:103DF0006C177D07A8F380E001C081E0DF91CF91CF
:103E00001F910F9108958F929F92AF92BF92FF9250
:103E10000F931F93CF93DF93EC01F62E49015A01C4
:103E20008E81882319F0CE010E94BF1E60E08C8134
:103E30000E94E70C6CE271E0CE010E94E81E8F2D1B
:103E400080640E94DE1E08E110E0D501C401002E4E
:103E500004C0B695A795979587950A94D2F70E94C6
:103E6000DE1E08501109083F8FEF180771F7FF2079
:103E700029F088E0F81204C087E803C085E901C092
:103E80008FEF0E94DE1E10E00E94E31E8A8787FFEC
:103E900004C01F3F11F01F5FF7CFDF91CF911F913B
:103EA0000F91FF90BF90AF909F908F900895AF9229
:103EB000BF92CF92DF92EF92FF920F931F93CF9317
:103EC000DF93EC016901C801820F931F813092409A
:103ED00008F085C08E81882371F088819981AA813C
:103EE000BB8184179507A607B70729F48F819885AA
:103EF000C816D906B0F5488359836A837B838B85BE
:103F0000833039F089E0440F551F661F771F8A956B
:103F1000D1F79A01AB0161E1CE010E94031F882312
:103F200019F083E08D835BC00E94780D5B010E94D5
:103F3000E31E8A878F3F49F40E94780D6A197B0936
:103F40006D327140A0F38FE003C08E3F31F08DE001
:103F50008D83CE010E94BA1E42C018861F8281E066
:103F60008E838FEF8EBD2FEF8F8198858C159D05E9
:103F700050F40DB407FEFDCF2EBD8F8198850196BC
:103F800098878F83F1CFC8010197F7012FEFAF0119
:103F90004E195F094817590738F40DB407FEFDCFD5
:103FA0003EB531932EBDF3CF0DB407FEFDCF2EB538
:103FB000F701E80FF91F20838F819885080F191FDB
:103FC00018870F838985882319F00115124060F046
:103FD0008E81882349F0CE010E94BF1E05C0CE010C
:103FE0000E94BA1E80E001C081E0DF91CF911F9155
:103FF0000F91FF90EF90DF90CF90BF90AF9008951A
:104000000F931F93CF93DF93EC0189014115510565
:104010006105710511F482E144C08B85833039F06C
:1040200089E0440F551F661F771F8A95D1F79A01C3
:10403000AB0168E1CE010E94031F882311F084E0E8
:1040400030C08EEF8EBDF801C8019E5F0DB407FE33
:10405000FDCF20812EBD0DB407FEFDCF21812EBDE9
:1040600032968E179F0791F70DB407FEFDCF8FEFA5
:104070000E94DE1E8FEF0E94DE1E0E94E31E8A87D2
:104080008F71853031F081E18D83CE010E94BA1E9F
:1040900009C068E572E0CE010E94E81E811107C0E8
:1040A00085E18D83CE010E94BA1E80E013C020E01E
:1040B00030E0A9016DE0CE010E94031F811104C010
:1040C0000E94E31E882311F084E1EBCFCE010E9411
:1040D000BA1E81E0DF91CF911F910F9108958091D9
:1040E00014168823A9F140910602509107026091AD
:1040F00008027091090225E136E180910E14909139
:104100000F140E940020811102C080E008954091A8
:10411000591B50915A1B60915B1B70915C1B4115A0
:1041200051056105710591F025E136E180910E148C
:1041300090910F140E940020882339F31092591B8C
:1041400010925A1B10925B1B10925C1B109214165B
:1041500081E008958F929F92AF92BF92EF92FF926B
:104160000F931F93CF934B015C01C42F80910602E4
:1041700090910702A0910802B09109028815990553
:10418000AA05BB0501F10E946F20811102C080E0E9
:1041900020C085E1E82E86E1F82E00E012E020E064
:1041A00030E0B501A40180910E1490910F140E948B
:1041B000571F882361F38092060290920702A09213
:1041C0000802B092090280911416C82BC0931416ED
:1041D00081E0CF911F910F91FF90EF90BF90AF9032
:1041E0009F908F9008954F925F926F927F928F92DF
:1041F0009F92AF92BF92CF92DF92EF92FF920F9376
:104200001F93CF93DF93EC01423051056105710597
:1042100010F480E078C089859A85AB85BC850196CD
:10422000A11DB11D84179507A607B70790F3CB888A
:10423000DC88ED88FE888F89803129F4BB27A72F81
:10424000962F852F09C0DB01CA01E7E0B695A79537
:1042500097958795EA95D1F7480159012A013B01C5
:10426000C80ED91EEA1EFB1E80910602909107021D
:10427000A0910802B0910902C816D906EA06FB0609
:1042800081F48F898031A9F4B301A20155276627F3
:104290007727440F551FFA01EB5EF94E9182808219
:1042A00019C040E0C701B6010E94AA208111E9CFE0
:1042B000B0CFB301A2014F77552766277727440F68
:1042C000551F440F551FFA01EB5EF94E8082918213
:1042D000A282B382809114168160809314168A8919
:1042E000823080F08D819E81AF81B885C80ED91E45
:1042F000EA1EFB1EC092591BD0925A1BE0925B1B18
:10430000F0925C1B81E0DF91CF911F910F91FF90A4
:10431000EF90DF90CF90BF90AF909F908F907F9065
:104320006F905F904F9008958F929F92AF92BF923F
:10433000CF92DF92EF92FF920F931F93CF93DF9371
:10434000FC0181859285A385B4850196A11DB11DCF
:1043500084179507A607B70710F480E05BC0838831
:104360009488A588B6888789803129F4BB27A72F30
:10437000962F852F09C0DB01CA01C7E0B695A79526
:1043800097958795CA95D1F7E9016A017B018F015D
:10439000BC01CD01680D791D8A1D9B1D8090060210
:1043A00090900702A0900802B09009026815790564
:1043B0008A059B0591F4F80187898031A1F4DD24F9
:1043C000EE24FF24C601880F991FFC01EB5EF94E15
:1043D00080819181A0E0B0E018C040E00E94AA2056
:1043E0008111E9CFBACFE894C7F8DD24EE24FF2489
:1043F000C601880F991F880F991FFC01EB5EF94ECB
:1044000080819181A281B381BF7088839983AA83BF
:10441000BB8381E0DF91CF911F910F91FF90EF90CF
:10442000DF90CF90BF90AF909F908F9008950F93A3
:104430001F93CF93DF93CDB7DEB7C054D1090FB62A
:10444000F894DEBF0FBECDBF8C01FC01EE0FFF1F45
:10445000EE0FFF1FE65AFC4F60817181CE0101967D
:104460000E940018809102149091031408171907F4
:1044700059F08FEF9FEF9093BD1A8093BC1A109262
:10448000BF1A1092BE1A0AC01092BD1A1092BC1A1E
:104490008FEF9FEF9093BF1A8093BE1A1092B91AB4
:1044A0001092B81A83E0000F111F8A95E1F710935C
:1044B000BB1A0093BA1ABE01665F7F4F8CEA9AE17D
:1044C0000E94610CC05CDF4F0FB6F894DEBF0FBED8
:1044D000CDBFDF91CF911F910F910895EF92FF9281
:1044E0000F931F93EAE4F3E082819381A081B1816D
:1044F0009C0124503109AD014450510966817781F6
:10450000680F791F64507109848195818A0F9B1F00
:10451000E9E0EE2EF12C09E010E004970E945C1512
:10452000E2E5F3E042815381445051096081718199
:1045300064507109E12CF8EFFF2E29E030E08CEA9D
:104540009AE10E949F0F1F910F91FF90EF900895A5
:10455000EF92FF920F931F93E12CF12C00EF10E0EC
:1045600020E330E040E050E060E171E08CEA9AE165
:104570000E949F0FE2E5F3E06681778180EFE82EED
:10458000F12C00E111E020E030E040E050E08481D7
:1045900095810E945C150E946E2210920514109263
:1045A00004141F910F91FF90EF9008951F920F92A6
:1045B0000FB60F9211242F933F938F939F93AF9336
:1045C000BF938091061490910714A0910814B091A4
:1045D000091430915D1B23E0230F2D3720F4019641
:1045E000A11DB11D05C026E8230F0296A11DB11D16
:1045F00020935D1B8093061490930714A0930814D6
:10460000B093091480910A1490910B14A0910C148A
:10461000B0910D140196A11DB11D80930A149093C1
:104620000B14A0930C14B0930D14BF91AF919F91F4
:104630008F913F912F910F900FBE0F901F90189563
:10464000CF93DF93CDB7DEB7C154D1090FB6F8943D
:10465000DEBF0FBECDBF789484B5826084BD84B5C3
:10466000816084BD85B5826085BD85B5816085BD6D
:1046700080916E00816080936E0010928100809125
:1046800081008260809381008091810081608093AD
:104690008100809180008160809380008091B100D2
:1046A00084608093B1008091B00081608093B000FD
:1046B000809191008260809391008091910081604F
:1046C0008093910080919000816080939000809110
:1046D000A10082608093A1008091A10081608093FD
:1046E000A1008091A00081608093A00080912101B1
:1046F000826080932101809121018160809321015A
:104700008091200181608093200180917A008460F3
:1047100080937A0080917A00826080937A00809101
:104720007A00816080937A0080917A00806880931B
:104730007A001092C10062E082E00E94160DE091C2
:10474000921AF091931A81E090E09C0100909E1AD9
:1047500002C0220F331F0A94E2F72083E0918E1AE1
:10476000F0918F1A1082E091901AF091911A2FEC2B
:10477000208310929F1AE091941AF091951A40812B
:104780009C0100909A1A02C0220F331F0A94E2F78C
:10479000242B2083E091941AF091951A40819C017A
:1047A00000909B1A02C0220F331F0A94E2F7242BB9
:1047B0002083E091941AF091951A40819C01009019
:1047C0009C1A02C0220F331F0A94E2F7242B208385
:1047D000E091941AF091951A208100909D1A02C0E0
:1047E000880F991F0A94E2F780958223808380E0E6
:1047F00092E1AAE7B0E08093C61A9093C71AA093FB
:10480000C81AB093C91A61E08091CB1A0E94160DA4
:1048100060E08091CB1A0E94E70C61E08091CA1A97
:104820000E94160D61E08091CA1A0E94E70C8091E7
:10483000CD1A87FD1FC061E08091CE1A0E94160D2F
:1048400060E08091CE1A0E94E70C61E08091CD1A61
:104850000E94160D61E08091CD1A0E94E70C8091B4
:10486000CF1A87FD03C060E00E94160D8091CD1A1B
:1048700087FF16C061E085E30E94E70C61E085E3F5
:104880000E94160D8CB580618CBD8CB580648CBD8A
:1048900061E084E30E94160D61E083E30E94160D3F
:1048A0008091CC1A87FD24C061E00E94160D61E062
:1048B0008091CC1A0E94E70C64E670E080E090E002
:1048C0000E94520D60E08091CC1A0E94E70C64E6D1
:1048D00070E080E090E00E94520D61E08091CC1A7F
:1048E0000E94E70C68EC70E080E090E00E94520DBE
:1048F0008CEA9AE10E9419136FEE8CEA9AE10E9409
:104900005C1363E08CEA9AE10E94311360E88CEA60
:104910009AE10E94311362E08CEA9AE10E9431131D
:104920006FEC8CEA9AE10E945C1360E08CEA9AE1F9
:104930000E94311361EC8CEA9AE10E94311360E32A
:104940008CEA9AE10E9431136DEE8CEA9AE10E94A2
:104950005C1364E68CEA9AE10E94311363E08CEA0E
:104960009AE10E94311362E18CEA9AE10E943113CC
:1049700061E88CEA9AE10E94311368EE8CEA9AE1D0
:104980000E945C1365E88CEA9AE10E94311360E0B2
:104990008CEA9AE10E94311368E78CEA9AE10E945E
:1049A00031136BEC8CEA9AE10E945C1369E38CEAA8
:1049B0009AE10E9431136CE28CEA9AE10E94311371
:1049C00060E08CEA9AE10E94311364E38CEA9AE198
:1049D0000E94311362E08CEA9AE10E94311367EF82
:1049E0008CEA9AE10E945C1360E28CEA9AE10E94F0
:1049F00031136AEE8CEA9AE10E945C1360E08CEA63
:104A00009AE10E94311360E08CEA9AE10E9431132E
:104A100060EC8CEA9AE10E945C1363E28CEA9AE112
:104A20000E94311361EC8CEA9AE10E945C1360E110
:104A30008CEA9AE10E94311365EC8CEA9AE10E94BB
:104A40005C136EE38CEA9AE10E94311368E28CEA0F
:104A50009AE10E94311367EC8CEA9AE10E945C13A0
:104A600066E88CEA9AE10E94311366E38CEA9AE1E7
:104A70000E945C1368E48CEA9AE10E94311367E3B8
:104A80008CEA9AE10E945C138091CD1A87FF09C0DD
:104A90001EBC0DB407FEFDCF1EBC0DB407FEFDCF3E
:104AA0000AC060E08CEA9AE10E94311360E08CEA6F
:104AB0009AE10E9431136AE38CEA9AE10E945C1346
:104AC00065E58CEA9AE10E94311361EB8CEA9AE188
:104AD0000E945C1360E08CEA9AE10E94311368E165
:104AE0008CEA9AE10E94311366EB8CEA9AE10E940B
:104AF0005C1368E08CEA9AE10E94311362E88CEA68
:104B00009AE10E94311367E28CEA9AE10E94311324
:104B100062EF8CEA9AE10E945C1360E08CEA9AE111
:104B20000E94311366E28CEA9AE10E945C1361E014
:104B30008CEA9AE10E94311360EE8CEA9AE10E94BD
:104B40005C136FE08CEA9AE10E94311361E38CEA16
:104B50009AE10E9431136BE28CEA9AE10E943113D0
:104B60006CE08CEA9AE10E9431136EE08CEA9AE1E3
:104B70000E94311368E08CEA9AE10E9431136EE4DE
:104B80008CEA9AE10E94311361EF8CEA9AE10E946B
:104B9000311367E38CEA9AE10E94311367E08CEAF3
:104BA0009AE10E94311360E18CEA9AE10E9431138C
:104BB00063E08CEA9AE10E9431136EE08CEA9AE19C
:104BC0000E94311369E08CEA9AE10E94311360E09F
:104BD0008CEA9AE10E94311361EE8CEA9AE10E941C
:104BE0005C1360E08CEA9AE10E9431136EE08CEA7B
:104BF0009AE10E94311364E18CEA9AE10E94311338
:104C000063E08CEA9AE10E94311361E18CEA9AE157
:104C10000E94311367E08CEA9AE10E94311361E34C
:104C20008CEA9AE10E94311361EC8CEA9AE10E94CD
:104C3000311368E48CEA9AE10E94311368E08CEA4F
:104C40009AE10E9431136FE08CEA9AE10E943113DD
:104C50006CE08CEA9AE10E94311361E38CEA9AE1FC
:104C60000E94311366E38CEA9AE10E9431136FE0EF
:104C70008CEA9AE10E94311361E18CEA9AE10E9488
:104C80005C1368E770E080E090E00E94520D69E2FA
:104C90008CEA9AE10E945C1368E770E080E090E0A3
:104CA0000E94520D8CEA9AE10E94821080EF90E0FF
:104CB0009093B51A8093B41A80E491E09093B71A58
:104CC0008093B61A6AE772E08EE79AE10E94610C5F
:104CD00085E198E10E94B619882309F4B5C681E000
:104CE0000E947C1A882329F080914418882341F07F
:104CF000ABC680E00E947C1A882309F4A5C6F4CFD5
:104D000080913818803109F582E080934418109220
:104D100056181092571810925818109259188091DE
:104D2000391890913A18A0E0B0E0E5E0880F991F9B
:104D3000AA1FBB1FEA95D1F780935218909353187E
:104D4000A0935418B09355181FC0803209F07CC648
:104D500083E08093441840913B1850913C18609137
:104D60003D1870913E184093561850935718609311
:104D700058187093591822E538E181E298E10E94B1
:104D8000291C882309F460C681E298E190935B189E
:104D900080935A1881E0809343181092451810921E
:104DA00046181092471810924818109249181092FD
:104DB0004A1810924B1810924C1810924D181092DD
:104DC0004E1810924F18109250181092511862E914
:104DD00072E08EE79AE10E94610C80EA9AE10E94FB
:104DE000B619811107C062EC72E08EE79AE10E9469
:104DF000E21BFFCF6AEC72E08EE79AE10E94E21BB1
:104E00006FEF8CEA9AE10E9410151092C21A88E89E
:104E100090E0909353038093520388E790E090933F
:104E200055038093540380E393E09093570380935A
:104E3000560380EC93E090935903809358031092AB
:104E400010141092111410921214109213140E9444
:104E5000A82260EE7FEF8AE190E00E940A190EE13D
:104E600011E01093B91A0093B81A8BE090E0909378
:104E7000BB1A8093BA1A1092BF1A1092BE1A1092DF
:104E8000BD1A1092BC1A84E08093C01A65E070E0ED
:104E90008CEA9AE10E946E1860EE7FEF88E490E061
:104EA0000E940A191093B91A0093B81A89E390E086
:104EB0009093BB1A8093BA1A64E070E08CEA9AE18E
:104EC0000E946E1860EE7FEF86E790E00E940A195C
:104ED0001093B91A0093B81A87E690E09093BB1A22
:104EE0008093BA1A63E070E08CEA9AE10E946E182F
:104EF00060EE7FEF84EA90E00E940A191093B91ADD
:104F00000093B81A85E990E09093BB1A8093BA1A7F
:104F100062E070E08CEA9AE10E946E1860EE7FEF2A
:104F200082ED90E00E940A191093B91A0093B81A02
:104F300083EC90E09093BB1A8093BA1A61E070E022
:104F40008CEA9AE10E946E1877E5872E7EEA972E0A
:104F5000AA24AA94BA2C8091041490910514892B48
:104F600009F08FC487E30E94760C8C0186E30E94CF
:104F7000760C7C010E94AA1B6C01013022E0120712
:104F80002CF0013432E0130744F42EC080E092E0AC
:104F9000801B910B813491053CF1125017FF02C028
:104FA000015C1F4F66E0159507956A95E1F78091C2
:104FB000540390915503080F191F0430110534F064
:104FC0000C3E11052CF00BEE10E002C004E010E0E6
:104FD000109355030093540341E080914C0390914A
:104FE0004D038017910709F440E061E0E61662E0A6
:104FF000F60634F081E4E81682E0F80644F432C0A4
:1050000080E092E08E199F09813491055CF180E087
:1050100092E08E199F0997FDCF9656E0959587955A
:105020005A95E1F72091520330915303820F931F59
:10503000843091053CF08C30E1E09E072CF08BE051
:1050400091E002C084E090E0909353038093520378
:1050500021E060914A0370914B036817790709F4C6
:1050600020E0422B442309F45FC020915203309189
:10507000530380915603909157032B30F1E03F0783
:1050800039F4803F26E09207B1F0805F9E4F07C061
:105090002430310581F4009771F080519140909354
:1050A00057038093560388E890E0909353038093CE
:1050B000520321E001C020E0409154035091550378
:1050C00080915803909159034B3E510539F480313A
:1050D00037E09307A9F080519F4F07C04430510536
:1050E00079F4009769F0805F910990935903809358
:1050F000580388E790E09093550380935403B1C41C
:105100002111AFC4809156039091570390934F03A0
:1051100080934E03809158039091590390935103CB
:10512000809350030E946E2288E0E2E5F3E0AAE457
:10513000B3E001900D928A95E1F7CD2809F0EEC019
:105140001092B91A1092B81A1092BB1A1092BA1A89
:1051500060E070E08CEA9AE10E9445124AE5E42E94
:1051600043E0F42EC12CD12CB601CE0101960E9451
:105170000018F701D182C08289819A81AB81BC81FC
:10518000825C904DA145B109BC01CD013BE0660FA9
:10519000771F881F991F3A95D1F7A50194010E94A6
:1051A000542F60915803709159038091540390914A
:1051B0005503860F971F8901081B190B17FF03C0A2
:1051C0001195019511098D819E81AF81B885845318
:1051D0009748A245BF4FBC01CD012BE0660F771F5A
:1051E000881F991F2A95D1F724E539E840E050E05F
:1051F0000E94542F6091560370915703809152037F
:1052000090915303860F971F2901481A590A57FE98
:1052100003C0519441945108400E511EF70153822E
:105220004282FFEFCF1ADF0A24E0E20EF11C3AE2DD
:10523000C31634E0D30609F097CF02E0602E04E1F4
:10524000702E29E234E0AAE5B3E080E090E041E08E
:1052500050E0BC01660F771F660F771F665A7C4FC0
:1052600016960D911C911797FB016281738160174F
:10527000710708F4CA014F5F5F4F14962417350772
:1052800044F7880F991F880F991FDC01A65ABC4F5D
:10529000F30172916291529142913F01CD90DD9064
:1052A000ED90FC901397C082D182E282F3824D93FD
:1052B0005D936D937C9313972150310921F61092E1
:1052C00003141092021400E010E0C8010E9417229B
:1052D0000F5F1F4F0E311105C1F781E090E09093F1
:1052E00005148093041461E070E08EE79AE10E9457
:1052F0006E188EE79AE10E94CE1B6EEC72E08EE78C
:105300009AE10E94E21B0E94AA1B892B39F46AE0F1
:1053100070E080E090E00E94520DF5CF60E0809157
:10532000E11A0E94160D60E08091E21A0E94160DAB
:1053300061E08091E41A0E94160D61E08091E31A09
:105340000E94160D9091EF1AE091E71AF091E81A79
:105350008081892B80838091F01AE091EB1AF09183
:10536000EC1A90818095892380838091E11A0E94B4
:10537000760C8C018091E11A0E94760C9801281B12
:10538000390B2C5F3F4F2930310548F4800F911FB6
:1053900095958795F1E02296FFAF229703C022965C
:1053A0001FAE22972FEF33E07901E81AF90A60E087
:1053B0008091E41A0E94160D60E08091E31A0E9429
:1053C000160D61E08091E11A0E94160D61E0809156
:1053D000E21A0E94160D8091F21AE091ED1AF091F6
:1053E000EE1A90818095892380839091F11AE09143
:1053F000E91AF091EA1A8081892B80838091E31A5F
:105400000E94760C8C018091E31A0E94760C6C014C
:10541000C8018C199D090496099728F4C00ED11E65
:10542000D594C79403C022961FAE229761E0809165
:10543000E41A0E94160D60E08091E11A0E94160D98
:105440008091EF1AE091E71AF091E81A9081809527
:10545000892380839091F21AE091ED1AF091EE1A6F
:105460008081892B80838091E31A0E94760C8C01C5
:105470008091E11A0E94760C2090E51A3090E61A8D
:1054800021143104D9F1BC01990F880B990B0E94AA
:1054900016322B013C01B801110F880B990B0E94A9
:1054A00016329B01AC01C301B2010E946C3120E0B5
:1054B00030E040E85FE30E94FF302B013C01B70180
:1054C0000F2C000C880B990B0E941632A30192013D
:1054D0000E94A2322B013C01B10180E090E00E94C9
:1054E0001432A30192010E94A23220E030E040E891
:1054F0005AE30E94A2320E94DE3105C0B801681B47
:10550000790B61507C4F22962FAD2297211102C05A
:1055100060E070E06A5071096F3D734008F01BCD88
:105520002FEF33E02C193D09C901330FAA0BBB0B38
:105530009C01AD012857310941095109A1ECBEEF89
:105540000E94812F24E333E040E050E00E94542F7A
:10555000DA01C901815C9E4FAF4FBF4F813191404D
:105560000CF4F9CCC701FF0CAA0BBB0B9C01AD01DD
:105570002659310941095109AFEEB0E00E94732F5D
:1055800022E033E040E050E00E94542FC90101972F
:105590008F97D8F460EE7FEF8AE190E00E940A19BD
:1055A0000EE111E01093B91A0093B81A8BE090E065
:1055B0009093BB1A8093BA1A65E070E08CEA9AE186
:1055C0000E946E186FEF7FEF1FC0C901C1978F97C0
:1055D00008F071C060EE7FEF8AE190E00E940A1946
:1055E0000EE111E01093B91A0093B81A8BE090E025
:1055F0009093BB1A8093BA1A65E070E08CEA9AE146
:105600000E946E1860EE7FEF88E490E00E940A1915
:105610001093B91A0093B81A89E390E09093BB1ADB
:105620008093BA1A64E070E08CEA9AE10E946E18E6
:105630006FEF7FEF86E790E00E940A191093B91A86
:105640000093B81A87E690E09093BB1A8093BA1A39
:1056500063E070E08CEA9AE10E946E186FEF7FEFD2
:1056600084EA90E00E940A191093B91A0093B81ABC
:1056700085E990E09093BB1A8093BA1A62E070E0DB
:105680008CEA9AE10E946E186FEF7FEF82ED90E056
:105690000E940A191093B91A0093B81A83EC90E08B
:1056A0009093BB1A8093BA1A61E070E08CEA9AE199
:1056B0000E946E1850CCC901815691098F9788F5C8
:1056C00060EE7FEF8AE190E00E940A190EE111E09E
:1056D0001093B91A0093B81A8BE090E09093BB1A1C
:1056E0008093BA1A65E070E08CEA9AE10E946E1825
:1056F00060EE7FEF88E490E00E940A191093B91AD7
:105700000093B81A89E390E09093BB1A8093BA1A79
:1057100064E070E08CEA9AE10E946E1860EE7FEF20
:1057200089CFC901815991098F9708F047C060EE70
:105730007FEF8AE190E00E940A190EE111E01093D8
:10574000B91A0093B81A8BE090E09093BB1A80933B
:10575000BA1A65E070E08CEA9AE10E946E1860EE79
:105760007FEF88E490E00E940A191093B91A009321
:10577000B81A89E390E09093BB1A8093BA1A64E058
:1057800070E08CEA9AE10E946E1860EE7FEF86E787
:1057900090E00E940A191093B91A0093B81A87E68C
:1057A00090E09093BB1A8093BA1A63E070E08CEAA1
:1057B0009AE10E946E1860EE7FEF52CF215C3109B2
:1057C0002F32310508F0C7CB60EE7FEF8AE190E021
:1057D0000E940A190EE111E01093B91A0093B81A49
:1057E0008BE090E09093BB1A8093BA1A65E070E06A
:1057F0008CEA9AE10E946E1860EE7FEF88E490E0F8
:105800000E940A191093B91A0093B81A89E390E01C
:105810009093BB1A8093BA1A64E070E08CEA9AE124
:105820000E946E1860EE7FEF86E790E00E940A19F2
:105830001093B91A0093B81A87E690E09093BB1AB8
:105840008093BA1A63E070E08CEA9AE10E946E18C5
:1058500060EE7FEF84EA90E00E940A191093B91A73
:105860000093B81A85E990E09093BB1A8093BA1A16
:1058700062E070E08CEA9AE10E946E1860EE7FEFC1
:1058800005CF009102141091031487E30E94760C57
:10589000813462E096071CF0C801019605C0803C87
:1058A000914034F4C801019790930314809302143B
:1058B00080910214909103148E31910514F08DE1C2
:1058C00090E097FF02C080E090E0909303148093F3
:1058D00002140817190779F0C8010E941722809155
:1058E0000214909103140E94172262E370E080E09A
:1058F00090E00E94520D0E94AA1B8C01892B09F096
:105900002ACBE0910214F0910314EE0FFF1FEE0F6B
:10591000FF1FE65AFC4F60817181CE0101960E9403
:1059200000188D819E81AF81B88584539748A24528
:10593000BF4FBC01CD01EBE0660F771F881F991F99
:10594000EA95D1F724E539E840E050E00E94542F71
:1059500029013A01283831054CF02937F7E03F0793
:1059600044F4690128E8C21AD10807C0C12CD12C1F
:1059700004C040EFC42E46E0D42ED0925703C0920C
:10598000560389819A81AB81BC81825C904DA1458F
:10599000B109BC01CD013BE0660F771F881F991F3D
:1059A0003A95D1F7A50194010E94542F283731056B
:1059B00054F0293867E0360724F4890108571109A3
:1059C00002C000E117E010935903009358034C18EC
:1059D0005D0884E0481651044CF0C201ECE04E161C
:1059E000E1E05E062CF08BE091E002C084E090E004
:1059F0009093530380935203201B310B24303105C5
:105A000034F02C3E31052CF02BEE30E002C024E0C7
:105A100030E0309355032093540388E0E2E5F3E04F
:105A2000AAE4B3E001900D928A95E1F70E94A822C2
:105A30000E94AA1B892B09F08ECA6AE070E080E000
:105A400090E00E94520DF4CF62EC72E08EE79AE192
:105A50000E94E21B6CED72E08EE79AE10E94E21B6D
:105A6000FFCF8091560390915703813FF6E09F0747
:105A700014F080EF96E097FF02C080E090E09093F2
:105A80005703809356036091580370915903613115
:105A900027E0720714F060E177E077FF02C060E072
:105AA00070E0709359036093580320EFE22EF12CBD
:105AB00000E111E020E030E040E050E00E945C15A1
:105AC00021CBCF92DF92EF92FF92E5E1F8E11582D0
:105AD00016821186138682E090E0A0E0B0E0848711
