:100000000C94FC030C942D040C942D040C942D04DE
:100010000C942D040C942D040C942D040C942D049C
:100020000C942D040C942D040C942D040C942D048C
:100030000C942D040C942D040C942D040C942D047C
:100040000C942D040C942D040C942D040C942D046C
:100050000C942D040C942D040C942D040C94EE049B
:100060000C942D040C94370D0C945F0C0C942D04FF
:100070000C942D040C942D040C942D040C942D043C
:100080000C942D040C942D040C942D040C942D042C
:100090000C94040D0C94200C0C942D040C942D0441
:1000A0000C942D040C942D040C942D040C942D040C
:1000B0000C942D040C942D040C942D040C942D04FC
:1000C0000C942D040C942D040C942D040C94D10C40
:1000D0000C94E10B0C942D040C949E0C0C94A20B2C
:1000E0000C942D04B50DB80DAB0DAF0DEF0DBC0D7F
:1000F000C00DC60DCA0DCE0DD40DD80DDC0DEF0D03
:10010000E20DE60DEA0D0C94FE1E0C94AB0D0C9462
:10011000C60D0C94E60D0C9482120C94CE0D0C942A
:10012000FC150C94F8050C948B110C94E20D0C94B6
:10013000CA0D0C94AF0D0C946F050C94EA0A0C9444
:10014000270B0C9422140C941D0B0C94BC050C94DE
:10015000A7100C94D40D0C94BD150C9459050C9457
:1001600038050C94B1050C949F2A0C942C150C9412
:10017000AF1F0C94D80D0C94B80D0C94C00D0C94BA
:1001800019160C94A8060C9477110C9439110C9440
:1001900064110C94EF0D0C94DC0D0C944E130C9424
:1001A000A8100C94DB100C94DC050C94E1120C9458
:1001B00022060C94B50D0C94BC0D0C94AC110C944F
:1001C0000A110C94EA0D00002100240027002A00E7
:1001D0002D003000330001010000040107010A0175
:1001E00000000000003E5B4F5B3E3E6B4F6B3E1CD1
:1001F0003E7C3E1C183C7E3C181C577D571C1C5EE8
:100200007F5E1C00183C1800FFE7C3E7FF001824BE
:100210001800FFE7DBE7FF30483A060E2629792968
:1002200026407F050507407F05253F5A3CE73C5A9D
:100230007F3E1C1C08081C1C3E7F14227F22145F7A
:100240005F005F5F06097F017F006689956A6060D5
:1002500060606094A2FFA29408047E040810207ECF
:10026000201008082A1C08081C2A08081E10101054
:10027000100C1E0C1E0C30383E3830060E3E0E069A
:10028000000000000000005F0000000700070014ED
:100290007F147F14242A7F2A1223130864623649AC
:1002A0005620500008070300001C22410000412294
:1002B0001C002A1C7F1C2A08083E08080080703099
:1002C0000008080808080000606000201008040208
:1002D0003E5149453E00427F40007249494946210E
:1002E00041494D331814127F1027454545393C4A82
:1002F0004949314121110907364949493646494999
:10030000291E0000140000004034000000081422E0
:10031000411414141414004122140802015909064E
:100320003E415D594E7C1211127C7F494949363E4F
:10033000414141227F4141413E7F494949417F0935
:100340000909013E414151737F0808087F00417F40
:1003500041002040413F017F081422417F4040403E
:10036000407F021C027F7F0408107F3E4141413ED6
:100370007F090909063E4151215E7F091929462658
:100380004949493203017F01033F4040403F1F205C
:1003900040201F3F4038403F631408146303047833
:1003A00004036159494D43007F4141410204081053
:1003B00020004141417F040201020440404040408E
:1003C000000307080020545478407F2844443838FC
:1003D00044444428384444287F385454541800086E
:1003E0007E090218A4A49C787F0804047800447D48
:1003F00040002040403D007F1028440000417F40E5
:10040000007C047804787C08040478384444443838
:10041000FC1824241818242418FC7C080404084818
:100420005454542404043F44243C4040207C1C2069
:1004300040201C3C4030403C44281028444C9090C4
:10044000907C4464544C440008364100000077001E
:1004500000004136080002010204023C2623263C2B
:100460001EA1A161123A4040207A385454555921B6
:10047000555579412254547842215554784020549E
:100480005579400C1E5272123955555559395454EC
:10049000545939555454580000457C410002457D5B
:1004A000420001457C407D1211127DF0282528F084
:1004B0007C545545002054547C547C0A097F4932B1
:1004C000494949323A4444443A324A4848303A4128
:1004D00041217A3A42402078009DA0A07D3D4242D1
:1004E000423D3D4040403D3C24FF2424487E49435A
:1004F000662B2FFC2F2BFF0929F620C0887E0903CD
:1005000020545479410000447D413048484A3238F3
:100510004040227A007A0A0A727D0D19317D26291F
:10052000292F28262929292630484D402038080817
:10053000080808080808382F10C8ACBA2F1028344B
:10054000FA00007B000008142A142222142A14083E
:100550005500550055AA55AA55AAFF55FF55FF004D
:100560000000FF00101010FF00141414FF00101002
:10057000FF00FF1010F010F0141414FC001414F716
:1005800000FF0000FF00FF1414F404FC1414171003
:100590001F10101F101F1414141F00101010F00053
:1005A0000000001F101010101F10101010F010008D
:1005B0000000FF101010101010101010FF1000009D
:1005C00000FF140000FF00FF00001F10170000FCD8
:1005D00004F414141710171414F404F40000FF00AA
:1005E000F714141414141414F700F7141414171433
:1005F00010101F101F141414F4141010F010F00039
:10060000001F101F0000001F14000000FC14000059
:10061000F010F01010FF10FF141414FF141010103D
:100620001F00000000F010FFFFFFFFFFF0F0F0F0F0
:10063000F0FFFFFF0000000000FFFF0F0F0F0F0F84
:100640003844443844FC4A4A4A347E0202060602D0
:100650007E027E0263554941633844443C04407E37
:10066000201E2006027E020299A5E7A5991C2A49B0
:100670002A1C4C7201724C304A4D4D30304878483B
:1006800030BC625A463D3E494949007E0101017E27
:100690002A2A2A2A2A44445F444440514A4440407A
:1006A000444A51400000FF0103E080FF00000808B9
:1006B0006B6B083612362436060F090F0600001839
:1006C000180000001010003040FF0101001F010160
:1006D0001E00191D1712003C3C3C3C0000000000AD
:1006E000000020002300260029002C002F003200EB
:1006F000000100000301060109010000090A0208C7
:100700000B0C0D07060304010000000000000000B0
:1007100000000000000000000000000000000000D9
:1007200000000000000011100F0000000000000099
:1007300000000000000000000000000000000000B9
:100740007C3C3E5E2B3D3F2F5B5D3B2C2A225C00B8
:1007500001021020200808102040102040800201D3
:1007600002010804020101020408102040808040B8
:1007700020100804020180040201804020100804B7
:100780000201080402010102040810204080010255
:1007900004081020408000002200250028002B00C3
:1007A0002E003100340002010000050108010B0198
:1007B00005050505070508080808020202020A0ADD
:1007C00008080404040401010101010101010303FB
:1007D000030303030303040707070C0C0C0C0C0CA6
:1007E0000C0C0202020206060606060606060B0BA3
:1007F0000B0B0B0B0B0B9F2A11241FBECFEFD1E26B
:10080000DEBFCDBF00E00CBF13E0A0E0B2E0E8E146
:10081000FCE500E00BBF02C007900D92AA34B107BF
:10082000D9F72BE1AAE4B3E001C01D92AE34B207C0
:10083000E1F713E0CCEFD3E000E006C02197010917
:10084000802FFE010E94DF2DCB3FD10780E00807FB
:10085000A9F70E941D230C94252C0C9400000F93E3
:100860001F93CF93DF93CDB7DEB7C054D1090FB636
:10087000F894DEBF0FBECDBF8C01FC01EE0FFF1F51
:10088000EE0FFF1FE65AFC4F60817181CE01019689
:100890000E940919809102149091031408171907F6
:1008A00059F08FEF9FEF9093BE1A8093BD1A10926C
:1008B000C01A1092BF1A0AC01092BE1A1092BD1A26
:1008C0008FEF9FEF9093C01A8093BF1A1092BA1ABD
:1008D0001092B91A83E0000F111F8A95E1F7109367
:1008E000BC1A0093BB1ABE01665F7F4F8DEA9AE186
:1008F0000E946A0DC05CDF4F0FB6F894DEBF0FBEDA
:10090000CDBFDF91CF911F910F910895EF92FF928C
:100910000F931F93EAE4F3E082819381A081B18178
:100920009C0124503109AD01445051096681778101
:10093000680F791F64507109848195818A0F9B1F0C
:10094000E9E0EE2EF12C09E010E004970E94651614
:10095000E2E5F3E0428153814450510960817181A5
:1009600064507109E12CF8EFFF2E29E030E08DEAA8
:100970009AE10E94A8101F910F91FF90EF900895A7
:10098000EF92FF920F931F93E12CF12C00EF10E0F8
:1009900020E330E040E050E060E171E08DEA9AE170
:1009A0000E94A810E2E5F3E06681778180EFE82EEF
:1009B000F12C00E111E020E030E040E050E08481E3
:1009C00095810E9465160E9486041092051410926B
:1009D00004141F910F91FF90EF9008951F920F92B2
:1009E0000FB60F9211242F933F938F939F93AF9342
:1009F000BF938091071490910814A0910914B091AD
:100A00000A143091061423E0230F2D3720F40196A9
:100A1000A11DB11D05C026E8230F0296A11DB11D21
:100A2000209306148093071490930814A09309143C
:100A3000B0930A1480910B1490910C14A0910D1492
:100A4000B0910E140196A11DB11D80930B149093CB
:100A50000C14A0930D14B0930E14BF91AF919F91FD
:100A60008F913F912F910F900FBE0F901F9018956F
:100A7000DC015996ED91FC915A973097B9F0838932
:100A80009489A589B6894285538564857585841BBB
:100A9000950BA60BB70B811520E89207A105B105B0
:100AA00038F08FEF9FE7A0E0B0E0089580E090E09D
:100AB0000895CF93DF931F92CDB7DEB76983DC0132
:100AC000ED91FC910280F381E02D41E050E0BE0108
:100AD0006F5F7F4F19950F90DF91CF9108950F931E
:100AE0001F93CF93DF93FC01A685B7858D01005C32
:100AF0001F4FE8018881998101968F739927AD0175
:100B00004E5B5F4FEA012881398128173907D1F3FD
:100B1000E80128813981A20FB31F6C93A685B785A0
:100B2000A05CBF4F11969C938E93A689B7892C9198
:100B300081E090E0078C02C0880F991F0A94E2F7C9
:100B4000822B8C9381E081A30488F589E02D80813C
:100B50008064808381E090E0DF91CF911F910F91BD
:100B60000895FC0181A1882329F0A489B5898C917D
:100B700086FFFBCF11A20895FC01A485B585FD0178
:100B8000E05CFF4F2081318132968081918128176E
:100B9000390779F080819181A80FB91F8C9120814C
:100BA00031812F5F3F4F2F7333273183208390E0B4
:100BB00008958FEF9FEF0895DC011C96ED91FC9155
:100BC0001D97DF01A05CBF4F2D913C9111971296AC
:100BD0008D919C9111972817390739F08D919C912F
:100BE000E80FF91F808190E008958FEF9FEF08953F
:100BF000FC0124853585F901E05CFF4F80819181FE
:100C0000329620813181821B930B8F73992708952F
:100C1000FB01E05CFF4F20813181DB01AE5BBF4F08
:100C20004D915C912F5F3F4F2F733327421753072E
:100C300041F040815181DB01A40FB51F8C933183BA
:100C400020830895CF92DF92EF92FF920F931F932C
:100C5000CF93DF936C01EB017B01E40EF51E00E006
:100C600010E0CE15DF0561F06991D601ED91FC91A0
:100C70000190F081E02DC6011995080F191FF1CFE1
:100C8000C801DF91CF911F910F91FF90EF90DF90FE
:100C9000CF9008953FB7F89480910B1490910C1465
:100CA000A0910D14B0910E1426B5A89B05C02F3F3E
:100CB00019F00196A11DB11D3FBFBA2FA92F982F82
:100CC0008827820F911DA11DB11DBC01CD0142E0FD
:100CD000660F771F881F991F4A95D1F70895CF9304
:100CE000DF93EC018D81882379F18C8187FF28C007
:100CF0006E857F858889998941E00E94B02188238B
:100D000019F1EA8980E2E89FF0011124EA5EF94EC8
:100D10003097D1F08D81823040F48B899C89AD89E8
:100D2000BE89848F958FA68FB78F8F89988DA98D57
:100D3000BA8D938F828FB58BA48B8C818F778C83A8
:100D4000DF91CF910C94752180E0DF91CF910895D0
:100D5000FC01818D928D009711F00C946F0608951F
:100D60008F929F92AF92BF92CF92DF92EF92FF92BB
:100D70000F931F93CF93DF93EC018D81811102C0FC
:100D800080E078C00B891C892D893E8904171507DE
:100D900026073707A8F36A017B01823029F4CA8647
:100DA000DB86EC86FD860DC0C114D104E104F1049C
:100DB00051F41E821F82188619861A861B861C868D
:100DC0001D8681E057C08A849B84AC84BD84EB8DF2
:100DD000FC8D258530E0275F3F4FB501A4014150D0
:100DE000510961097109022E04C0769567955795DE
:100DF00047950A94D2F7D701C6010197A109B10915
:100E000004C0B695A795979587952A95D2F784172C
:100E10009507A607B70720F089288A288B2871F440
:100E20004F89588D698D7A8D4E835F836887798766
:100E30004C015D018E010A5F1F4F16C0841B950B8C
:100E4000A60BB70BF5CF4E815F8168857985980138
:100E50008B8D9C8D0E949A2291E0891A9108A1089D
:100E6000B108882309F48CCF81149104A104B10442
:100E700051F795CFDF91CF911F910F91FF90EF9098
:100E8000DF90CF90BF90AF909F908F9008952F925A
:100E90003F924F925F926F927F928F929F92AF920A
:100EA000BF92CF92DF92EF92FF920F931F93CF9357
:100EB000DF93EC016B014A018D81811103C08FEF3B
:100EC0009FEFD7C08C8180FFFACF4B885C886D88FC
:100ED0007E884A855B856C857D85C401A0E0B0E095
:100EE00093018201041B150B260B370B08171907FA
:100EF0002A073B0718F44201841A950A54011E017F
:100F000026E0220E311CA114B10409F47EC04A85EA
:100F10005B856C857D852A0181E05822ED818B8D72
:100F20009C8D8A019B01F9E03695279517950795C9
:100F3000FA95D1F7E23061F4FC01828D938DA48D96
:100F4000B58DBC01CD01600F711F821F931F3FC083
:100F5000FC0174807A94702241145104C9F4711018
:100F600017C0452B462B472B49F48F89988DA98DA7
:100F7000BA8D8E839F83A887B9870AC04E815F810F
:100F80006885798591010E949A22882309F497CF78
:100F9000EB8DFC8D8E819F81A885B9850297A10973
:100FA000B109058404C0880F991FAA1FBB1F0A94AA
:100FB000D2F74685578560897189840F951FA61FD2
:100FC000B71FBC01CD01670D711D811D911D20E072
:100FD00032E02419350935012A153B0508F4390199
:100FE0002C8126FD04C06114F2E07F0681F400919B
:100FF0000602109107022091080230910902601741
:10100000710782079307B1F402C0C40132C040E007
:101010000E94B021882309F452CFF201EA5EF94E12
:10102000D601CF01860D971D8E179F0789F021915C
:101030002D93FACF760183019201AB01BC0180911F
:101040000F14909110140E945D20882309F437CF6B
:10105000C60CD71C8A859B85AC85BD85860D971DE2
:10106000A11DB11D8A879B87AC87BD87A618B708CD
:101070004ACFDF91CF911F910F91FF90EF90DF90BA
:10108000CF90BF90AF909F908F907F906F905F9028
:101090004F903F902F900895CF93DF93EC010E94E3
:1010A0006F06882311F01D8281E0DF91CF910895B2
:1010B0003F924F925F926F927F928F929F92AF92E8
:1010C000BF92CF92DF92EF92FF920F931F93CF9335
:1010D000DF93CDB7DEB72C970FB6F894DEBF0FBE07
:1010E000CDBF5C01DC015B968D909C905C97169661
:1010F000CD90DD90ED90FC901997C114D104E104DE
:10110000F10439F0BFEFCB1ADB0AEB0AFB0A312CF2
:1011100007C0F401C080D180E280F380332433948F
:10112000F40181859285A385B4859C01AD012F5F73
:101130003F4F4F4F5F4F29873A874B875C87260188
:1011400037011D821E821F821886F40181859285D7
:10115000A385B4852D813E814F8158852817390795
:101160004A075B0708F063C089859A85AB85BC8513
:101170008C159D05AE05BF0550F482E0C82ED12C1C
:10118000E12CF12C92E0492E512C612C712C9E0106
:101190002F5F3F4FB701A601C4010E949A22882306
:1011A00009F445C089819A81AB81BC81892B8A2B46
:1011B0008B2B41F0260137019FEF491A590A690A22
:1011C000790A05C0C414D504E604F70491F02D8112
:1011D0003E814F8158852F5F3F4F4F4F5F4F2D838B
:1011E0003E834F8358873FEFC31AD30AE30AF30ABB
:1011F000ACCF0FEF1FEF2FEF3FE0B301A201C4010F
:101200000E94F921882399F0D50116964D915D91A0
:101210006D917C911997411551056105710549F052
:1012200093018201C4010E94F921811102C080E072
:101230002AC0D50116964D925D926D927C921997B7
:10124000332051F0D301C2010196A11DB11DF4015B
:1012500080839183A283B383F5018789908DA18DCB
:10126000B28D892B8A2B8B2B69F4D50157964D9221
:101270005D926D927C925A9714968C911497806827
:1012800014968C9381E02C960FB6F894DEBF0FBEB7
:10129000CDBFDF91CF911F910F91FF90EF90DF9025
:1012A000CF90BF90AF909F908F907F906F905F9006
:1012B0004F903F9008952F923F924F925F926F927E
:1012C0007F928F929F92AF92BF92CF92DF92EF92D6
:1012D000FF920F931F93CF93DF9300D01F92CDB750
:1012E000DEB78C015B011A01DC0115968C91159714
:1012F0008130C9F414968C9181FF15C082FF1DC006
:10130000F801438954896589768982859385A48506
:10131000B58584179507A607B70779F0C8010E941D
:10132000B00681110AC081E090E0D80113969C9329
:101330008E93129780E090E036C1610183C05B9686
:101340008D919C915C97FC0174802FEF270D2A01F1
:101350003B0139E076946794579447943A95D1F7D6
:10136000722E74207A01F1E0FF22772009F476C012
:1013700080E092E08E199F0946018C159D0508F4C6
:101380004C01D8015B962D913C915C9716968D91FE
:101390009D910D90BC91A02D0297A109B109F90171
:1013A000058404C0880F991FAA1FBB1F0A94D2F797
:1013B0004685578560897189840F951FA61FB71FC1
:1013C0009C01AD01270D311D411D511D29013A011F
:1013D000811432E0930609F088C080910602909152
:1013E0000702A0910802B0910902481659066A0640
:1013F0007B0659F48FEF9FEFDC01809306029093F8
:101400000702A0930802B09309029501B301A2015B
:1014100080910F14909110140E940621882309F4E2
:1014200082CF9EEFB91AC818D908F8018285938532
:10143000A485B585880D991DA11DB11D828793874F
:10144000A487B587D8011A964D915D916D917C91D5
:101450001D97C114D10409F072CF87C0E114F104C3
:1014600009F086CF16964D915D916D917C911997FB
:10147000411551056105710559F457968D919D915E
:101480000D90BC91A02D0097A105B10541F521C09B
:101490009E012F5F3F4F0E949A22882309F44BCF71
:1014A00089819A81AB81BC81F801238D348DF9014A
:1014B0002789203129F048EF5FEF6FEF7FE004C00C
:1014C00048EF5FEF60E070E084179507A607B70765
:1014D00030F0C8010E94580881114ACF24CFF8018A
:1014E00086839783A087B18743CFE114F10429F560
:1014F000D8011A964D915D916D917C911D975396EF
:101500008D919D910D90BC91A02D481759076A07A8
:101510007B0798F00E947521882309F404CF40923C
:1015200006025092070260920802709209028091AE
:10153000151681608093151608C041E0C301B20101
:101540000E94B021882309F4EECED501F701EA5EAE
:10155000F94E9F01280D391D2E173F0719F08D9167
:101560008193FACFA80CB91C5ECFF80183899489C6
:10157000A589B68984179507A607B70738F4438B62
:10158000548B658B768B848180688483F801848199
:1015900083FD02C0C10107C0C8010E946F068823F5
:1015A00009F4C1CEF7CF0F900F900F900F90DF91FD
:1015B000CF911F910F91FF90EF90DF90CF90BF9050
:1015C000AF909F908F907F906F905F904F903F90E3
:1015D0002F900895CF93DF93EC01898D9A8D00971A
:1015E00039F481E090E09B838A8380E090E00BC037
:1015F000FC01138212820E945B09E98DFA8D22811F
:101600003381232B71F7DF91CF910895CF93DF932F
:101610001F92CDB7DEB741E050E0BE016F5F7F4F54
:101620000E944707019719F4898190E002C08FEF6B
:101630009FEF0F90DF91CF910895FC01818D928DE6
:10164000009711F00C94060B8FEF9FEF08950F9306
:101650001F93CF93DF93FC01818D928D0097B9F09A
:10166000EF010E94060B8C010F3F8FEF180791F0DE
:10167000898D9A8DFC01428553856485758541501D
:101680005109610971090E94B006C80105C080E0D6
:1016900090E002C08FEF9FEFDF91CF911F910F91EC
:1016A0000895FC01DB0112968D919C911397938311
:1016B000828386E292E09183808314968C911497C2
:1016C000848315968C911597858316964D915D911F
:1016D0006D917C91199746835783608771871A961D
:1016E0004D915D916D917C911D97428753876487E1
:1016F00075871E964D915D916D917C9151974687AE
:101700005787608B718B52968C915297828B539630
:101710004D915D916D917C915697438B548B658B68
:10172000768B57964D915D916D917C915A97478B31
:10173000508F618F728F5B968D919C915C97948F87
:10174000838F08951F920F920FB60F9211240BB63C
:101750000F922F933F938F939F93EF93FF9320913B
:101760009F183091A0188091A1189091A218281765
:10177000390731F4809131018F7D8093310114C09C
:10178000E091A118F091A218E15AF74E20818091C2
:10179000A1189091A21801968F7399279093A2187F
:1017A0008093A11820933601FF91EF919F918F9123
:1017B0003F912F910F900BBE0F900FBE0F901F9077
:1017C00018951F920F920FB60F9211240BB60F921D
:1017D0002F933F938F939F93EF93FF93209127191C
:1017E000309128198091291990912A1928173907C1
:1017F00031F48091D1008F7D8093D10014C0E091AD
:101800002919F0912A19E951F74E2081809129195F
:1018100090912A1901968F73992790932A19809392
:1018200029192093D600FF91EF919F918F913F91BD
:101830002F910F900BBE0F900FBE0F901F90189519
:101840001F920F920FB60F9211240BB60F922F9387
:101850003F938F939F93EF93FF932091AF19309114
:10186000B0198091B1199091B2192817390731F444
:101870008091C9008F7D8093C90014C0E091B11997
:10188000F091B219E159F64E20818091B1199091F1
:10189000B21901968F7399279093B2198093B11959
:1018A0002093CE00FF91EF919F918F913F912F91C7
:1018B0000F900BBE0F900FBE0F901F9018951F92A8
:1018C0000F920FB60F9211240BB60F922F933F93E6
:1018D0008F939F93EF93FF932091371A3091381A8B
:1018E0008091391A90913A1A2817390731F480916A
:1018F000C1008F7D8093C10014C0E091391AF0912E
:101900003A1AE950F64E20818091391A90913A1A8C
:1019100001968F73992790933A1A8093391A2093DE
:10192000C600FF91EF919F918F913F912F910F9062
:101930000BBE0F900FBE0F901F9018951F920F9225
:101940000FB60F9211240BB60F922F933F934F9324
:101950005F936F937F938F939F93AF93BF93EF9317
:10196000FF938091300182FD07C08091360163EAC8
:1019700078E10E94080602C080913601FF91EF9144
:10198000BF91AF919F918F917F916F915F914F9197
:101990003F912F910F900BBE0F900FBE0F901F9095
:1019A00018951F920F920FB60F9211240BB60F923B
:1019B0002F933F934F935F936F937F938F939F9357
:1019C000AF93BF93EF93FF938091D00082FD07C048
:1019D0008091D6006BE279E10E94080602C08091F6
:1019E000D600FF91EF91BF91AF919F918F917F9121
:1019F0006F915F914F913F912F910F900BBE0F9080
:101A00000FBE0F901F9018951F920F920FB60F9256
:101A100011240BB60F922F933F934F935F936F93C5
:101A20007F938F939F93AF93BF93EF93FF93809197
:101A3000C80082FD07C08091CE0063EB79E10E946F
:101A4000080602C08091CE00FF91EF91BF91AF9147
:101A50009F918F917F916F915F914F913F912F91C6
:101A60000F900BBE0F900FBE0F901F9018951F92F6
:101A70000F920FB60F9211240BB60F922F933F9334
:101A80004F935F936F937F938F939F93AF93BF9386
:101A9000EF93FF938091C00082FD07C08091C60044
:101AA0006BE37AE10E94080602C08091C600FF91B4
:101AB000EF91BF91AF919F918F917F916F915F91C6
:101AC0004F913F912F910F900BBE0F900FBE0F9033
:101AD0001F9018956115710579F0FB0101900020A8
:101AE000E9F73197AF01461B570BDC01ED91FC91F3
:101AF0000280F381E02D199480E090E00895863310
:101B000008F0865390917B00282F2870977F922BA6
:101B100090937B008770806480937C0080917A0032
:101B2000806480937A0080917A0086FDFCCF80915A
:101B300078002091790090E0922B089590E0FC01CC
:101B40003197E131F10508F04AC08827EE58FF4F80
:101B50008F4F0C94DF2D809180008F7703C0809190
:101B600080008F7D80938000089584B58F7702C0B8
:101B700084B58F7D84BD08958091B0008F7703C0B8
:101B80008091B0008F7D8093B00008958091900087
:101B90008F7707C0809190008F7D03C08091900067
:101BA000877F8093900008958091A0008F7707C071
:101BB0008091A0008F7D03C08091A000877F8093DB
:101BC000A0000895809120018F7707C080912001A7
:101BD0008F7D03C080912001877F8093200108952D
:101BE0001F93CF93DF93282F30E0F901E650F94F90
:101BF0008491F901E05BF84FD491F901E055F84F79
:101C0000C491CC23C1F0162F81110E949E0DEC2FA0
:101C1000F0E0EE0FFF1FEA56F84FA591B4919FB781
:101C2000F894111104C08C91D095D82302C0EC9186
:101C3000DE2BDC939FBFDF91CF911F910895CF934F
:101C4000DF9390E0FC01E05BF84F2491FC01E0554C
:101C5000F84F8491882361F190E0880F991FFC016F
:101C6000EA53FE4FC591D491FC01EA56F84FA59175
:101C7000B491611109C09FB7F8948881209582239F
:101C80008883EC912E230BC0623061F49FB7F894E7
:101C90008881322F309583238883EC912E2B2C93CF
:101CA0009FBF06C08FB7F894E8812E2B28838FBF83
:101CB000DF91CF910895CF92DF92EF92FF92CF9371
:101CC000DF936B017C010E944A06EB01C114D10431
:101CD000E104F10479F00E944A066C1B7D0B683E1A
:101CE0007340A0F381E0C81AD108E108F108C85197
:101CF000DC4FECCFDF91CF91FF90EF90DF90CF9052
:101D000008952FB7F894609107147091081480918A
:101D1000091490910A142FBF08952F923F924F9269
:101D20005F926F927F928F929F92AF92BF92CF926B
:101D3000DF92EF92FF920F931F93CF93DF93CDB774
:101D4000DEB76B970FB6F894DEBF0FBECDBF9B8F8B
:101D50008A8F5B011A01D22E1F830E833701C9823D
:101D6000DC0158962D913C9159972115310509F0C8
:101D7000E6C018968D919C911997681779070CF019
:101D8000CDC11A968D919C911B97481759070CF05D
:101D9000C5C18C2C912CFB0126E0C29EE00DF11DEB
:101DA0001124FB87EA871E161F060CF0B7C1A40199
:101DB00083E0440F551F8A95E1F75D874C87CA0180
:101DC000820D931D181619060CF0A8C157968C9118
:101DD000811104C05FEA5D1508F4D394AA8DBB8D10
:101DE000ED91FC9111970680F781E02DCD011995B9
:101DF000B5E0DB9EC0011124F5013596FF87EE8723
:101E0000BB82AA8225019C012A193B09398B288BA8
:101E1000A101485F5F4F5B8B4A8BE889F989E40D2C
:101E2000F51DE052FE4F5491588761013D822C828E
:101E3000888580FF13C0AA8DBB8DED91FC91B9817F
:101E4000B13031F40084F185E02D2E813F8116C040
:101E50000284F385E02DEE80FF801AC0EE81FF81C1
:101E6000E615F705F1F0AA8DBB8DED91FC91B981D6
:101E7000B13051F40084F185E02D9301A601B20147
:101E80008A8D9B8D19950DC00284F385E02D730119
:101E9000840194014C815D816A817B818A8D9B8D57
:101EA0001995E885E695E887FFEFCF1ADF0A2C81C0
:101EB0003D81280D391D3D832C834A895B89C416D9
:101EC000D50609F0B5CF5FEF451A550A8A819B8187
:101ED000880D991D9B838A83AE85BF854A165B0654
:101EE00009F09BCFEE81FF81E615F70509F4F4C0F8
:101EF000EA8DFB8DA081B181F981F13079F4B501D2
:101F00006B5F7F4F1C96ED91FC911D97830128E03C
:101F100030E0A1018A8D9B8D1995DEC06A857B8595
:101F2000681979091A96ED91FC911B9773010C853C
:101F30001D859401A1018A8D9B8D1995CDC0F90154
:101F40003496E491DE1AF901329685919491B7E0C6
:101F5000DB9E800D911D1124F901259134913B8B5D
:101F60002A8BFC01259134912901FC013296C49001
:101F7000319634913E87329614913196D4904981AE
:101F8000423058F0612E012E000C77088D2D0D2C5B
:101F9000000C990B9987888704C019861886612CD4
:101FA000712CAA8DBB8DED91FC9111970680F78164
:101FB000E02DCD011995B9818B2E912C689CC00123
:101FC000699C900D789C900D1124FC01EA0DFB1D7D
:101FD000FD87EC871A82712C612CE12F110FFF0B0A
:101FE00095012E0F3F1F3B872A87AC0CB11CA50122
:101FF0004E0F5F1F5F8B4E8BC1018D0D911DD7FC66
:102000009A95998F888F9E85691608F065C0862DF0
:1020100090E048855985480F591F489D9001499D7A
:10202000300D589D300D1124D101A20FB31FB98B73
:10203000A88BEC85FD85FD83EC83AA84BB84DA80C4
:10204000FA85DF1A288D398D280F391F3D8B2C8B8F
:102050008D2D8A0D4E895F89A416B506C1F1877052
:1020600041F4C2010196EA89FB89E40DF51D7490E3
:102070002C0177FE21C0AA8DBB8DED91FC91B98119
:10208000B13061F40084F185E02D2E813F814C89CF
:102090005D89B5018A8D9B8D19950EC00284F385EB
:1020A000E02DEE80FF8084019401488959896C817C
:1020B0007D818A8D9B8D1995770CEFEFAE1ABE0A44
:1020C0002C813D81280D391D3D832C83C1CF3A8160
:1020D0003C0D3A83639497CFAA8DBB8DED91FC9113
:1020E00011970288F389E02DCD016B960FB6F89415
:1020F000DEBF0FBECDBFDF91CF911F910F91FF903B
:10210000EF90DF90CF90BF90AF909F908F907F9097
:102110006F905F904F903F902F9019946B960FB6F1
:10212000F894DEBF0FBECDBFDF91CF911F910F910D
:10213000FF90EF90DF90CF90BF90AF909F908F90E7
:102140007F906F905F904F903F902F9008950895EB
:102150008F929F92AF92BF92CF92DF92EF92FF92B7
:102160000F931F93CF93DF93EC016B015A01490149
:10217000E881F9810680F781E02D1995E881F981E0
:102180000284F385E02D9401A501B601CE011995D5
:10219000E881F9810288F389E02DCE01DF91CF91AA
:1021A0001F910F91FF90EF90DF90CF90BF90AF9075
:1021B0009F908F901994AF92BF92CF92DF92EF923F
:1021C000FF920F931F93CF93DF93EC017B016A0182
:1021D0005901E881F9810680F781E02D1995E881A0
:1021E000F9810684F785E02D9501A601B701CE019E
:1021F0001995E881F9810288F389E02DCE01DF91FC
:10220000CF911F910F91FF90EF90DF90CF90BF90F3
:10221000AF901994AF92BF92CF92DF92EF92FF925C
:102220000F931F93CF93DF93EC017B016A01590158
:10223000E881F9810680F781E02D1995E881F9811F
:102240000484F585E02D9501A601B701CE0119950D
:10225000E881F9810288F389E02DCE01DF91CF91E9
:102260001F910F91FF90EF90DF90CF90BF90AF90B4
:102270001994CF92DF92EF92FF920F931F93CF9317
:10228000DF93EC018B017A016901E881F981068015
:10229000F781E02D1995E881F9810084F185E02D21
:1022A0009601A701B801CE011995E881F98102884C
:1022B000F389E02DCE01DF91CF911F910F91FF9017
:1022C000EF90DF90CF901994EF92FF920F931F93AE
:1022D000DC01ED91FC910284F385E02D780101E0B1
:1022E00010E019951F910F91FF90EF900895EF92D4
:1022F000FF920F931F93DC01ED91FC910284F38513
:10230000E02D7801890121E030E019951F910F91AE
:10231000FF90EF900895DC019C96ED91FC919D97C4
:102320009081D1968C91892B808308950895FC012A
:102330006370658B8481958126813781613039F0A6
:10234000633029F09187808733872287089531870A
:102350002087938782870895AF92BF92CF92EF92A2
:10236000FF920F931F93CF93DF93EC01262F888D5D
:10237000998D009709F040C06A3059F41D861C867B
:102380002C898E859F8538E0239F800D911D112417
:1023900041C06D3009F4AAC08E898823C1F03C8900
:1023A0008C859D8546E0349F800D911D11244885C4
:1023B0005985481759075CF41D861C868E859F85B4
:1023C00048E0349F800D911D11249F878E87EA88F5
:1023D000FB88088919894E855F856C857D85CC8849
:1023E000CE010E948D0E2C898C859D8536E0239F21
:1023F000800D911D112442C06A3079F41D861C861F
:102400002C89FC013696E4918E859F852E9F800D48
:10241000911D11249F878E8769C06D3009F466C0B5
:10242000FC0134963491631708F460C03196E4914E
:10243000E61708F45BC0FC01329665917491422F57
:1024400050E0431B510937E0349F5001359FB00CD9
:102450001124A60EB71EF501329634913196E491FF
:10246000332311F0E1110DC0F5013496E4912C896C
:102470008C859D85E29F800D911D11249D878C8701
:1024800035C0F501359644915E89552311F16C896B
:10249000E32FF0E0E40FF11D47FDFA956E9FD001A8
:1024A0006F9FB00D11244C855D854A0F5B1FE88539
:1024B000F985E417F5076CF41D861C86FC01369639
:1024C000E4918E859F856E9F800D911D11249F87BD
:1024D0008E87EA88FB88088919894E855F856C8517
:1024E0007D85CC88CE010E948D0EBECF81E090E02C
:1024F000DF91CF911F910F91FF90EF90CF90BF9000
:10250000AF9008956F927F928F929F92AF92BF92F9
:10251000CF92DF92EF92FF920F931F93CF93DF93AF
:10252000EC014B015A0169013801E881F98106800B
:10253000F781E02D1995E881F9810684F785E02D72
:1025400087019601A501B401CE011995A501460D9B
:10255000571D41505109E881F9810684F785E02D26
:102560009601B401CE011995E881F9810484F585BD
:10257000E02D9301A501B401CE011995C80CD91C19
:10258000B60161507109E881F9810484F585E02D77
:102590009301A501CE011995E881F9810288F3899B
:1025A000E02DCE01DF91CF911F910F91FF90EF9021
:1025B000DF90CF90BF90AF909F908F907F906F9063
:1025C00019948F929F92AF92BF92CF92DF92EF9227
:1025D000FF920F931F93CF93DF934C016B015A012E
:1025E000E901DC01ED91FC916217730781F4041796
:1025F000150724F48B2D5801042F182F0A191B09D5
:1026000098012F5F3F4F008CF18DE02D12C04017D5
:10261000510709F52617370724F48D2D6901C62FB8
:10262000D82F9E012C193D092F5F3F4F028CF38D4F
:10263000E02D8701A501B601C4011995DF91CF9165
:102640001F910F91FF90EF90DF90CF90BF90AF90D0
:102650009F908F9008950680F781E02D1995D40101
:10266000ED91FC910088F189E02D9E01A501B60154
:10267000C4011995D401ED91FC910288F389E02DF4
:10268000C401DF91CF911F910F91FF90EF90DF90E8
:10269000CF90BF90AF909F908F901994EF92FF9240
:1026A0000F931F93DC011A960D911C911B9718969E
:1026B0002D913C911997ED91FC91048CF58DE02DB5
:1026C0007B0140E050E060E070E019951F910F91B0
:1026D000FF90EF9008954F925F926F927F928F924A
:1026E0009F92AF92BF92CF92DF92EF92FF920F93A1
:1026F0001F93CF93DF936C012B015A0139014801DD
:10270000DC01ED91FC910680F781E02D1995E20145
:10271000640C751CD601ED91FC91C615D7055CF4CF
:102720000484F585E02D87019401A501BE01C60151
:1027300019952196EFCF0288F389E02DC601DF912C
:10274000CF911F910F91FF90EF90DF90CF90BF90AE
:10275000AF909F908F907F906F905F904F90199463
:102760008F929F92AF92BF92CF92DF92EF92FF92A1
:102770000F931F93CF93DF93EC015B014A01690133
:10278000E881F9810680F781E02D199595012C0DDE
:102790003D1D21503109E881F9810088F189E02D42
:1027A00078018401A401B501CE011995E881F98170
:1027B0000288F389E02DCE01DF91CF911F910F9117
:1027C000FF90EF90DF90CF90BF90AF909F908F9051
:1027D00019948F929F92AF92BF92CF92DF92EF9215
:1027E000FF920F931F93CF93DF93EC015B014A019C
:1027F00069017801E881F9810680F781E02D19955A
:10280000C80CD91C860101501109E881F9810088A2
:10281000F189E02D9501A401B501CE011995E8815A
:10282000F9810288F389E02DCE01DF91CF911F91CC
:102830000F91FF90EF90DF90CF90BF90AF909F905F
:102840008F901994FC0181A187FF0CC08CB58C7FFF
:102850008CBD8DB581608DBD8CB58F7D8CBD8CB5EB
:10286000837F8CBDA4A5B5A59C9181A98095892362
:102870008C930895FC0181A187FF05C06EBD0DB446
:1028800007FEFDCF089528E030E090E8A4A1B5A1AF
:1028900086A5462F492319F04C91842B03C04C91F7
:1028A000809584238C93A0A5B1A54C9180A9809597
:1028B00084238C93A0A5B1A54C9180A9842B8C93E3
:1028C00096952150310911F70895CF93DF93EC01CC
:1028D000EAA5FBA590818AA9809589238083CE01F2
:1028E0000E943A14EAA5FBA590818AA9892B8083CE
:1028F000DF91CF9108958F929F92AF92BF92CF9226
:10290000DF92EF92FF920F931F93CF93DF93EC012F
:10291000490181E0881A9108860E971EC401A0E043
:10292000B0E04B01A12CB12C540199248824882AB1
:10293000992AAA2ABB2A680181E0C81AD108C40EC4
:10294000D51EC601A0E0B0E06A01E12CF12C7601B1
:10295000DD24CC24C82AD92AEA2AFB2A6AE2CE013D
:102960000E94651429A16B2D77278827992727FFB7
:1029700018C06EBD0DB407FEFDCFC501AA27BB2749
:102980008EBD0DB407FEFDCFBB27AB2D9A2D892D33
:102990008EBD0DB407FEFDCF8EBC0DB407FEFDCF7E
:1029A00014C0CE010E943A14B50188279927CE01A0
:1029B0000E943A1499278B2D7A2D692DCE010E9401
:1029C0003A14682DCE010E943A146BE2CE010E94A7
:1029D000651429A16F2D77278827992727FF18C00D
:1029E0006EBD0DB407FEFDCFC701AA27BB278EBD64
:1029F0000DB407FEFDCFBB27AF2D9E2D8D2D8EBDB7
:102A00000DB407FEFDCFCEBC0DB407FEFDCF14C044
:102A1000CE010E943A14B70188279927CE010E945F
:102A20003A1499278F2D7E2D6D2DCE010E943A14D8
:102A30006C2DCE010E943A146CE2CE01DF91CF9151
:102A40001F910F91FF90EF90DF90CF90BF90AF90CC
:102A50009F908F900C9465144F925F926F927F922B
:102A60008F929F92AF92BF92CF92DF92EF92FF929E
:102A70000F931F93CF93DF935C01FB01E9014701A3
:102A8000DC0118962D913C911997621773070CF091
:102A900063C01A968D919C911B97481759070CF0AB
:102AA0005BC06B01CC0EDD1ED60111977A01E00EE2
:102AB000F11EB70161507109B7FD4EC077FD4CC0E2
:102AC000F7FF03C0E601E0E0F0E057FF03C0870135
:102AD00040E050E0A217B3071CF0E901CE1BDF0B6A
:102AE000681779071CF08C01041B150B9E01D80197
:102AF0000E94E72D6B017C01BF01C5010E947B1480
:102B000026013701F50181A187FF13C0411451044B
:102B10006104710409F19EBC0DB407FEFDCF8EBCAB
:102B20000DB407FEFDCFF1E04F1A5108610871089E
:102B3000EDCF411451046104710471F0692DC50198
:102B40000E943A14682DC5010E943A1481E0481A87
:102B5000510861087108EDCFDF91CF911F910F915E
:102B6000FF90EF90DF90CF90BF90AF909F908F90AD
:102B70007F906F905F904F900895EF92FF920F9328
:102B80001F93CF93DF93EC0177FD2FC08885998544
:102B90006817790754F557FD28C08A859B85481723
:102BA00059071CF5E32EF22E01E010E021E030E0A1
:102BB000CE010E947B1489A187FF09C0EEBC0DB431
:102BC00007FEFDCFFEBC0DB407FEFDCF0EC06E2D7F
:102BD000CE010E943A146F2DCE01DF91CF911F914B
:102BE0000F91FF90EF900C943A14DF91CF911F91C9
:102BF0000F91FF90EF9008951F93CF93DF93EC0117
:102C0000162FE881F9810680F781E02D19951111C1
:102C100002C060E201C061E2CE010E946514E88159
:102C2000F9810288F389E02DCE01DF91CF911F91C8
:102C300019941F93CF93DF93EC0163706D8B623017
:102C4000C1F0633001F1613051F080EF90E099877D
:102C5000888780E491E09B878A8718E41DC080E420
:102C600091E09987888780EF90E09B878A8718E2B8
:102C700013C080EF90E09987888780E491E09B877C
:102C80008A8718E809C080E491E09987888780EFF7
:102C900090E09B878A8718EEE881F9810680F781AA
:102CA000E02DCE01199566E3CE010E946514612FD7
:102CB000CE010E943A14E881F9810288F389E02D5F
:102CC000CE01DF91CF911F9119942F923F924F9295
:102CD0005F926F927F928F929F92AF92BF92CF92AC
:102CE000DF92EF92FF920F931F93CF93DF93CDB7B5
:102CF000DEB7C959D1090FB6F894DEBF0FBECDBFFC
:102D0000CE56DF4F99838883C259D0405B01CA56A3
:102D1000DF4F59834883C659D0402901C257DF4F3E
:102D200019830883CE58D04037010DB71EB7C85657
:102D3000DF4F19830883C859D040E7961FAE1EAEF7
:102D4000E79788EE93E0A0E0B0E0EB968CAF9DAF04
:102D5000AEAFBFAFEB9786E192E0E5969FAF8EAF47
:102D6000E597C457DF4F19821882CC58D040C1581C
:102D7000DF4F1882CF57D040809000029090010220
:102D80008E01025E1F4F60E478E1C8010E94510B82
:102D90001C821B8286E292E09A8389831E827401E0
:102DA0009E012F5F3F4F6901302E212E6FE270E0B0
:102DB000C7010E94B12D009709F443C0D7012C919F
:102DC0002F3221F4BFEFEB1AFB0AF0CF8E198D30B2
:102DD00008F08CE0082F10E0A801B701CE01885A56
:102DE0009F4F0E94BC2DE8E5F0E0EC0FFD1FE00FC7
:102DF000F11F1082C6010E944C08F60185818823CC
:102E000051F01EAE1DAE86E292E09CAF8BAF2196D4
:102E10001FAE219725C0AE01485A5F4F632D722D1A
:102E2000C6010E94EA1D882361F3E00EF11E832D86
:102E3000922D0E944C08C1013C2C2D2CC92ED82E5D
:102E4000B5CF870108191909C057DF4F19830883C7
:102E5000C059D040632D722DCE01CB960E94510BEC
:102E6000C057DF4F28813981C059D040820E931E50
:102E7000D4018C9181110AC0BE01655C7F4FCE01E7
:102E800001960E94510B4BEF52E04AC019A218A2C2
:102E900086E292E09F8F8E8F1BA221968FAD2197A5
:102EA00081111CC06C961FAE1EAE6C9788EE93E02D
:102EB000A0E0B0E0A0968CAF9DAFAEAFBFAFA09743
:102EC00086E192E06A969FAF8EAF6A97E3961FAE57
:102ED0001EAEE397A5961FAEA5972AC08250A40107
:102EE000823048F460E478E1CE014E960E94EA1DFB
:102EF00081110EC0D7CFBE01655C7F4FCE014E96CB
:102F00000E94EA1D882371F2CE01CB960E944C08E4
:102F1000BE01625E7F4FCE0101960E94510BA4015B
:102F2000BE016F5F7F4FCE01885A9F4F0E94FA1CEF
:102F30006C968EAD9FAD6C97E7969FAF8EAFE7977F
:102F4000A0968CAD9DADAEADBFADA097EB968CAF0E
:102F50009DAFAEAFBFAFEB97A4968CAD9DADAEADC0
:102F6000BFADA497EF968CAF9DAFAEAFBFAFEF975D
:102F7000A8E5B0E0AC0FBD1F1C96E3E7F0E0EC0F56
:102F8000FD1F3C9683E790E08C0F9D1F49962D9185
:102F90002193E817F907D9F7E396EEADFFADE39774
:102FA000C457DF4FF983E883CC58D040309719F0ED
:102FB0008581811118C06DEF72E08FE79AE10E9460
:102FC0006A0D60910002709101028FE79AE10E9400
:102FD0006A0D67E28FE79AE10E946F058FE79AE139
:102FE0000E94D41CF1C0C257DF4F28803980CE58D0
:102FF000D040220C331C4501A12CB12CF301E40D6F
:10300000F51DC057DF4FF983E883C059D040CE5635
:10301000DF4F28813981C259D040890120E030E05A
:10302000CE56DF4F088319832A833B83C259D04091
:10303000C057DF4F88819981C059D04084159505CC
:1030400009F4B3C06DB67EB6ADB7BEB7A219B30969
:103050000FB6F894BEBF0FBEADBFEDB7FEB7319649
:103060006F01A0910202B0910302A50194010E9498
:10307000472CCE56DF4F088119812A813B81C259E6
:10308000D040060F171F281F391FB901A801440F90
:10309000551F661F771FC457DF4F08811981CC5811
:1030A000D0400115110549F0C8010E94B006A101E8
:1030B000B601C8010E94470702C080E090E02816D0
:1030C0003906A9F06EE073E08FE79AE10E94E81CF0
:1030D0000115110531F0C8010E944C08C8010E9479
:1030E0001B2D0FB6F8947EBE0FBE6DBE6DC08DEA6F
:1030F0009AE10E94221401E010E0C257DF4F2881BC
:103100003981CE58D040A201CA56DF4F68817981FB
:10311000C659D0408DEA9AE10E947B14E12CF12C33
:10312000C257DF4F28813981CE58D0402E153F0538
:1031300051F1D6010D911D916D0110270127102726
:103140008DEA9AE10E9422148091CE1A87FF09C06D
:103150001EBD0DB407FEFDCF0EBD0DB407FEFDCFA5
:103160000AC0612F8DEA9AE10E943A14602F8DEA1D
:103170009AE10E943A148DEA9AE10E948B11BFEF06
:10318000EB1AFB0ACDCF8DEA9AE10E948B110FB6A4
:10319000F8947EBE0FBE6DBEEFEF4E1A5E0AFFEFD3
:1031A0008F1A9F0AAF0ABF0A43CFC457DF4F088167
:1031B0001981CC58D0400115110531F0C8010E9489
:1031C0004C08C8010E941B2DC856DF4F0881198189
:1031D000C859D0400FB6F8941EBF0FBE0DBFC756DA
:1031E000DF4F0FB6F894DEBF0FBECDBFDF91CF919A
:1031F0001F910F91FF90EF90DF90CF90BF90AF9015
:103200009F908F907F906F905F904F903F902F9006
:1032100008958F929F92AF92BF92CF92DF92EF92DA
:10322000FF920F931F93CF93DF936C01EB014B0140
:1032300077FF03C087E0880E911C23E09594879464
:103240002A95E1F7092C000CAA08BB0889E0980E22
:103250008DE3A81EB11C8091111490911214A091BD
:103260001314B091141488169906AA06BB06F9F037
:1032700095E1E92E94E1F92E00E012E020E030E043
:10328000B501A40181EA9AE10E945D20811107C085
:1032900062E273E08FE79AE10E946A0DE9CF8092C3
:1032A000111490921214A0921314B0921414CE011F
:1032B00068E070E00E94CB2DFC0186E0EE0FFF1F5E
:1032C0008A95E1F7EB5EFB4E80E4D60101900D920A
:1032D0008A95E1F7DF91CF911F910F91FF90EF90C9
:1032E000DF90CF90BF90AF909F908F9008954F92B6
:1032F0005F926F927F928F929F92AF92BF92CF9286
:10330000DF92EF92FF920F931F93CF93DF93CDB78E
:10331000DEB7A1970FB6F894DEBF0FBECDBF5C013C
:103320006B01770FEE08FF08F7FE3CC0DC01ED9162
:10333000FC910190F081E02D6DE219958C01F094E3
:10334000E094D094C094C11CD11CE11CF11C19A2C2
:10335000FE01B1964F013AE0432E512C612C712CA5
:10336000C701B601A30192010E94522C8C2DFAE0F4
:103370002F9F8019112491E0891A91088A3014F442
:10338000805D01C0895CD4018C9369017A01232B93
:10339000242B252B29F7B401C5010E946A0D800F4B
:1033A000911F2AC09C2C7D2DC70119A28E010F5D93
:1033B0001F4F2AE0C22ED12CE12CF12C692DA70140
:1033C00096010E94522C692DBAE02B9F601911249E
:1033D000015011096A3014F4605D01C0695CF801A4
:1033E0006083922E732FCA01232B242B252B31F7B8
:1033F000B801C5010E946A0DA1960FB6F894DEBF10
:103400000FBECDBFDF91CF911F910F91FF90EF9035
:10341000DF90CF90BF90AF909F908F907F906F90F4
:103420005F904F9008952F923F924F925F926F92CC
:103430007F928F929F92AF92BF92CF92DF92EF9244
:10344000FF920F931F93CF93DF9300D01F92CDB7BE
:10345000DEB74C018DEA9AE10E942214A401445186
:1034600051090FEF1FEF29E230E068E271E08DEAC9
:103470009AE10E947711E12CF12CCC24C394D12C39
:1034800044E150E05C834B8328ED422E55245A944E
:103490003DEEA32EBB24BA944FEFE41AF40A52E097
:1034A000C50ED11CAC0CBD1C6B807C80660C771CDF
:1034B0008FEF681A780AB701685D7E4F0FEF1FEF34
:1034C0009301A4018B819C81481B590B5A8349832A
:1034D0008DEA9AE10E94771114012E183F08960197
:1034E000A1016B817C81685D7E4F8DEA9AE10E942B
:1034F000771168E271E06E197F09930149815A8161
:103500008DEA9AE10E9477119601A10168E271E0CB
:103510008B819C81681B790B8DEA9AE10E9477115F
:103520004B815C81E416F5066CF4B7FCB5CF8B815A
:103530009C8101979C838B8392E0490E511CA40CC3
:10354000B51CAACF8DEA9AE10F900F900F900F90C3
:10355000DF91CF911F910F91FF90EF90DF90CF906F
:10356000BF90AF909F908F907F906F905F904F90A3
:103570003F902F900C948B118F929F92AF92BF929D
:10358000EF92FF920F931F93CF93DF93EC011B8673
:1035900019861E821D8286E08C830E94810E7B012B
:1035A00061E08C810E941F0ECE010E94C01F60E06E
:1035B00082E30E941F0E61E083E30E941F0E61E020
:1035C00084E30E941F0E61E085E30E941F0E61E00C
:1035D00085E30E94F00D83E58CBD8DB58E7F8DBD9A
:1035E0001AE08FEF0E94E41F1150D9F760E08C8140
:1035F0000E94F00D20E030E0A90160E0CE010E94C1
:103600000920182F8A87813049F00E94810E6E1997
:103610007F09613D774070F381E04AC02AEA31E0DA
:1036200040E050E068E0CE010E94092082FF02C025
:103630001B870CC004E00E94E91F8A870150D9F75C
:103640008A3A11F082E034C082E08B878B85823029
:1036500021F0812C912C540105C0812C912CA12C9E
:1036600080E4B82E20E030E0A90167E3CE010E949B
:103670000920A501940169E2CE010E9409208A87F0
:10368000882349F00E94810E6E197F09613D7740C1
:1036900048F388E00DC08B858230E9F420E030E00B
:1036A000A9016AE3CE010E940920882339F086E04F
:1036B0008D83CE010E94C01F10E018C00E94E91F38
:1036C000807C803C11F483E08B870E94E91F0E947C
:1036D000E91F0E94E91FCE010E94C01F8DB58E7F99
:1036E0008DBD8CB58C7F8CBD8CB58CBD812FDF9151
:1036F000CF911F910F91FF90EF90BF90AF909F904F
:103700008F9008958F929F92AF92BF92CF92DF9247
:10371000EF92FF92CF93DF93C82F86E198E19093C9
:10372000101480930F14CC2369F1C53010F080E0A1
:103730000CC140E060E070E0CB010E94B021882322
:10374000B1F320E1C29FC00111248A5F994EFC01B0
:10375000E254FE4F20812F7751F73C9640815181F2
:1037600062817381443651056105710500F3349718
:10377000C080D180E280F380C114D104E104F1045F
:1037800021F4D5CFC12CD12C760140E0C701B60180
:103790000E94B021882359F280912116909122161F
:1037A0008115924021F6A0912616AA2309F4BFCFD5
:1037B00060912416709125166115710509F4B7CF33
:1037C00020912316222309F4B2CFA093341820931A
:1037D000261880E030E041E050E0C82FFA01082EC2
:1037E00002C0EE0FFF1F0A94E2F72E173F0739F0D1
:1037F0008F5FC83091F789E080932F1898CF80931E
:103800002F1820912C1630912D162115310519F005
:1038100040E050E008C020913A1630913B164091AC
:103820003C1650913D16209327183093281840934A
:10383000291850932A1846015701860E971EA11C7D
:10384000B11C8092351890923618A0923718B09219
:103850003818E0912716F0912816F0933B18E09362
:103860003A18B0E00E94472C860E971EA81EB91E7B
:1038700080923C1890923D18A0923E18B0923F184A
:1038800085E0EE0FFF1F8A95E1F7E150FE4FEF2F25
:10389000FF27E6958E0E9F1EA11CB11C809230184A
:1038A00090923118A0923218B092331820912916B4
:1038B00030912A162115310521F0A90160E070E050
:1038C00008C04091361650913716609138167091A5
:1038D0003916D701C60188199909AA09BB09840FAD
:1038E000951FA61FB71F04C0B695A79597958795F6
:1038F000CA95D2F780932B1890932C18A0932D186B
:10390000B0932E18853F2FE09207A105B10510F462
:103910008CE018C0853F9F4FA105B10510F480E1F0
:1039200011C08091421690914316A0914416B09117
:10393000451680933C1890933D18A0933E18B09381
:103940003F1880E28093391881E0DF91CF91FF909A
:10395000EF90DF90CF90BF90AF909F908F900895A1
:10396000CF93DF93ECEFF6E08491E2E5F7E0D491BA
:10397000E2EBF7E0C491CC2391F081110E949E0DFF
:10398000EC2FF0E0EE0FFF1FE052F94FA591B4913C
:10399000EC91ED2381E090E021F480E002C080E032
:1039A00090E0DF91CF9108950F931F93CF93DF9312
:1039B000EC016DE00E946F058C016AE0CE010E946F
:1039C0006F05800F911FDF91CF911F910F91089587
:1039D0000F931F93CF93DF93EC010E946A0D8C012C
:1039E000CE010E94D41C800F911FDF91CF911F91B7
:1039F0000F910895EF92FF920F931F93CF93DF9350
:103A0000EC017B018A011B821A8288EE93E0A0E020
:103A1000B0E08C839D83AE83BF8386E192E099837F
:103A200088838DE190E00E94832C9A8F898F009784
:103A300079F02DE1F701DC0101900D922A95E1F773
:103A40004CE050E0B801CE010C960E94BC2D188EBF
:103A5000DF91CF911F910F91FF90EF9008954F92BA
:103A60005F926F927F92AF92BF92CF92DF92EF926E
:103A7000FF920F931F93CF93DF9300D01F92CDB788
:103A8000DEB78C0149835A836B837C835901C12C37
:103A9000D12C7601412C82E0582E612C712C498169
:103AA0005A816B817C819E012F5F3F4FC8010E942C
:103AB0009A22882351F1D301C201F801058404C080
:103AC000880F991FAA1FBB1F0A94D2F7C80ED91ED0
:103AD000EA1EFB1E49815A816B817C818789803176
:103AE00029F088EF9FEFAFEFBFE004C088EF9FEFB2
:103AF000A0E0B0E0481759076A077B0780F2F5019C
:103B0000C082D182E282F38281E00F900F900F9009
:103B10000F90DF91CF911F910F91FF90EF90DF9069
:103B2000CF90BF90AF907F906F905F904F9008952F
:103B3000CF93DF93EC0180E2689FF0011124EA5EED
:103B4000F94E6A8B8091060290910702A0910802BB
:103B5000B09109028E879F87A88BB98B44895589BC
:103B600060E070E0BA0155274427828D938DA0E074
:103B7000B0E0482B592B6A2B7B2B4F8B588F698FCA
:103B80007A8F8385887151F4848D958DA68DB78D3C
:103B90008B8B9C8BAD8BBE8B81E00EC0803111F086
:103BA00080E015C09E012D5E3F4F8B8D9C8D0E9445
:103BB0002F1D8823A9F384E08D8381E08C831E82EE
:103BC0001F82188619861A861B861C861D86DF9121
:103BD000CF910895AF92BF92CF92DF92EF92FF9272
:103BE0000F931F93CF93DF93CDB7DEB72B970FB60D
:103BF000F894DEBF0FBECDBF6C01FE013196CE0141
:103C00000C967F0120E22193E817F907E1F7DA012A
:103C100020E037E09D91992331F19E3231F43A3022
:103C200009F4AAC028E03AE0F5CFE0E4F7E0849197
:103C3000882321F031969813FACF9EC0321708F4EA
:103C40009BC08FED890F8E3508F096C081E0820F02
:103C5000F701E20FF11D2FE9290F2A3108F49052E4
:103C60009083282FD7CF8981803209F485C08B01BA
:103C7000FB01838D948DF601948F838FFB01168257
:103C80001782108611861286138614861586B12C2B
:103C9000F80182859385A485B58543895489658912
:103CA000768984179507A607B70708F065C025E051
:103CB000B695A795979587952A95D1F7F82FFF7018
:103CC000AF2EF8018581823008F456C0C8010E94E9
:103CD000060B97FD51C0F80182859385A485B585B3
:103CE0004F96A11DB11D82879387A487B587F0E207
:103CF000AF9EB00111246A5E794E61157105E1F144
:103D0000FB0180818823F1F0853E99F14BE050E082
:103D1000C7010E94A42D892B09F0BACF6A2DC601D4
:103D20002B960FB6F894DEBF0FBECDBFDF91CF91BB
:103D30001F910F91FF90EF90DF90CF90BF90AF90C9
:103D40000C94981DB11018C0F601A28A8091060249
:103D500090910702A0910802B09109028687978787
:103D6000A08BB18BFB018081882331F0BB24B394FD
:103D70008FCFB110FBCFE8CF80E02B960FB6F89431
:103D8000DEBF0FBECDBFDF91CF911F910F91FF908E
:103D9000EF90DF90CF90BF90AF9008950895EF928D
:103DA000FF920F931F93DC01ED91FC91048CF58D34
:103DB000E02D19951F910F91FF90EF9008950F93AB
:103DC0001F93DC01ED91FC91028CF38DE02D199590
:103DD0001F910F9108950F931F93DC01ED91FC91BA
:103DE000008CF18DE02D19951F910F910895DC0144
:103DF000ED91FC910480F581E02D19942F923F9272
:103E00004F925F926F927F928F929F92AF92BF92EA
:103E1000CF92DF92EF92FF920F931F93CF93DF9396
:103E200000D000D0CDB7DEB72C017E836D836A0150
:103E30005901C801FC82EB824801841A950A97FE59
:103E400003C091948194910835012D813E81621ABD
:103E5000730A77FE03C07194619471086814790441
:103E60005CF43A2D2B2D5C01832F922F3D812E8106
:103E7000DE82CD82C32ED22EAD81BE81AA16BB06B4
:103E80005CF43C2D2D2D6C01832F922F3D812E81D2
:103E9000BE82AD82A32EB22E85012D813E81021BF2
:103EA000130B1C012C183D0837FE03C031942194DC
:103EB0003108780117FF03C03FEFE31AF30AF594C6
:103EC000E794C816D9062CF08FEF9FEF9A83898369
:103ED00004C0A1E0B0E0BA83A9832D813E81A2167F
:103EE000B30624F1D201ED91FC910084F185E02D1F
:103EF0002B813C816814790424F44D815E81B601E4
:103F000003C0A6016D817E81C2011995E218F308F4
:103F1000F7FE06C029813A81C20ED31EE00EF11EC3
:103F20008D819E8101969E838D83D7CF26960FB675
:103F3000F894DEBF0FBECDBFDF91CF911F910F91DF
:103F4000FF90EF90DF90CF90BF90AF909F908F90B9
:103F50007F906F905F904F903F902F900895CF93F8
:103F6000DF931F92CDB7DEB7698341E050E0BE0119
:103F70006F5F7F4F0E945B090F90DF91CF91089593
:103F800061E0FC0184810C94F00DCF93DF93EC0190
:103F90008FEF8EBD2FEF8F819885AC014F5F5F4F04
:103FA00058874F838130924028F40DB407FEFDCF2F
:103FB0002EBDF1CF0DB407FEFDCFCE010E94C01F74
:103FC0001E82DF91CF9108958EBD0DB407FEFDCF07
:103FD00008958FEF0E94E41F8EB508950F931F93ED
:103FE000CF93DF93EB010E94810E8B010E94E91FAA
:103FF0008F3F49F00E94810E601B710B6C177D078B
:10400000A8F380E001C081E0DF91CF911F910F9173
:1040100008958F929F92AF92BF92FF920F931F933A
:10402000CF93DF93EC01F62E49015A018E8188234C
:1040300019F0CE010E94C51F60E08C810E94F00D36
:104040006CE271E0CE010E94EE1F8F2D80640E9411
:10405000E41F08E110E0D501C401002E04C0B695AC
:10406000A795979587950A94D2F70E94E41F085068
:104070001109083F8FEF180771F7FF2029F088E03A
:10408000F81204C087E803C085E901C08FEF0E94E1
:10409000E41F10E00E94E91F8A8787FF04C01F3FCA
:1040A00011F01F5FF7CFDF91CF911F910F91FF901C
:1040B000BF90AF909F908F900895AF92BF92CF9294
:1040C000DF92EF92FF920F931F93CF93DF93EC0158
:1040D0006901C801820F931F8130924008F085C0AA
:1040E0008E81882371F088819981AA81BB81841790
:1040F0009507A607B70729F48F819885C816D906B2
:10410000B0F5488359836A837B838B85833039F08C
:1041100089E0440F551F661F771F8A95D1F79A01D2
:10412000AB0161E1CE010E940920882319F083E0F0
:104130008D835BC00E94810E5B010E94E91F8A870C
:104140008F3F49F40E94810E6A197B096D327140DC
:10415000A0F38FE003C08E3F31F08DE08D83CE0160
:104160000E94C01F42C018861F8281E08E838FEF9D
:104170008EBD2FEF8F8198858C159D0550F40DB461
:1041800007FEFDCF2EBD8F819885019698878F837E
:10419000F1CFC8010197F7012FEFAF014E195F0969
:1041A0004817590738F40DB407FEFDCF3EB53193DB
:1041B0002EBDF3CF0DB407FEFDCF2EB5F701E80FEE
:1041C000F91F20838F819885080F191F18870F8387
:1041D0008985882319F00115124060F08E818823AB
:1041E00049F0CE010E94C51F05C0CE010E94C01F2C
:1041F00080E001C081E0DF91CF911F910F91FF908E
:10420000EF90DF90CF90BF90AF9008950F931F93E2
:10421000CF93DF93EC0189014115510561057105CB
:1042200011F482E144C08B85833039F089E0440F7A
:10423000551F661F771F8A95D1F79A01AB0168E178
:10424000CE010E940920882311F084E030C08EEF57
:104250008EBDF801C8019E5F0DB407FEFDCF208121
:104260002EBD0DB407FEFDCF21812EBD32968E17D7
:104270009F0791F70DB407FEFDCF8FEF0E94E41F5B
:104280008FEF0E94E41F0E94E91F8A878F7185309B
:1042900031F081E18D83CE010E94C01F09C068E525
:1042A00072E0CE010E94EE1F811107C085E18D836F
:1042B000CE010E94C01F80E013C020E030E0A901C1
:1042C0006DE0CE010E940920811104C00E94E91F07
:1042D000882311F084E1EBCFCE010E94C01F81E062
:1042E000DF91CF911F910F9108958091151688232A
:1042F000A9F1409106025091070260910802709165
:10430000090226E136E180910F14909110140E9469
:104310000621811102C080E008954091461B509112
:10432000471B6091481B7091491B41155105610560
:10433000710591F026E136E180910F1490911014EF
:104340000E940621882339F31092461B1092471BC6
:104350001092481B1092491B1092151681E0089587
:104360008F929F92AF92BF92EF92FF920F931F9303
:10437000CF934B015C01C42F8091060290910702FC
:10438000A0910802B091090288159905AA05BB05FC
:1043900001F10E947521811102C080E020C086E1F8
:1043A000E82E86E1F82E00E012E020E030E0B501D2
:1043B000A40180910F14909110140E945D20882315
:1043C00061F38092060290920702A0920802B092D6
:1043D000090280911516C82BC093151681E0CF9164
:1043E0001F910F91FF90EF90BF90AF909F908F9093
:1043F00008954F925F926F927F928F929F92AF92A9
:10440000BF92CF92DF92EF92FF920F931F93CF93C1
:10441000DF93EC01423051056105710510F480E035
:1044200078C089859A85AB85BC850196A11DB11D93
:1044300084179507A607B70790F3CB88DC88ED882B
:10444000FE888F89803129F4BB27A72F962F852FCF
:1044500009C0DB01CA01E7E0B695A7959795879556
:10446000EA95D1F7480159012A013B01C80ED91E2E
:10447000EA1EFB1E8091060290910702A09108029D
:10448000B0910902C816D906EA06FB0681F48F89A5
:104490008031A9F4B301A201552766277727440F7D
:1044A000551FFA01EA5EF94E9182808219C040E000
:1044B000C701B6010E94B0218111E9CFB0CFB3018D
:1044C000A2014F77552766277727440F551F440FC2
:1044D000551FFA01EA5EF94E80829182A282B38270
:1044E000809115168160809315168A89823080F03C
:1044F0008D819E81AF81B885C80ED91EEA1EFB1E34
:10450000C092461BD092471BE092481BF092491B79
:1045100081E0DF91CF911F910F91FF90EF90DF909D
:10452000CF90BF90AF909F908F907F906F905F9053
:104530004F9008958F929F92AF92BF92CF92DF9249
:10454000EF92FF920F931F93CF93DF93FC0181852E
:104550009285A385B4850196A11DB11D8417950789
:10456000A607B70710F480E05BC083889488A5880D
:10457000B6888789803129F4BB27A72F962F852FEE
:1045800009C0DB01CA01C7E0B695A7959795879545
:10459000CA95D1F7E9016A017B018F01BC01CD0108
:1045A000680D791D8A1D9B1D809006029090070260
:1045B000A0900802B0900902681579058A059B054C
:1045C00091F4F80187898031A1F4DD24EE24FF24E1
:1045D000C601880F991FFC01EA5EF94E8081918126
:1045E000A0E0B0E018C040E00E94B0218111E9CF06
:1045F000BACFE894C7F8DD24EE24FF24C601880F63
:10460000991F880F991FFC01EA5EF94E8081918104
:10461000A281B381BF7088839983AA83BB8381E021
:10462000DF91CF911F910F91FF90EF90DF90CF908E
:10463000BF90AF909F908F900895CF93DF93CDB7A9
:10464000DEB7C054D1090FB6F894DEBF0FBECDBFA0
:10465000789484B5826084BD84B5816084BD85B55D
:10466000826085BD85B5816085BD80916E00816069
:1046700080936E001092810080918100826080930F
:104680008100809181008160809381008091800011
:104690008160809380008091B10084608093B1003C
:1046A0008091B00081608093B00080919100826021
:1046B000809391008091910081608093910080911E
:1046C00090008160809390008091A100826080932F
:1046D000A1008091A10081608093A1008091A00041
:1046E00081608093A00080912101826080932101EC
:1046F000809121018160809321018091200181605E
:104700008093200180917A00846080937A00809168
:104710007A00826080937A0080917A008160809331
:104720007A0080917A00806880937A001092C100AC
:1047300062E082E00E941F0EE091931AF091941AB9
:1047400081E090E09C0100909F1A02C0220F331F6D
:104750000A94E2F72083E0918F1AF091901A108268
:10476000E091911AF091921A2FEC20831092A01AE6
:10477000E091951AF091961A40819C0100909B1A45
:1047800002C0220F331F0A94E2F7242B2083E0910A
:10479000951AF091961A40819C0100909C1A02C0D3
:1047A000220F331F0A94E2F7242B2083E091951AFD
:1047B000F091961A40819C0100909D1A02C0220F30
:1047C000331F0A94E2F7242B2083E091951AF0918D
:1047D000961A208100909E1A02C0880F991F0A9491
:1047E000E2F780958223808380E092E1AAE7B0E03F
:1047F0008093C71A9093C81AA093C91AB093CA1A83
:1048000061E08091CC1A0E941F0E60E08091CC1A6A
:104810000E94F00D61E08091CB1A0E941F0E61E0B2
:104820008091CB1A0E94F00D8091CE1A87FD1FC097
:1048300061E08091CF1A0E941F0E60E08091CF1A34
:104840000E94F00D61E08091CE1A0E941F0E61E07F
:104850008091CE1A0E94F00D8091D01A87FD03C07E
:1048600060E00E941F0E8091CE1A87FF16C061E0A3
:1048700085E30E94F00D61E085E30E941F0E8CB578
:1048800080618CBD8CB580648CBD61E084E30E9446
:104890001F0E61E083E30E941F0E8091CD1A87FDF9
:1048A00024C061E00E941F0E61E08091CD1A0E9439
:1048B000F00D64E670E080E090E00E945B0E60E046
:1048C0008091CD1A0E94F00D64E670E080E090E0E7
:1048D0000E945B0E61E08091CD1A0E94F00D68ECA1
:1048E00070E080E090E00E945B0E8DEA9AE10E9409
:1048F00022146FEE8DEA9AE10E94651463E08DEA5E
:104900009AE10E943A1460E88DEA9AE10E943A1412
:1049100062E08DEA9AE10E943A146FEC8DEA9AE126
:104920000E94651460E08DEA9AE10E943A1461ECFD
:104930008DEA9AE10E943A1460E38DEA9AE10E94BE
:104940003A146DEE8DEA9AE10E94651464E68DEAF0
:104950009AE10E943A1463E08DEA9AE10E943A14C7
:1049600062E18DEA9AE10E943A1461E88DEA9AE1E7
:104970000E943A1468EE8DEA9AE10E94651465E897
:104980008DEA9AE10E943A1460E08DEA9AE10E9471
:104990003A1468E78DEA9AE10E943A146BEC8DEACA
:1049A0009AE10E94651469E38DEA9AE10E943A1443
:1049B0006CE28DEA9AE10E943A1460E08DEA9AE195
:1049C0000E943A1464E38DEA9AE10E943A1462E08C
:1049D0008DEA9AE10E943A1467EF8DEA9AE10E940B
:1049E000651460E28DEA9AE10E943A146AEE8DEA5B
:1049F0009AE10E94651460E08DEA9AE10E943A14FF
:104A000060E08DEA9AE10E943A1460EC8DEA9AE146
:104A10000E94651463E28DEA9AE10E943A1461EC07
:104A20008DEA9AE10E94651460E18DEA9AE10E94A4
:104A30003A1465EC8DEA9AE10E9465146EE38DEA02
:104A40009AE10E943A1468E28DEA9AE10E943A14CF
:104A500067EC8DEA9AE10E94651466E88DEA9AE1B6
:104A60000E943A1466E38DEA9AE10E94651468E4B4
:104A70008DEA9AE10E943A1467E38DEA9AE10E9476
:104A800065148091CE1A87FF09C01EBC0DB407FEC5
:104A9000FDCF1EBC0DB407FEFDCF0AC060E08DEA5D
:104AA0009AE10E943A1460E08DEA9AE10E943A1479
:104AB0006AE38DEA9AE10E94651465E58DEA9AE160
:104AC0000E943A1461EB8DEA9AE10E94651460E05D
:104AD0008DEA9AE10E943A1468E18DEA9AE10E9417
:104AE0003A1466EB8DEA9AE10E94651468E08DEA5B
:104AF0009AE10E943A1462E88DEA9AE10E943A141F
:104B000067E28DEA9AE10E943A1462EF8DEA9AE137
:104B10000E94651460E08DEA9AE10E943A1466E210
:104B20008DEA9AE10E94651461E08DEA9AE10E94A3
:104B30003A1460EE8DEA9AE10E9465146FE08DEA06
:104B40009AE10E943A1461E38DEA9AE10E943A14D4
:104B50006BE28DEA9AE10E943A146CE08DEA9AE1E8
:104B60000E943A146EE08DEA9AE10E943A1468E0DD
:104B70008DEA9AE10E943A146EE48DEA9AE10E946D
:104B80003A1461EF8DEA9AE10E943A1467E38DEAE4
:104B90009AE10E943A1467E08DEA9AE10E943A1481
:104BA00060E18DEA9AE10E943A1463E08DEA9AE1AD
:104BB0000E943A146EE08DEA9AE10E943A1469E08C
:104BC0008DEA9AE10E943A1460E08DEA9AE10E942F
:104BD0003A1461EE8DEA9AE10E94651460E08DEA74
:104BE0009AE10E943A146EE08DEA9AE10E943A142A
:104BF00064E18DEA9AE10E943A1463E08DEA9AE159
:104C00000E943A1461E18DEA9AE10E943A1467E049
:104C10008DEA9AE10E943A1461E38DEA9AE10E94DA
:104C20003A1461EC8DEA9AE10E943A1468E48DEA44
:104C30009AE10E943A1468E08DEA9AE10E943A14DF
:104C40006FE08DEA9AE10E943A146CE08DEA9AE1F5
:104C50000E943A1461E38DEA9AE10E943A1466E3F5
:104C60008DEA9AE10E943A146FE08DEA9AE10E947F
:104C70003A1461E18DEA9AE10E94651468E770E0F8
:104C800080E090E00E945B0E69E28DEA9AE10E946A
:104C9000651468E770E080E090E00E945B0E8DEAAA
:104CA0009AE10E948B1180EF90E09093B61A809366
:104CB000B51A80E491E09093B81A8093B71A6AE726
:104CC00072E08FE79AE10E946A0D86E198E10E9406
:104CD000BC1A882309F4F6C381E00E94821B882352
:104CE00029F080914518882341F0ECC380E00E94B0
:104CF000821B882309F4E6C3F4CF809139188031F0
:104D000009F582E0809345181092571810925818B0
:104D10001092591810925A1880913A1890913B1895
:104D2000A0E0B0E035E0880F991FAA1FBB1F3A959D
:104D3000D1F78093531890935418A0935518B093BB
:104D400056181FC0803209F0BDC383E08093451818
:104D500040913C1850913D1860913E1870913F1859
:104D600040935718509358186093591870935A18D5
:104D700023E538E182E298E10E942F1D882309F49F
:104D8000A1C382E298E190935C1880935B1881E064
:104D900080934418109246181092471810924818A1
:104DA0001092491810924A1810924B1810924C18F1
:104DB00010924D1810924E1810924F1810925018D1
:104DC000109251181092521862E972E08FE79AE13E
:104DD0000E946A0D81EA9AE10E94BC1A811107C003
:104DE00062EC72E08FE79AE10E94E81CFFCF6AEC68
:104DF00072E08FE79AE10E94E81C6FEF8DEA9AE17A
:104E00000E9419161092C31A88E890E090935303F9
:104E10008093520388E790E0909355038093540366
:104E200080E393E0909357038093560380EC93E0E4
:104E300090935903809358031092111410921214F6
:104E400010921314109214140E94C0048AE190E08E
:104E50000E94131A0EE111E01093BA1A0093B91AC6
:104E60008BE090E09093BC1A8093BB1A1092C01A0A
:104E70001092BF1A1092BE1A1092BD1A84E080934D
:104E8000C11A65E070E08DEA9AE10E94771988E422
:104E900090E00E94131A1093BA1A0093B91A89E38A
:104EA00090E09093BC1A8093BB1A64E070E08DEAA6
:104EB0009AE10E94771986E790E00E94131A1093F6
:104EC000BA1A0093B91A87E690E09093BC1A8093BF
:104ED000BB1A63E070E08DEA9AE10E94771984EAD8
:104EE00090E00E94131A1093BA1A0093B91A85E938
:104EF00090E09093BC1A8093BB1A62E070E08DEA58
:104F00009AE10E94771982ED90E00E94131A1093A3
:104F1000BA1A0093B91A83EC90E09093BC1A80936C
:104F2000BB1A61E070E08DEA9AE10E94771994E57E
:104F3000892E99E8992EA12CB12C27E5422E2EEA34
:104F4000522E66246A94762C809104149091051454
:104F5000892B09F0D7C187E30E947F0D8C0186E37E
:104F60000E947F0D7C010E94B01C6C01013022E088
:104F700012072CF0013432E0130744F42EC080E015
:104F800092E0801B910B813491053CF1125017FF88
:104F900002C0015C1F4F86E0159507958A95E1F7E1
:104FA0008091540390915503080F191F0430110587
:104FB00034F00C3E11052CF00BEE10E002C004E0C2
:104FC00010E0109355030093540341E080914C038B
:104FD00090914D038017910709F440E051E0E516E8
:104FE00052E0F50634F061E4E61662E0F60644F4B9
:104FF00032C080E092E08E199F09813491055CF106
:1050000080E092E08E199F0997FDCF96B6E09595C6
:105010008795BA95E1F72091520330915303820F9F
:10502000931F843091053CF08C30E1E09E072CF01A
:105030008BE091E002C084E090E090935303809372
:10504000520321E060914A0370914B03681779077E
:1050500009F420E0422B442309F45FC0209152035D
:105060003091530380915603909157032B30F1E018
:105070003F0739F4803F26E09207B1F0805F9E4FF2
:1050800007C02430310581F4009771F080519140C0
:10509000909357038093560388E890E090935303CE
:1050A0008093520321E001C020E0409154035091CD
:1050B000550380915803909159034B3E510539F4A3
:1050C000803137E09307A9F080519F4F07C04430EB
:1050D000510579F4009769F0805F91099093590325
:1050E0008093580388E790E090935503809354038E
:1050F000F6C12111F4C1809156039091570390930A
:105100004F0380934E0380915803909159039093DD
:105110005103809350030E94860488E0E2E5F3E0A7
:10512000AAE4B3E001900D928A95E1F7CD2809F049
:105130000BCF1092BA1A1092B91A1092BC1A109290
:10514000BB1A60E070E08DEA9AE10E944E13AAE576
:10515000CA2EA3E0DA2E00E010E0B801CE010196DD
:105160000E940919F6011183008389819A81AB811C
:10517000BC81825C904DA145B109BC01CD01FBE031
:10518000660F771F881F991FFA95D1F7A301920127
:105190000E94282C60915803709159038091540308
:1051A00090915503860F971F7901E81AF90AF7FEC7
:1051B00003C0F194E194F1088D819E81AF81B8859F
:1051C00084539748A245BF4FBC01CD01EBE0660F69
:1051D000771F881F991FEA95D1F7A50194010E94B6
:1051E000282C60915603709157038091520390913F
:1051F0005303860F971F281B390B37FF03C03195C8
:10520000219531092E0D3F1DF601338322830F5F57
:105210001F4FF4E0CF0ED11C0A3224E0120709F030
:105220009CCF02E014E129E234E0EAE5F3E080E01B
:1052300090E041E050E0DC01AA0FBB1FAA0FBB1FAA
:10524000A65ABC4FE680F78012966D917C91139719
:105250006E157F0508F4CA014F5F5F4F349624171F
:1052600035074CF7880F991F880F991FAC01465AD4
:105270005C4F7A01F801B291A291929182918F01D3
:10528000FA014081518162817381F8014083518329
:1052900062837383F70180839183A283B383215058
:1052A000310919F6109203141092021400E010E074
:1052B000C8010E942F040F5F1F4F0E311105C1F767
:1052C00081E090E0909305148093041461E070E015
:1052D0008FE79AE10E9477198FE79AE10E94D41C28
:1052E0006EEC72E08FE79AE10E94E81C0E94B01C0D
:1052F000892B09F029CE6AE070E080E090E00E94FE
:105300005B0EF4CF009102141091031487E30E9406
:105310007F0D8134F2E09F071CF0C801019605C0A3
:10532000803C914034F4C80101979093031480931A
:10533000021480910214909103148E31910514F09F
:105340008DE190E097FF02C080E090E0909303141D
:10535000809302140817190779F0C8010E942F04DE
:1053600080910214909103140E942F0462E370E074
:1053700080E090E00E945B0E0E94B01C8C01892BA3
:1053800009F0E2CDE0910214F0910314EE0FFF1F3B
:10539000EE0FFF1FE65AFC4F60817181CE0101962E
:1053A0000E9409198D819E81AF81B88584539748E9
:1053B000A245BF4FBC01CD01EBE0660F771F881FF0
:1053C000991FEA95D1F7A50194010E94282C690143
:1053D0007A012838310554F039E7C31637E0D3068F
:1053E00044F4160148E8241A310807C0212C312C56
:1053F00004C040EF242E46E0342E30925703209212
:10540000560389819A81AB81BC81825C904DA14514
:10541000B109BC01CD013BE0660F771F881F991FC2
:105420003A95D1F7A30192010E94282C2837310523
:1054300054F0293867E0360724F489010857110928
:1054400002C000E117E01093590300935803C6010E
:1054500082199309843091053CF08C30E1E09E077D
:105460002CF08BE091E002C084E090E09093530335
:1054700080935203201B310B2430310534F02C3E35
:1054800031052CF02BEE30E002C024E030E0309308
:1054900055032093540388E0E2E5F3E0AAE4B3E087
:1054A00001900D928A95E1F70E94C0040E94B01C01
:1054B000892B09F049CD6AE070E080E090E00E941D
:1054C0005B0EF4CF62EC72E08FE79AE10E94E81C79
:1054D0006CED72E08FE79AE10E94E81CFFCF8091AB
:1054E000560390915703813FF6E09F0714F080EF39
:1054F00096E097FF02C080E090E09093570380937E
:1055000056036091580370915903613127E0720787
:1055100014F060E177E077FF02C060E070E0709324
:1055200059036093580320EFE22EF12C00E111E0C3
:1055300020E030E040E050E00E946516DCCDCF92E4
:10554000DF92EF92FF92E6E1F8E115821682118672
:10555000138682E090E0A0E0B0E084879587A6877C
:10556000B78713A215A614A686E292E093A782A796
:1055700017A6EFE7FAE11382128288EEC82E83E0C5
:10558000D82EE12CF12CC482D582E682F7826EE31C
:1055900072E0718360838BE39AE19587848787EF5C
:1055A00099E19787868785EC90E0918B808B84ECDE
:1055B00090E0938B828B80EC90E0958B848B81ECD8
:1055C00090E0978B868B82EC90E0918F808F86ECB9
:1055D00090E0938F828F44E0448F33E0358F27E053
:1055E000268F95E0978F81E080A3E4E2FBE11382B0
:1055F0001282C482D582E682F78271836083A3EB34
:10560000B9E1B587A487AFE6B9E1B787A687ADEC66
:10561000B0E0B18BA08BACECB0E0B38BA28BA8EC6C
:10562000B0E0B58BA48BA9ECB0E0B78BA68BAAEC4D
:10563000B0E0B18FA08FAEECB0E0B38FA28F448FFB
:10564000358F268F978F80A3E2E0FBE113821282D1
:10565000C482D582E682F78271836083ABE2B9E1CE
:10566000B587A487A7EEB8E1B787A687A5EDB0E018
:10567000B18BA08BA4EDB0E0B38BA28BA0EDB0E01A
:10568000B58BA48BA1EDB0E0B78BA68BA2EDB0E0FB
:10569000B18FA08FA6EDB0E0B38FA28F448F358F6E
:1056A000268F978F80A3E0EEFAE113821282C482E4
:1056B000D582E682F7827183608363EA78E1758739
:1056C00064876FE578E17787668765E371E0718BC2
:1056D000608B64E371E0738B628B60E371E0758BC8
:1056E000648B61E371E0778B668B62E371E0718FAD
:1056F000608F66E371E0738F628F448F358F268FE2
:10570000978F80A3ADEABAE113961C921E9212976E
:1057100040EF50E015965C934E93149720E431E0EF
:1057200017963C932E93169719965C934E93189761
:105730001B963C932E931A9755961C9255971D963F
:105740001C921E921C971F961C921E921E97549696
:105750008C9354972FEF3FEF53963C932E93529791
:1057600051963C932E93509756968C9356975796F6
:105770001C92579759961C921E92589786E592E074
:1057800011969C938E938AE05E968C935E9789E047
:105790005F968C935F978FEF90968C9390979196EE
:1057A0008C93919792968C93929793968C939397D0
:1057B0005A961D921D921D921C925D97EAEBF7E09E
:1057C000E491F0E0EE0FFF1FEA56F84F85919491B7
:1057D0009D969C938E939C97EAE5F7E0E491D19691
:1057E000EC93D197E9EBF7E0E491F0E0EE0FFF1FC7
:1057F000EA56F84F859194919B969C938E939A9735
:10580000E9E5F7E0E491D296EC93D29799961C9251
:105810001E929897D0961C92D09795961C921E92A5
:1058200094979E961C929E9797961C921E9296977E
:105830009F961C92E1EAFAE1158216821186138680
:10584000FF90EF90DF90CF900895F8940C940A2E7B
:10585000052E97FB1EF400940E943F2C57FD07D0A5
:105860000E94522C07FC03D04EF40C943F2C509510
:105870004095309521953F4F4F4F5F4F089590953C
:105880008095709561957F4F8F4F9F4F08950E942F
:10589000742CA59F900DB49F900DA49F800D911D19
:1058A00011240895A1E21A2EAA1BBB1BFD010DC0F5
:1058B000AA1FBB1FEE1FFF1FA217B307E407F507C0
:1058C00020F0A21BB30BE40BF50B661F771F881F9C
:1058D000991F1A9469F760957095809590959B0132
:1058E000AC01BD01CF010895A29FB001B39FC001DB
:1058F000A39F700D811D1124911DB29F700D811DFC
:105900001124911D08950F931F93CF93DF9382303D
:10591000910510F482E090E0E0914C1BF0914D1B5A
:1059200020E030E0A0E0B0E0309719F140815181F3
:105930000281138148175907C8F08417950769F445
:10594000109731F012960C93129713961C9327C060
:1059500000934C1B10934D1B22C02115310519F0EB
:105960004217530718F49A01BD01EF01DF01F80156
:10597000DBCF21153105F9F0281B390B2430310517
:1059800080F48A819B816115710521F0FB0193836D
:10599000828304C090934D1B80934C1BFE01329672
:1059A00044C0FE01E20FF31F81939193225031090D
:1059B000398328833AC020914A1B30914B1B232BFB
:1059C00041F420910C0230910D0230934B1B209337
:1059D0004A1B20910A0230910B022115310541F436
:1059E0002DB73EB740910E0250910F02241B350B8C
:1059F000E0914A1BF0914B1BE217F307A0F42E1B1A
:105A00003F0B2817390778F0AC014E5F5F4F241722
:105A1000350748F04E0F5F1F50934B1B40934A1BB6
:105A20008193919302C0E0E0F0E0CF01DF91CF914C
:105A30001F910F910895CF93DF93009709F481C0D0
:105A4000FC01329713821282A0914C1BB0914D1B26
:105A5000109781F420813181820F931F20914A1B7E
:105A600030914B1B2817390751F5F0934B1BE093EE
:105A70004A1B67C0ED0120E030E0CE17DF0740F49D
:105A80004A815B819E0141155105F1F0EA01F5CF94
:105A9000D383C28340815181840F951FC817D907D2
:105AA00059F488819981840F951F02969183808390
:105AB0008A819B81938382832115310529F4F09398
:105AC0004D1BE0934C1B3DC0E901FB83EA834991E8
:105AD0005991C40FD51FEC17FD0761F480819181A6
